:1000000022C200000C94D67E0C94867E0C94517E05
:100010004BC2000049C2000047C2000045C20000B8
:1000200043C2000041C200003FC200003DC20000C8
:100030000C94FE800C94477E0C943D7E35C20000EB
:1000400033C2000031C200002FC200002DC20000E8
:100050002BC2000029C200000C94337E0C94D17294
:1000600023C2000021C200001FC200001DC2000008
:100070001BC2000019C2000017C2000015C2000018
:100080000C94257D0C94177C0FC200000DC200005B
:100090000BC2000009C2000007C2000005C2000038
:1000A00003C2000001C200000C947E7A0C94EB782D
:1000B0000C94A076F9C10000F7C100000C94DA742A
:1000C0000C941B73F1C10000EFC10000EDC10000F2
:1000D000EBC10000E9C10000E7C10000E5C100007C
:1000E000E3C10000084AD73B3BCE016E84BCBFFD94
:1000F000C12F3D6C74319ABD56833DDA3D00C77FF8
:1001000011BED9E4BB4C3E916BAAAABE0000008090
:100110003F0664EC1B3C04BC163E3BE5B93CC93CC5
:1001200037C29E5A3D660498083EEA69AAAA3E0074
:100130000000803F00407A10F35A00A0724E180968
:100140000010A5D4E80000E87648170000E40B543E
:10015000020000CA9A3B000000E1F505000080960D
:100160009800000040420F000000A086010000003F
:10017000102700000000E8030000000064000000F9
:1001800000000A00000000000100000000002C76C2
:10019000D888DC674F0823DFC1DFAE59E1B1B796DD
:1001A000E5E3E453C63AE651997696E8E6C284263A
:1001B000EB898C9B62ED407C6FFCEFBC9C9F40F216
:1001C000BAA56FA5F490055A2AF75C936B6CF96792
:1001D0006DC11BFCE0E40D47FEF520E6B500D0ED57
:1001E000902E0300943577050080841E08000020BF
:1001F0004E0A000000C80C333333330F986E12835D
:100200001141EF8D2114893BE65516CFFEE6DB1830
:10021000D1844B381BF77C1D901DA4BBE4242032F5
:1002200084725E228100C9F124ECA1E53D27000023
:100230000A0B02090C0D0E08070304010000000060
:1002400000000000000000000000000000000000AE
:10025000000000000000000000001211100000006B
:10026000000000000000000000000000000000008E
:100270000000000000000F110F050900000011111F
:100280001D131D00000011110F01010000001212CA
:1002900012121F0100001F040404040000001111C9
:1002A0001F1111000000111B151111000000121484
:1002B00018141200000011131519110000000E117E
:1002C00006110E00000015150E1515000000060A97
:1002D0000A0A1F1100001E101010100000001E114D
:1002E0001E111E00030C101E11110E000F11110F14
:1002F000050911001215151D151512000E11010723
:1003000001110E001010101E11111E001111111DEF
:1003100013131D001111111515151F001111110FC7
:10032000010101001212121212121F01040E151502
:10033000150E04001111110F01110E001F111111E2
:1003400011111100070909090909110015111113EB
:100350001519110011111113151911000E110106B3
:1003600001110E001515150E15151500060A0A0ABD
:100370000A0A1F111F101010101010001F10101E5D
:1003800011111E0000002200250028002B002E0065
:100390003100340002010000050108010B010000DA
:1003A0002100240027002A002D0030003300010125
:1003B0000000040107010A010505050507050808F5
:1003C0000808020202020A0A0808040404040101DF
:1003D00001010101010103030303030303030407F4
:1003E00007070C0C0C0C0C0C0C0C0202020206068B
:1003F0000606060606060B0B0B0B0B0B0B0B01027E
:100400001020200808102040102040800201020126
:1004100008040201010204081020408080402010DE
:100420000804020180040201804020100804020137
:10043000080402010102040810204080010204089F
:1004400010204080609211241FBECFEFD1E2DEBFAA
:10045000CDBF00E00CBF11E1A0E0B2E0E8EBF7E3B4
:1004600001E00BBF02C007900D92AE36B107D9F77D
:1004700022E1AEE6B1E101C01D92AD39B207E1F76C
:1004800012E0C3E2D2E000E006C021970109802F0C
:10049000FE010E94CB98C232D10780E00807A9F77D
:1004A0000E945E810C94DA9BABCDEEE5F2E1128EF8
:1004B000118E8FEF858F868F878F80A381A382A374
:1004C00083A384A385A386A387A380A781A782A7EC
:1004D00083A784A785A786A787A780AB81AB82ABBC
:1004E00083AB84AB85AB86AB87AB80AF81AF82AF8C
:1004F00083AF84AF85AF86AF089590E0FC01E250F2
:10050000FC4F249188549C4FFC018491882399F0DE
:1005100090E0880F991FFC01E256FC4FA591B49121
:10052000FC01EC57FC4F859194918FB7F894EC91B6
:10053000E22BEC938FBF08954F925F926F927F9260
:100540008F929F92AF92BF92CF92DF92EF92FF92E3
:10055000CF93DF9300D000D000D0CDB7DEB76D834E
:100560007E838F83988749876091070A7091080A74
:10057000072E000C880B990B0E94619620E030E05A
:1005800040E850E40E9441976B017C016091050AAC
:100590007091060A072E000C880B990B0E94619639
:1005A0009B01AC01C701B6010E9441976B017C0120
:1005B0006091030A7091040A072E000C880B990BB6
:1005C0000E9461969B01AC01C701B6010E94419750
:1005D0006B017C016091010A7091020A072E000CE8
:1005E000880B990B0E9461962B013C016091FF09D9
:1005F0007091000A072E000C880B990B0E946196DF
:100600004B015C016091FD097091FE09072E000C01
:10061000880B990B0E94619669837A838B839C83F4
:10062000898521E73DEF4EE753E4882321F02BEC49
:1006300031E840E85BE3C301B2010E944197A501A4
:1006400094010E94419729813A814B815C810E94EB
:1006500041979B01AC01C701B6010E94C6959B0161
:10066000AC016D817E818F8198850E94C695299607
:100670000FB6F894DEBF0FBECDBFDF91CF91FF90D4
:10068000EF90DF90CF90BF90AF909F908F907F9032
:100690006F905F904F900895AF92BF92CF92DF928C
:1006A000EF92FF920F931F93CF93DF936C017B0127
:1006B0008B01040F151FEB015E01AE18BF08C017B8
:1006C000D10759F06991D601ED91FC910190F0812B
:1006D000E02DC6011995892B79F7C501DF91CF91DE
:1006E0001F910F91FF90EF90DF90CF90BF90AF9050
:1006F0000895282F30E0F901E25DFD4F9491F90152
:10070000E250FC4F449128543C4FF901249122239C
:1007100009F435C0992311F191509231F8F4E92F81
:10072000F0E08827E956FC4F8F4F0C94CB98C80314
:10073000CC03A903C003C403AE03CF03D503D9037D
:10074000DF03E303E703ED03F103AE03F503FB036C
:10075000FF03809180008F7780938000E22FF0E08C
:10076000EE0FFF1FEC57FC4FA591B4918FB7F89493
:10077000EC91611148C040954E234C938FBF089572
:10078000809180008F7DE8CF80918000877FE4CFCB
:1007900084B58F7784BDE2CF84B58F7DFBCF809108
:1007A000B0008F778093B000D9CF8091B0008F7D5B
:1007B000F9CF809190008F7780939000CFCF809178
:1007C00090008F7DF9CF80919000877FF5CF809149
:1007D000A0008F778093A000C1CF8091A0008F7D73
:1007E000F9CF8091A000877FF5CF809120018F778E
:1007F00080932001B3CF809120018F7DF9CF80912C
:100800002001877FF5CF4E2BB8CF089590E080E090
:10081000089580911502909116028230910530F072
:1008200096958795909316028093150208952F92BE
:100830003F924F925F926F927F928F929F92AF9270
:10084000BF92CF92DF92EF92FF920F931F93CF93BD
:10085000DF93CDB7DEB7A0970FB6F894DEBF0FBE1B
:10086000CDBF8B8F9C8F6D8F7E8F60912902709191
:100870002A02072E000C880B990B0E94619669834F
:100880007A838B839C830091050A1091060A20913C
:10089000030A3091040A3E832D83B801012E000C17
:1008A000880B990B0E9461966B017C018D819E8162
:1008B000092E000CAA0BBB0B8B8B9C8BAD8BBE8BBC
:1008C000BC01CD010E9461969B01AC01C701B6013C
:1008D0000E9441976B017C01609127027091280270
:1008E000072E000C880B990B0E9461964B015C014E
:1008F000A091010AB091020AB887AF83BD01BB0F76
:10090000880B990B0E94619669877A878B879C87F1
:10091000A5019401C701B6010E94419729853A8536
:100920004B855C850E94C6959B01AC0169817A81EB
:100930008B819C810E94C69520E030E040E05FE31F
:100940000E94419720E030E040E05FE30E9436954E
:100950000E9433966F3F71058105910511F008F0F3
:1009600081C12091FF093091000A38A32F8F209078
:10097000FD093090FE09B901330F880B990B0E94D5
:1009800061962B013C01C101032C000CAA0BBB0B8F
:100990008F8B988FA98FBA8FBC01CD010E94619671
:1009A0009B01AC01C301B2010E9441972B013C01A4
:1009B000A091070AB091080ABE87AD87BD01BB0FA1
:1009C000880B990B0E9461966F87788B898B9A8B25
:1009D000A3019201C501B4010E9441972F85388976
:1009E00049895A890E94C6959B01AC0169817A8127
:1009F0008B819C810E94C69520E030E040E05FE35F
:100A00000E94419720E030E040E05FE30E9436958D
:100A10000E9433966F3F71058105910511F008F032
:100A200021C16091170270911802072E000C880BEB
:100A3000990B0E9461964B015C01AC019B01C701BF
:100A4000B6010E94419729853A854B855C850E94B5
:100A5000C6959B01AC0169817A818B819C810E9442
:100A6000C69520E030E040E05FE30E94419720E03F
:100A700030E040E05FE30E9436950E94339662309A
:100A800071058105910508F4EDC0A5019401C3012C
:100A9000B2010E9441972F85388949895A890E945D
:100AA000C6959B01AC0169817A818B819C810E94F2
:100AB000C69520E030E040E05FE30E94419720E0EF
:100AC00030E040E05FE30E9436950E94339662304A
:100AD00071058105910508F4C5C020912E02309161
:100AE0002F023A8329832CE330E0AF81B8850E943E
:100AF000E898E4E68E2E912CA12CB12CA50194014E
:100B00000E948D9869017A0129813A81D8010E9459
:100B1000D3989B01AC016B897C898D899E890E9449
:100B20005798A70196010E948D98220F331F441FEA
:100B3000551FA0E94A2EA0ED5A2EA3E06A2E712C73
:100B4000C301B2010E948D98215031094109510918
:100B5000211531054140510508F084C02CE330E0F7
:100B6000AD85BE850E94E898A50194010E948D98EC
:100B700049015A0129813A81AF8DB8A10E94D398C9
:100B80009B01AC016F89788D898D9A8D0E94579851
:100B9000A50194010E948D98220F331F441F551FF9
:100BA000C301B2010E948D982150310941095109B8
:100BB000211531054140510508F054C080911902BA
:100BC00090911A029C01990F440B550B29833A838B
:100BD0004B835C839801AD81BE810E94D3989B01B9
:100BE000AC0169817A818B819C810E945798A70111
:100BF00096010E948D98220F331F441F551FC30179
:100C0000B2010E948D9821503109410951092230C9
:100C100031054105510530F12F8D38A1D1010E94D8
:100C2000D3989B01AC0169817A818B819C810E9460
:100C30005798A50194010E948D98220F331F441FDD
:100C4000551FC301B2010E948D98215031094109FD
:100C50005109223031054105510520F03D8D3B8F72
:100C60004E8D4C8F8B8D9C8DA0960FB6F894DEBF69
:100C70000FBECDBFDF91CF911F910F91FF90EF90ED
:100C8000DF90CF90BF90AF909F908F907F906F90AC
:100C90005F904F903F902F9008954F925F926F9288
:100CA0007F928F929F92AF92BF92CF92DF92EF92FC
:100CB000FF926B017C016091290270912A02072E3C
:100CC000000C880B990B0E94619620E030E048E40C
:100CD00053E40E9441974B015C016091070A7091B7
:100CE000080A072E000C880B990B0E9461969B0145
:100CF000AC01C501B4010E9441974B015C016091B8
:100D0000FF097091000A072E000C880B990B0E94B6
:100D1000619620E030E44CE156E40E9441972B01BB
:100D20003C016091FD097091FE09072E000C880BB3
:100D3000990B0E9461969B01AC01C301B2010E9414
:100D400041979B01AC01C501B4010E94C695A70162
:100D500096010E94C695FF90EF90DF90CF90BF90D4
:100D6000AF909F908F907F906F905F904F9008957D
:100D70004F925F926F927F928F929F92AF92BF92AB
:100D8000CF92DF92EF92FF926B017C01609129027A
:100D900070912A02072E000C880B990B0E94619615
:100DA00020E030E048E453E40E9441974B015C01AD
:100DB0006091010A7091020A072E000C880B990BB2
:100DC0000E9461969B01AC01C501B4010E9441974C
:100DD0004B015C016091050A7091060A072E000C18
:100DE000880B990B0E94619620E030E44CE156E4B8
:100DF0000E9441972B013C016091030A7091040A03
:100E0000072E000C880B990B0E9461969B01AC0188
:100E1000C301B2010E9441979B01AC01C501B4011D
:100E20000E94C695A70196010E94C695FF90EF907B
:100E3000DF90CF90BF90AF909F908F907F906F90FA
:100E40005F904F9008958F929F92AF92BF92CF92F2
:100E5000DF92EF92FF920F931F93CF93DF934B019B
:100E60005C018A010E943396EB0190E080E00E94D1
:100E70005F969B01AC01C501B4010E94359520E04D
:100E800030E040E05FE30E94369787FF2196C03153
:100E900087E2D80730F0F80180818F5F8083D0E04F
:100EA000C0E0CE01DF91CF911F910F91FF90EF90A5
:100EB000DF90CF90BF90AF909F908F9008952F922A
:100EC0003F924F925F926F927F928F929F92AF92DA
:100ED000BF92CF92DF92EF92FF920F931F93CF9327
:100EE000DF934B015C0129013A01E80187011601FA
:100EF00020E030E0A9010E94C29518164CF420E0D1
:100F000030E0A901C301B2010E94C2951816D4F0C5
:100F10001882F80111821082F101108280E0DF91C5
:100F2000CF911F910F91FF90EF90DF90CF90BF90E6
:100F3000AF909F908F907F906F905F904F903F9079
:100F40002F9008956091070A7091080A072E000CEF
:100F5000880B990B0E9461962AE037ED43E25CE32F
:100F60000E9441976B017C012091FF093091000A9A
:100F70008091FD099091FE09289FB001299F700D75
:100F8000389F700D1124072E000C880B990B0E94BE
:100F900061969B01AC01C701B6010E94C695A301F1
:100FA00092010E9441979B01AC010E9436952B0152
:100FB0003C016091010A7091020A072E000C880B17
:100FC000990B0E9461962AE037ED43E25CE30E94B0
:100FD00041976B017C012091050A3091060A8091AE
:100FE000030A9091040A289FB001299F700D389F31
:100FF000700D1124072E000C880B990B0E9461962E
:101000009B01AC01C701B6010E94C6956B017C0132
:1010100020E030E040E05FE3C501B4010E94419769
:101020009B01AC01C701B6010E9441979B01AC0135
:10103000C301B2010E94C6956B017C0120E030E043
:1010400040E85FE30E94369787FD2AC021E73DEF25
:101050004EE753E4C701B6010E94369718160CF408
:1010600057CFC701B6010E943396688370E090E0C5
:1010700080E00E9461969B01AC01C701B6010E940D
:10108000359520E030E44CE156E40E944197AE01F2
:10109000DADEF80191838083F101108281E03FCF95
:1010A000A701960160E070E080E89FE30E94C6958A
:1010B0006B017C0121E73DEF4EE753E40E94369738
:1010C00018160CF425CFC701B6010E943396688329
:1010D00070E090E080E00E9461969B01AC01C70146
:1010E000B6010E94359520E030E44CE156E40E94C0
:1010F0004197AE01A8DEF8019183808381E0F10180
:1011000080830DCF4F925F926F927F928F929F92CA
:10111000AF92BF92CF92DF92EF92FF920F931F9305
:10112000CF93DF934B015C01EA01890160912902B1
:1011300070912A02072E000C880B990B0E94619671
:1011400020E030E048E453E40E9441976B017C01C9
:101150006091070A7091080A072E000C880B990B02
:101160000E9461969B01AC01C701B6010E944197A4
:101170006B017C016091FF097091000A072E000C41
:10118000880B990B0E94619620E030E44CE156E414
:101190000E9441972B013C016091FD097091FE096D
:1011A000072E000C880B990B0E9461969B01AC01E5
:1011B000C301B2010E944197A50194010E94419789
:1011C0009B01AC01C701B6010E94C6956B017C0171
:1011D0000E943396688370E090E080E00E94619600
:1011E0009B01AC01C701B6010E94359520E030E4B7
:1011F0004CE156E40E944197AE0125DEF80191834F
:101200008083DF91CF911F910F91FF90EF90DF903E
:10121000CF90BF90AF909F908F907F906F905F9096
:101220004F9008954F925F926F927F928F929F920C
:10123000AF92BF92CF92DF92EF92FF920F931F93E4
:10124000CF93DF934B015C01EA0189016091290290
:1012500070912A02072E000C880B990B0E94619650
:1012600020E030E048E453E40E9441976B017C01A8
:101270006091010A7091020A072E000C880B990BED
:101280000E9461969B01AC01C701B6010E94419783
:101290006B017C016091050A7091060A072E000C13
:1012A000880B990B0E94619620E030E44CE156E4F3
:1012B0000E9441972B013C016091030A7091040A3E
:1012C000072E000C880B990B0E9461969B01AC01C4
:1012D000C301B2010E944197A50194010E94419768
:1012E0009B01AC01C701B6010E94C6956B017C0150
:1012F0000E943396688370E090E080E00E946196DF
:101300009B01AC01C701B6010E94359520E030E495
:101310004CE156E40E944197AE0195DDF8019183BE
:101320008083DF91CF911F910F91FF90EF90DF901D
:10133000CF90BF90AF909F908F907F906F905F9075
:101340004F900895EBE0F1E080818F7E8083808173
:10135000877F80830895109252121092511210923A
:1013600050121092E0110895F398F69810924512D9
:101370001092291208951092F9111092FA111092F8
:10138000FB111092FC111092F5111092F6111092AF
:10139000F7111092F8111092F1111092F2111092AF
:1013A000F3111092F4111092E9111092EA111092B7
:1013B000EB111092EC111092ED111092EE111092AF
:1013C000EF111092F01180915A1290915B12A0913E
:1013D0005C12B0915D128093201290932112A09321
:1013E0002212B09323128091461290914712A0913D
:1013F0004812B09149128093101290931112A09349
:101400001212B093131208950F931F93CF93DF938B
:10141000409120125091211260912212709123125A
:101420008091E9119091EA11A091EB11B091EC112A
:10143000480F591F6A1F7B1F80915A1290915B12AF
:10144000A0915C12B0915D12481759076A077B079B
:1014500009F080C08091101290911112A091121287
:10146000B09113120091ED111091EE112091EF1136
:101470003091F011800F911FA21FB31F00914612EF
:10148000109147122091481230914912801791070C
:10149000A207B30709F05EC02091B01130E0E091DF
:1014A0000902F0910A02C0910B02D0910C022E1792
:1014B0003F0709F037C110910212112309F432C11C
:1014C0001092F9111092FA111092FB111092FC1166
:1014D0001092F5111092F6111092F7111092F81166
:1014E0001092F1111092F2111092F3111092F41166
:1014F0001092E9111092EA111092EB111092EC1176
:101500001092ED111092EE111092EF111092F01155
:101510004093201250932112609322127093231251
:101520008093101290931112A0931212B093131281
:1015300080910702909108029093D0118093CF116F
:1015400080910502909106029093AF118093AE11A5
:10155000C093B01180910112882309F464C1EA9804
:101560008091F9119091FA11A091FB11B091FC11A9
:101570008093F5119093F611A093F711B093F811A1
:1015800084E08CBBEA9A2091F5113091F6114091DC
:10159000F7115091F8118091F1119091F211A091F1
:1015A000F311B091F411281739074A075B0709F4C2
:1015B00064C02093F1113093F2114093F3115093D2
:1015C000F411C091030AD091040AA091B011B0E0C7
:1015D0000E94EE989B01AC01A091050AB091060A09
:1015E0000E94F8989B01AC01DE010E94F8982091BE
:1015F000010A3091020A032E000C440B550B0E9485
:10160000AF98CE01D7FD019695958795092E000CD0
:10161000AA0BBB0B820F931FA41FB51FD195C195B9
:10162000D109AE01DD0F660B770B84239523A6232A
:10163000B7238093E9119093EA11A093EB11B09333
:10164000EC118091CF119091D01101962091AE11A3
:101650003091AF11821B930B9093561280935512C9
:10166000809171008B7F8093710010929500109291
:10167000940082E088BB8093710080912012909149
:101680002112A0912212B09123124091E9115091A0
:10169000EA116091EB117091EC11840F951FA61F58
:1016A000B71F40915A1250915B1260915C12709179
:1016B0005D12481759076A077B070CF087C0F1983D
:1016C00020910B012F7B20930B01409155125091DB
:1016D0005612052E000C660B770B841B950BA60B80
:1016E000B70B8093A5119093A611A093A711B09367
:1016F000A8118091F6099091F709A091F809B0918D
:10170000F909841B950BA60BB70B80934C12909391
:101710004D12A0934E12B0934F12DF91CF911F91B3
:101720000F9108952C173D0709F014CF2091031253
:10173000222309F40FCF1092F9111092FA1110928E
:10174000FB111092FC111092F5111092F6111092EB
:10175000F7111092F8111092F1111092F2111092EB
:10176000F3111092F4111092E9111092EA111092F3
:10177000EB111092EC111092ED111092EE111092EB
:10178000EF111092F01140932012509321126093A8
:101790002212709323128093101290931112A0932F
:1017A0001212B0931312809103029091040290934D
:1017B000D0118093CF1180910102909102029093F9
:1017C000AF118093AE11E093B011C4CE841795078A
:1017D000A607B7070CF0A1CFF19A20910B01206466
:1017E00020930B014091551250915612052E000C7A
:1017F000660B770B840F951FA61FB71F8093A5114B
:101800009093A611A093A711B093A8118091C3043F
:101810009091C404A091C504B091C604840F951F93
:10182000A61FB71F72CF80910012882309F475CFCD
:10183000EA98809100028111C9C08091F9119091BC
:10184000FA11A091FB11B091FC118093F5119093C6
:10185000F611A093F711B093F81184E08CBBEA9ACB
:101860002091F5113091F6114091F7115091F81136
:101870008091F1119091F211A091F311B091F411B6
:10188000281739074A075B0709F464C02093F11150
:101890003093F2114093F3115093F411C091FD096C
:1018A000D091FE09A091B011B0E00E94EE989B018A
:1018B000AC01A091FF09B091000A0E94F8989B0129
:1018C000AC01DE010E94F8982091070A3091080AC5
:1018D000032E000C440B550B0E94AF98CE01D7FD90
:1018E000019695958795092E000CAA0BBB0B820FCC
:1018F000931FA41FB51FD195C195D109AE01DD0F6E
:10190000660B770B84239523A623B7238093ED11D1
:101910009093EE11A093EF11B093F0118091CF113D
:101920009091D01101962091AE113091AF11821B90
:10193000930B9093561280935512809171008D7F76
:1019400080937100109295001092940084E088BBFF
:10195000809371008091101290911112A091121237
:10196000B09113124091ED115091EE116091EF1171
:101970007091F011840F951FA61FB71F409146125A
:1019800050914712609148127091491248175907B7
:101990006A077B075CF5F49820910B012F7D20935B
:1019A0000B014091551250915612052E000C660BFA
:1019B000770B841B950BA60BB70B8093A511909307
:1019C000A611A093A711B093A811A7CE8091F911E9
:1019D0009091FA11A091FB11B091FC11B095A095D6
:1019E000909581959F4FAF4FBF4F2FCF841795078D
:1019F000A607B7070CF091CEF49A20910B01206254
:101A000020930B014091551250915612052E000C57
:101A1000660B770B840F951FA61FB71FCECF0F93B2
:101A20001F93CF93DF9380919D1190919E1101960A
:101A300090939E1180939D1188389341C4F08091BA
:101A40007A00806480937A0080917A0084FFFCCFD2
:101A50009091780080917900892798278927909321
:101A60009C1180939B1110929E1110929D11C09118
:101A7000D711D091D81180919B1190919C119E010A
:101A80002B5F3F4F281739072CF02A503109821756
:101A9000930734F497FF60C010929C1110929B1131
:101AA00080919D1190919E116AEF70E00E947A984A
:101AB000892B09F04BC080919A118F5F843108F017
:101AC00056C080939A11E0919A11F0E0EE0FFF1F3B
:101AD000E259FE4E00811181012E000C220B330BC6
:101AE0008091961190919711A0919811B0919911B0
:101AF000AC01BD01401B510B620B730B8A019B01B2
:101B000080919B1190919C1191838083092E000CF0
:101B1000AA0BBB0BBC01CD01600F711F821F931F6D
:101B200060939611709397118093981190939911E7
:101B300024E130E040E050E00E94AF983093D811AB
:101B40002093D71181E0C217D30709F480E0DF9119
:101B5000CF911F910F910895811594400CF4A0CF5F
:101B60008FEF93E090939C1180939B1199CF1092EB
:101B70009A11A9CF489907C0499907C01092AB1193
:101B80001092AA1108954999F9CF81E090E09093BD
:101B9000AB118093AA1108958F929F92AF92BF923A
:101BA000CF92DF92EF92FF926091070A7091080A3C
:101BB000072E000C880B990B0E9461969B01AC01CB
:101BC0000E9436956B017C016091050A7091060AAE
:101BD000072E000C880B990B0E9461969B01AC01AB
:101BE000C701B6010E9441976B017C016091030A15
:101BF0007091040A072E000C880B990B0E946196C5
:101C00009B01AC01C701B6010E9441976B017C01A9
:101C10006091010A7091020A072E000C880B990B43
:101C20000E94619621E73DEF4EE753E40E94419701
:101C30004B015C016091FF097091000A072E000CB6
:101C4000880B990B0E9461969B01AC01C501B40100
:101C50000E9441974B015C016091FD097091FE0962
:101C6000072E000C880B990B0E9461969B01AC011A
:101C7000C501B4010E9441979B01AC01C701B601A7
:101C80000E94C6950E949A9520EE3EE245E652E4F7
:101C90000E944197FF90EF90DF90CF90BF90AF9060
:101CA0009F908F9008958F929F92AF92BF92CF9204
:101CB000DF92EF92FF9210924A1281E080934B12D2
:101CC000F5988091FC094091FA095091FB09849F95
:101CD0009001859F300D11244091F6095091F7092C
:101CE0006091F8097091F9096901CC0CDD1C0D2C8B
:101CF000000CEE08FF084A015B018C189D08AE0835
:101D0000BF08C0905A12D0905B12E0905C12F09025
:101D10005D12E091F509C814D904EA04FB040CF043
:101D200060C09AE1E99FD0011124A953BB4F9C9157
:101D300090935912F09158129F1729F0890F8093B0
:101D40005712809358122F5F3F4F309356122093B3
:101D500055122AE1E29FF0011124E953FB4F8181E2
:101D600092819093541280935312109252121092B7
:101D70005112109250128091551290915612092EC4
:101D8000000CAA0BBB0B481B590B6A0B7B0B409337
:101D90004C1250934D1260934E1270934F12F19863
:101DA00080910B018F7B80930B018091090184FD51
:101DB0000EC080910B01806180930B018FEF9BED32
:101DC00025E0815090402040E1F700C00000F29AE9
:101DD000FF90EF90DF90CF90BF90AF909F908F904B
:101DE00008959091C704890F8093591280935712D8
:101DF0008093581281E090E0909356128093551290
:101E0000A8CF8F929F92AF92BF92CF92DF92EF9224
:101E1000FF9210924B1281E080934A12F5988091C4
:101E2000FC094091FA095091FB09849F9001859F1C
:101E3000300D1124C090C304D090C404E090C504B8
:101E4000F090C60480905A1290905B12A0905C12A1
:101E5000B0905D12A901440F551F052E000C660BB2
:101E6000770B4C0D5D1D6E1D7F1DE091F50948152A
:101E700059056A057B0534F0C814D904EA04FB044B
:101E80000CF460C09AE1E99FD0011124A953BB4F23
:101E90009C919093591240915812941729F0890FF0
:101EA00080935712809358122F5F3F4F30935612F2
:101EB000209355122AE1E29FF0011124E953FB4FD0
:101EC00081819281909354128093531210925212F6
:101ED00010925112109250128091551290915612F8
:101EE000092E000CAA0BBB0B8C0D9D1DAE1DBF1D3A
:101EF00080934C1290934D12A0934E12B0934F12B8
:101F0000F19A80910B01806480930B01809109010B
:101F100084FD0EC080910B01806180930B018FEFD7
:101F20009BED25E0815090402040E1F700C000008B
:101F3000F29AFF90EF90DF90CF90BF90AF909F907C
:101F40008F9008959091C704890F809359128093C0
:101F500057128093581281E090E09093561280932C
:101F60005512A8CF4F925F926F927F928F929F925D
:101F7000AF92BF92CF92DF92EF92FF920F931F9397
:101F8000CF9310924A1281E080934B12F298C09145
:101F9000FC098091FA099091FB09C89F8001C99FB3
:101FA000100D1124C801880F991F092E000CAA0BCF
:101FB000BB0BC090BF04D090C004E090C104F0906F
:101FC000C204B701A601481B590B6A0B7B0B809119
:101FD000461290914712A0914812B091491284176D
:101FE0009507A607B7070CF0C4C08091F50990E0EB
:101FF0002091BE04223009F065C02AE1289FF0013B
:10200000299FF00D1124E953FB4F838180935912CE
:102010008481958190935412809353128091591228
:1020200090915812981729F0C80FC0935712C09377
:1020300058120F5F1F4F10935612009355121092B3
:10204000521210925112109250128091551290918A
:102050005612092E000CAA0BBB0BC81AD90AEA0AA1
:10206000FB0AC0924C12D0924D12E0924E12F092A6
:102070004F12F49880910B018F7D80930B0180911A
:10208000090183FD0EC080910B01886080930B01D4
:10209000FFEF2BED85E0F15020408040E1F700C0DC
:1020A0000000F59ACF911F910F91FF90EF90DF9074
:1020B000CF90BF90AF909F908F907F906F905F90E8
:1020C0004F9008954AE1489F9001499F300D112497
:1020D000C90189539B4F5C01FC0161817281685782
:1020E0007C4E072E000C880B990B0E94619620E015
:1020F00030E44CE156E40E94C6952B013C01F50109
:10210000608170E090E080E00E9461969B01AC01EC
:10211000C301B2010E9436954B015C016091030A34
:102120007091040A072E000C880B990B0E9461968F
:102130002B013C016091FD097091FE09072E000CF6
:10214000880B990B0E9461969B01AC01C301B201FF
:102150000E94C6959B01AC01C501B4010E94419744
:102160000E94339660935912109254121092531297
:1021700055CF8091CA04C80FC0935912C09357120B
:10218000C0935812109254121092531281E090E0B2
:10219000909356128093551252CF80914B12811119
:1021A00001C0E0CE08954F925F926F927F928F921E
:1021B0009F92AF92BF92CF92DF92EF92FF920F93D6
:1021C0001F93CF9310924B1281E080934A12F298A2
:1021D000C091FC098091FA099091FB09C89F800188
:1021E000C99F100D1124C801880F991F092E000CDA
:1021F000AA0BBB0BC090BA04D090BB04E090BC0407
:10220000F090BD048C0D9D1DAE1DBF1D409146126A
:1022100050914712609148127091491284179507A6
:10222000A607B7070CF0C4C08091F50990E0209193
:10223000BE04223009F065C02AE1289FF001299FE1
:10224000F00D1124E953FB4F83818093591284814F
:1022500095819093541280935312809159129091CA
:102260005812981729F0C80FC0935712C0935812EC
:102270000F5F1F4F10935612009355121092521277
:102280001092511210925012809155129091561244
:10229000092E000CAA0BBB0B8C0D9D1DAE1DBF1D86
:1022A00080934C1290934D12A0934E12B0934F1204
:1022B000F49A80910B01806280930B018091090157
:1022C00083FD0EC080910B01886080930B01FFEFAE
:1022D0002BED85E0F15020408040E1F700C0000088
:1022E000F59ACF911F910F91FF90EF90DF90CF90D3
:1022F000BF90AF909F908F907F906F905F904F9026
:1023000008954AE1489F9001499F300D1124C90169
:1023100089539B4F5C01FC016181728168577C4E3F
:10232000072E000C880B990B0E94619620E030E488
:102330004CE156E40E94C6952B013C01F5016081F9
:1023400070E090E080E00E9461969B01AC01C301C7
:10235000B2010E9436954B015C016091030A7091B5
:10236000040A072E000C880B990B0E9461962B0122
:102370003C016091FD097091FE09072E000C880B4D
:10238000990B0E9461969B01AC01C301B2010E94AE
:10239000C6959B01AC01C501B4010E9441970E9402
:1023A000339660935912109254121092531255CFD3
:1023B0008091CA04C80FC0935712C0935812C0939B
:1023C0005912109254121092531281E090E090939F
:1023D00056128093551252CF80914A12811101C03A
:1023E000E2CE08952F923F924F925F926F927F922A
:1023F0008F929F92AF92BF92CF92DF92EF92FF9215
:102400000F931F93CF93DF9300D0CDB7DEB78983AF
:10241000823009F0C3C0809133128111A9C081E0DC
:1024200080933312109232128091451281110CC0A8
:102430008091B8049091B904909344128093431210
:102440009093A9008093A8002091B8043091B9041A
:102450008091B6049091B704281B390B4091FA097A
:102460005091FB09249FC001259F900D349F900D32
:102470001124019690935612809355121092421295
:1024800010924112109240124091551250915612E2
:10249000052E000C660B770B8091F6099091F709D9
:1024A000A091F809B091F909841B950BA60BB70B05
:1024B00080934C1290934D12A0934E12B0934F12F2
:1024C000F19880910B018F7B80930B018091090122
:1024D00084FD0EC080910B01806180930B019FEF02
:1024E0002BED85E0915020408040E1F700C00000D6
:1024F00080912B02843009F024C1F49880910B0163
:102500008F7D80930B018091090183FD0EC0809126
:102510000B01886080930B019FEF2BED85E09150BC
:1025200020408040E1F700C00000F29AF69A9981BD
:10253000923009F00EC19093361281E080933512EB
:10254000E8981092720010927200809173008D7F53
:1025500080937300809173008B7F80937300E99860
:102560001092A5001092A40088E089BB80937200AD
:102570000F900F900F90DF91CF911F910F91FF90CF
:10258000EF90DF90CF90BF90AF909F908F907F9013
:102590006F905F904F903F902F90089580913212EE
:1025A0008111E6CF1092331281E080933212E091D4
:1025B0003F1223E1E29FF0011124E05DFD4F808195
:1025C00080933E128181928190933D1280933C12C0
:1025D000828980933B120091050A1091060A80912E
:1025E000030A9091040A9B838A83A091010AB09107
:1025F000020A2CE330E00E94E89824E630E040E054
:1026000050E00E948D9829013A01A0912E02B091CC
:102610002F0298010E94D3989B01AC01AA81BB8133
:102620000E94F898A30192010E948D98220F331FF7
:10263000441F551F60E9862E60ED962E63E0A62E9E
:10264000B12CC501B4010E948D98CA01B901615035
:1026500071098109910920912C0230912D02032EDC
:10266000000C440B550B0E948D986901220F331FFB
:102670008091F6099091F709A091F809B091F909B4
:10268000821B930BA109B10940915A1250915B1220
:1026900060915C1270915D12481759076A077B07B9
:1026A0000CF046C04091391250913A129801AA811B
:1026B000BB810E94D398DA019B01AC010E94EE9885
:1026C000A30192010E948D98220F331F441F551FB2
:1026D000C501B4010E948D98215031093093381200
:1026E000209337122C153D0558F4D0924412C09215
:1026F0004312F3990DC0D092A900C092A80008C05F
:1027000030934412209343123093A9002093A800E1
:10271000809143129091441201962091371230918A
:102720003812821B930B9093561280935512ACCEA5
:10273000D0923812C0923712D0924412C0924312F3
:10274000DACF853009F0DFCEF49A80910B018062F8
:10275000D8CE81E08093361280933412F1CE2F923E
:102760003F924F925F926F927F928F929F92AF9221
:10277000BF92CF92DF92EF92FF920F931F93CF936E
:10278000DF9300D0CDB7DEB78983823009F0C3C0B4
:10279000809133128111A9C081E08093331210928D
:1027A00032128091451281110CC08091B804909131
:1027B000B90490934412809343129093A90080939C
:1027C000A8002091B8043091B9048091B60490918A
:1027D000B704281B390B4091FA095091FB09249F3B
:1027E000C001259F900D349F900D11240196909368
:1027F000561280935512109242121092411210926A
:1028000040128091551290915612092E000CAA0B7D
:10281000BB0B4091C3045091C4046091C5047091F6
:10282000C604840F951FA61FB71F80934C12909368
:102830004D12A0934E12B0934F12F19A80910B015A
:10284000806480930B018091090184FD0EC080910A
:102850000B01806180930B019FEF2BED85E0915080
:1028600020408040E1F700C0000080912B028430BE
:1028700009F024C1F49A80910B01806280930B01CE
:102880008091090183FD0EC080910B0188608093C7
:102890000B019FEF2BED85E0915020408040E1F748
:1028A00000C00000F29AF69A9981923009F00EC1A8
:1028B0009093361281E080933512E898109272005E
:1028C00010927200809173008D7F809373008091CD
:1028D00073008B7F80937300E9981092A50010928B
:1028E000A40088E089BB809372000F900F900F9036
:1028F000DF91CF911F910F91FF90EF90DF90CF90DC
:10290000BF90AF909F908F907F906F905F904F900F
:102910003F902F900895809132128111E6CF10924E
:10292000331281E080933212E0913F1223E1E29F63
:10293000F0011124E05DFD4F808180933E12818182
:10294000928190933D1280933C12828980933B1236
:102950000091050A1091060A8091030A9091040AD9
:102960009B838A83A091010AB091020A2CE330E094
:102970000E94E89824E630E040E050E00E948D9804
:1029800029013A01A0912E02B0912F0298010E94D4
:10299000D3989B01AC01AA81BB810E94F898A30146
:1029A00092010E948D98220F331F441F551F60E92A
:1029B000862E60ED962E63E0A62EB12CC501B401E3
:1029C0000E948D98CA01B90161507109810991096C
:1029D00020912C0230912D02032E000C440B550B3C
:1029E0000E948D986901220F331F8091C30490913A
:1029F000C404A091C504B091C604820F931FA11D09
:102A0000B11D40915A1250915B1260915C1270910D
:102A10005D1284179507A607B7070CF046C04091D2
:102A2000391250913A129801AA81BB810E94D39821
:102A3000DA019B01AC010E94EE98A30192010E9471
:102A40008D98220F331F441F551FC501B4010E94EA
:102A50008D982150310930933812209337122C155C
:102A60003D0558F4D0924412C0924312F3990DC020
:102A7000D092A900C092A80008C0309344122093BD
:102A800043123093A9002093A800809143129091A3
:102A9000441201962091371230913812821B930B09
:102AA0009093561280935512ACCED0923812C092A9
:102AB0003712D0924412C0924312DACF853009F017
:102AC000DFCEF49880910B018F7DD8CE81E080938A
:102AD000361280933412F1CE4F925F926F927F92B2
:102AE0008F929F92AF92BF92CF92DF92EF92FF921E
:102AF0001F93CF93DF9300D000D0CDB7DEB7182F50
:102B0000823009F0A0C080913312811186C081E02B
:102B10008093331210923212F59810923112109263
:102B200030128091451281110CC08091B8049091AF
:102B3000B90490932F1280932E12909329018093C1
:102B400028012091B8043091B9048091B604909185
:102B5000B704281B390B4091FA095091FB09249FB7
:102B6000C001259F900D349F900D112401969093E4
:102B70005612809355124091551250915612052EBF
:102B8000000C660B770B8091F6099091F709A091E4
:102B9000F809B091F909841B950BA60BB70B80932C
:102BA0004C1290934D12A0934E12B0934F12F19885
:102BB00080910B018F7B80930B018091090184FD33
:102BC0000EC080910B01806180930B013FEF8BED74
:102BD00095E0315080409040E1F700C00000F29A4B
:102BE000123009F023C11093361281E08093351220
:102BF000E898109272001092720010927200809108
:102C000073008B7F80937300E998109225011092D6
:102C1000240182E08ABB8093730026960FB6F89455
:102C2000DEBF0FBECDBFDF91CF911F91FF90EF9020
:102C3000DF90CF90BF90AF909F908F907F906F90DC
:102C40005F904F900895809132128111E6CF1092DB
:102C5000331281E080933212F59810923112609114
:102C6000290270912A02072E000C880B990B0E94F2
:102C700061966B017C016091050A7091060A072E2E
:102C8000000C880B990B0E9461964B015C016091CE
:102C9000030A7091040A072E000C880B990B0E94FE
:102CA00061969B01AC01C501B4010E9441974B01A3
:102CB0005C016091010A7091020A072E000C880BDA
:102CC000990B0E94619669837A838B839C836091C0
:102CD000270270912802072E000C880B990B0E9486
:102CE0006196A50194010E94419729813A814B8107
:102CF0005C810E94C6959B01AC01C701B6010E9490
:102D0000C6952B013C0160912C0270912D02072E7B
:102D1000000C880B990B0E9461969B01AC01C301CA
:102D2000B2010E94C69520E030E040E05FE30E94DF
:102D3000419720E030E040E05FE30E9436950E943A
:102D400033962B017E836D839B01220F331F80916D
:102D5000F6099091F709A091F809B091F909821B41
:102D6000930BA109B10940915A1250915B126091E5
:102D70005C1270915D12481759076A077B070CF0C7
:102D80004CC060912C1270912D1290E080E00E9456
:102D90005F96A50194010E94419729813A814B8158
:102DA0005C810E94C6959B01AC01C701B6010E94DF
:102DB000C69520E030E040E05FE30E94419720E0CC
:102DC00030E040E05FE30E9436950E9433967093B6
:102DD0002B1260932A126415750558F450922F1225
:102DE00040922E12F3990DC0509229014092280171
:102DF00008C070932F1260932E1270932901609374
:102E0000280180912E1290912F12019620912A1262
:102E100030912B12821B930BAACE50922B12409210
:102E20002A1250922F1240922E12DECF113029F426
:102E30001093361210933412DBCE1092361281E0CA
:102E400080933412D5CE4F925F926F927F928F9281
:102E50009F92AF92BF92CF92DF92EF92FF921F9319
:102E6000CF93DF9300D000D0CDB7DEB7182F8230DC
:102E700009F0A0C080913312811186C081E0809357
:102E8000331210923212F5981092311210923012C1
:102E90008091451281110CC08091B8049091B904C1
:102EA00090932F1280932E129093290180932801E2
:102EB0002091B8043091B9048091B6049091B70480
:102EC000281B390B4091FA095091FB09249FC0013E
:102ED000259F900D349F900D1124019690935612CA
:102EE000809355128091551290915612092E000C24
:102EF000AA0BBB0B4091C3045091C4046091C5045C
:102F00007091C604840F951FA61FB71F80934C12A3
:102F100090934D12A0934E12B0934F12F19A80915C
:102F20000B01806480930B018091090184FD0EC028
:102F300080910B01806180930B013FEF8BED95E059
:102F4000315080409040E1F700C00000F29A12300A
:102F500009F023C11093361281E080933512E8986E
:102F600010927200109272001092720080917300A1
:102F70008B7F80937300E9981092250110922401B1
:102F800082E08ABB8093730026960FB6F894DEBF6A
:102F90000FBECDBFDF91CF911F91FF90EF90DF90DB
:102FA000CF90BF90AF909F908F907F906F905F90E9
:102FB0004F900895809132128111E6CF1092331212
:102FC00081E080933212F5981092311260912902BB
:102FD00070912A02072E000C880B990B0E946196B3
:102FE0006B017C016091050A7091060A072E000CA6
:102FF000880B990B0E9461964B015C016091030A5A
:103000007091040A072E000C880B990B0E946196A0
:103010009B01AC01C501B4010E9441974B015C01C9
:103020006091010A7091020A072E000C880B990B1F
:103030000E94619669837A838B839C8360912702C7
:1030400070912802072E000C880B990B0E94619644
:10305000A50194010E94419729813A814B815C81AD
:103060000E94C6959B01AC01C701B6010E94C6959E
:103070002B013C0160912C0270912D02072E000C57
:10308000880B990B0E9461969B01AC01C301B201B0
:103090000E94C69520E030E040E05FE30E94419747
:1030A00020E030E040E05FE30E9436950E943396D6
:1030B0002B017E836D839B01220F331F8091C304FC
:1030C0009091C404A091C504B091C604820F931FCF
:1030D000A11DB11D40915A1250915B1260915C127A
:1030E00070915D1284179507A607B7070CF04CC0C6
:1030F00060912C1270912D1290E080E00E945F96FA
:10310000A50194010E94419729813A814B815C81FC
:103110000E94C6959B01AC01C701B6010E94C695ED
:1031200020E030E040E05FE30E94419720E030E0A3
:1031300040E05FE30E9436950E94339670932B1215
:1031400060932A126415750558F450922F1240921C
:103150002E12F3990DC0509229014092280108C007
:1031600070932F1260932E1270932901609328019F
:1031700080912E1290912F12019620912A12309157
:103180002B12821B930BAACE50922B1240922A1222
:1031900050922F1240922E12DECF81E08093361291
:1031A00080933412DCCE4F925F926F927F928F9217
:1031B0009F92AF92BF92CF92DF92EF92FF921F93B6
:1031C000CF93DF9300D000D0CDB7DEB7182F823079
:1031D00009F0A0C080913312811186C081E08093F4
:1031E000331210923212F298109234121092351259
:1031F0008091291281110CC08091B8049091B9047A
:1032000090932F1280932E1290932901809328017E
:103210002091B8043091B9048091B6049091B7041C
:10322000281B390B4091FA095091FB09249FC001DA
:10323000259F900D349F900D112401969093561266
:10324000809355124091551250915612052E000C44
:10325000660B770B8091BF049091C004A091C104CC
:10326000B091C204841B950BA60BB70B80934C1234
:1032700090934D12A0934E12B0934F12F4988091F8
:103280000B018F7D80930B018091090183FD0EC09E
:1032900080910B01886080930B013FEF8BED95E0EF
:1032A000315080409040E1F700C00000F59A1230A4
:1032B00009F023C11093361281E080933012E89810
:1032C000109272001092720010927200809173003E
:1032D0008D7F80937300E99810922501109224014C
:1032E00084E08ABB8093730026960FB6F894DEBF05
:1032F0000FBECDBFDF91CF911F91FF90EF90DF9078
:10330000CF90BF90AF909F908F907F906F905F9085
:103310004F900895809132128111E6CF10923312AE
:1033200081E080933212F298109234126091290257
:1033300070912A02072E000C880B990B0E9461964F
:103340006B017C016091FF097091000A072E000C4F
:10335000880B990B0E9461964B015C016091FD09FD
:103360007091FE09072E000C880B990B0E94619644
:103370009B01AC01C501B4010E9441974B015C0166
:103380006091070A7091080A072E000C880B990BB0
:103390000E94619669837A838B839C836091270264
:1033A00070912802072E000C880B990B0E946196E1
:1033B000A50194010E94419729813A814B815C814A
:1033C0000E94C6959B01AC01C701B6010E94C6953B
:1033D0002B013C0160912C0270912D02072E000CF4
:1033E000880B990B0E9461969B01AC01C301B2014D
:1033F0000E94C69520E030E040E05FE30E944197E4
:1034000020E030E040E05FE30E9436950E94339672
:103410002B017E836D839B01220F331F8091BF049C
:103420009091C004A091C104B091C204821B930B7F
:10343000A109B1094091461250914712609148127A
:1034400070914912481759076A077B070CF04CC066
:1034500060912C1270912D1290E080E00E945F9696
:10346000A50194010E94419729813A814B815C8199
:103470000E94C6959B01AC01C701B6010E94C6958A
:1034800020E030E040E05FE30E94419720E030E040
:1034900040E05FE30E9436950E94339670932B12B2
:1034A00060932A126415750558F450922F124092B9
:1034B0002E12F6990DC0509229014092280108C0A1
:1034C00070932F1260932E1270932901609328013C
:1034D00080912E1290912F12019620912A123091F4
:1034E0002B12821B930BAACE50922B1240922A12BF
:1034F00050922F1240922E12DECF113029F41093E9
:10350000361210933112DBCE1092361281E0809386
:103510003112D5CE4F925F926F927F928F929F928F
:10352000AF92BF92CF92DF92EF92FF921F93CF9311
:10353000DF9300D000D0CDB7DEB7182F823009F06E
:10354000A0C080913312811186C01092321281E0A6
:1035500080933312F29810923412109235128091A7
:10356000291281110CC08091B8049091B9049093F4
:103570002F1280932E12909329018093280120917D
:10358000B8043091B9048091B6049091B704281B17
:10359000390B4091FA095091FB09249FC001259FE6
:1035A000900D349F900D11240196909356128093A4
:1035B00055128091551290915612092E000CAA0BAB
:1035C000BB0B4091BA045091BB046091BC04709154
:1035D000BD04840F951FA61FB71F80934C129093B4
:1035E0004D12A0934E12B0934F12F49A80910B019A
:1035F000806280930B018091090183FD0EC0809150
:103600000B01886080930B013FEF8BED95E031500B
:1036100080409040E1F700C00000F59A123009F0B8
:1036200023C11093361281E080933012E8981092F3
:1036300072001092720010927200809173008D7F60
:1036400080937300E998109225011092240184E080
:103650008ABB8093730026960FB6F894DEBF0FBE28
:10366000CDBFDF91CF911F91FF90EF90DF90CF9072
:10367000BF90AF909F908F907F906F905F904F9092
:103680000895809132128111E6CF1092331281E0B9
:1036900080933212F2981092341260912902709144
:1036A0002A02072E000C880B990B0E9461966B0171
:1036B0007C016091FF097091000A072E000C880BB5
:1036C000990B0E9461964B015C016091FD0970911C
:1036D000FE09072E000C880B990B0E9461969B0136
:1036E000AC01C501B4010E9441974B015C0160919E
:1036F000070A7091080A072E000C880B990B0E948C
:10370000619669837A838B839C8360912702709191
:103710002802072E000C880B990B0E946196A501C8
:1037200094010E94419729813A814B815C810E94DA
:10373000C6959B01AC01C701B6010E94C6952B013D
:103740003C0160912C0270912D02072E000C880B19
:10375000990B0E9461969B01AC01C301B2010E94CA
:10376000C69520E030E040E05FE30E94419720E012
:1037700030E040E05FE30E9436950E9433962B01D3
:103780007E836D839B01220F331F8091BA04909139
:10379000BB04A091BC04B091BD04820F931FA11D76
:1037A000B11D40914612509147126091481270919C
:1037B000491284179507A607B7070CF04CC0609113
:1037C0002C1270912D1290E080E00E945F96A5016E
:1037D00094010E94419729813A814B815C810E942A
:1037E000C6959B01AC01C701B6010E94C69520E0B9
:1037F00030E040E05FE30E94419720E030E040E0AD
:103800005FE30E9436950E94339670932B1260936B
:103810002A126415750558F450922F1240922E12F8
:10382000F6990DC0509229014092280108C070936A
:103830002F1260932E1270932901609328018091BA
:103840002E1290912F12019620912A1230912B1254
:10385000821B930BAACE50922B1240922A125092A6
:103860002F1240922E12DECF113029F4109336120F
:1038700010933112DBCE1092361281E08093311218
:10388000D5CE3F924F925F926F927F928F929F928E
:10389000AF92BF92CF92DF92EF92FF920F931F935E
:1038A000CF93DF93382E22E082139FC08091331292
:1038B000811189C01092321281E080933312F59801
:1038C00010923112109230128091451281110CC069
:1038D0008091B8049091B90490934412809343125C
:1038E0009093A9008093A8002091B8043091B90466
:1038F0008091B6049091B704281B390B4091FA09C6
:103900005091FB09249FC001259F900D349F900D7D
:10391000112401969093561280935512409155129E
:1039200050915612052E000C660B770B8091F6090C
:103930009091F709A091F809B091F909841B950BB2
:10394000A60BB70B80934C1290934D12A0934E127E
:10395000B0934F12F19880910B018F7B80930B01F4
:103960008091090184FD0EC080910B0180618093DC
:103970000B018FEF9BED25E0815090402040E1F757
:1039800000C00000F29A82E03812C4C030923612B1
:1039900081E080933512E8981092720010927200C4
:1039A000809173008D7F80937300809173008B7F73
:1039B00080937300E9981092A5001092A40082E011
:1039C00089BB80937200DF91CF911F910F91FF907F
:1039D000EF90DF90CF90BF90AF909F908F907F90AF
:1039E0006F905F904F903F900895809132128111B7
:1039F000EACF1092331281E080933212F598109240
:103A000031120091050A1091060AC091030AD09163
:103A1000040AA091010AB091020A2CE330E00E944E
:103A2000E89824E630E040E050E00E948D982901BB
:103A30003A01A0912E02B0912F0298010E94D398D2
:103A40009B01AC01DE010E94F898A30192010E9443
:103A50008D98220F331F441F551F90E9892E90ED3A
:103A6000992E93E0A92EB12CC501B4010E948D9826
:103A7000CA01B901615071098109910920912C0293
:103A800030912D02032E000C440B550B0E948D9893
:103A900069014091391250913A129801DE010E9459
:103AA000D398DA019B01AC010E94EE98A301920128
:103AB0000E948D98220F331F441F551FC501B4016A
:103AC0000E948D982150310930933812209337127B
:103AD0002C153D05B0F4D0924412C0924312F399D4
:103AE00004C0D092A900C092A80080914312909186
:103AF000441201962091371230913812821B930B99
:103B000009CF30934412209343123093A90020939D
:103B1000A800EBCF81E080933612809334123BCF24
:103B20003F924F925F926F927F928F929F92AF924D
:103B3000BF92CF92DF92EF92FF920F931F93CF939A
:103B4000DF93382E22E082139FC0809133128111BF
:103B500089C01092321281E080933312F59810924E
:103B60003112109230128091451281110CC0809157
:103B7000B8049091B90490934412809343129093A7
:103B8000A9008093A8002091B8043091B9048091D5
:103B9000B6049091B704281B390B4091FA09509153
:103BA000FB09249FC001259F900D349F900D112487
:103BB00001969093561280935512809155129091D0
:103BC0005612092E000CAA0BBB0B4091C304509156
:103BD000C4046091C5047091C604840F951FA61F8C
:103BE000B71F80934C1290934D12A0934E12B09336
:103BF0004F12F19A80910B01806480930B018091A8
:103C0000090184FD0EC080910B01806180930B013E
:103C10008FEF9BED25E0815090402040E1F700C000
:103C20000000F29A82E03812C4C03092361281E06D
:103C300080933512E8981092720010927200809171
:103C400073008D7F80937300809173008B7F8093CE
:103C50007300E9981092A5001092A40082E089BB3D
:103C600080937200DF91CF911F910F91FF90EF90A1
:103C7000DF90CF90BF90AF909F908F907F906F908C
:103C80005F904F903F900895809132128111EACF5A
:103C90001092331281E080933212F5981092311213
:103CA0000091050A1091060AC091030AD091040AF6
:103CB000A091010AB091020A2CE330E00E94E8983A
:103CC00024E630E040E050E00E948D9829013A015E
:103CD000A0912E02B0912F0298010E94D3989B01CF
:103CE000AC01DE010E94F898A30192010E948D9818
:103CF000220F331F441F551F90E9892E90ED992EF6
:103D000093E0A92EB12CC501B4010E948D98CA017F
:103D1000B901615071098109910920912C023091FA
:103D20002D02032E000C440B550B0E948D98690147
:103D30004091391250913A129801DE010E94D398B5
:103D4000DA019B01AC010E94EE98A30192010E944E
:103D50008D98220F331F441F551FC501B4010E94C7
:103D60008D982150310930933812209337122C1539
:103D70003D05B0F4D0924412C0924312F39904C0AE
:103D8000D092A900C092A800809143129091441251
:103D900001962091371230913812821B930B09CF74
:103DA00030934412209343123093A9002093A8002B
:103DB000EBCF81E080933612809334123BCF2F9269
:103DC0003F924F925F926F927F928F929F92AF92AB
:103DD000BF92CF92DF92EF92FF920F931F93CF93F8
:103DE000DF9300D0CDB7DEB78983823009F0A4C05D
:103DF0008091331281118AC01092321281E0809337
:103E00003312F298109234121092351280912912C6
:103E100081110CC08091B8049091B9049093441220
:103E2000809343129093A9008093A8002091B80436
:103E30003091B9048091B6049091B704281B390BD6
:103E40004091FA095091FB09249FC001259F900DD4
:103E5000349F900D11240196909356128093551221
:103E60004091551250915612052E000C660B770B9F
:103E70008091BF049091C004A091C104B091C2048C
:103E8000841B950BA60BB70B80934C1290934D128D
:103E9000A0934E12B0934F12F49880910B018F7D36
:103EA00080930B018091090183FD0EC080910B016D
:103EB000886080930B019FEF2BED85E091502040AF
:103EC0008040E1F700C00000F59A9981923009F036
:103ED000F1C09093361281E080933012E8981092EE
:103EE000720010927200809173008D7F8093730036
:103EF000809173008B7F80937300E9981092A500E6
:103F00001092A40084E089BB809372000F900F9000
:103F10000F90DF91CF911F910F91FF90EF90DF9065
:103F2000CF90BF90AF909F908F907F906F905F9059
:103F30004F903F902F900895809132128111E6CFDB
:103F40001092331281E080933212F2981092341260
:103F50000091FF091091000A8091FD099091FE09DE
:103F60009B838A83A091070AB091080A2CE330E072
:103F70000E94E89824E630E040E050E00E948D98EE
:103F800029013A01A0912E02B0912F0298010E94BE
:103F9000D3989B01AC01AA81BB810E94F898A30130
:103FA00092010E948D98220F331F441F551F60E914
:103FB000862E60ED962E63E0A62EB12CC501B401CD
:103FC0000E948D98CA01B901615071098109910956
:103FD00020912C0230912D02032E000C440B550B26
:103FE0000E948D986901220F331F8091BF04909128
:103FF000C004A091C104B091C204821B930BA1091B
:10400000B109409146125091471260914812709147
:104010004912481759076A077B070CF042C04091C4
:10402000391250913A129801AA81BB810E94D3980B
:10403000DA019B01AC010E94EE98A30192010E945B
:104040008D98220F331F441F551FC501B4010E94D4
:104050008D982150310930933812209337122C1546
:104060003D0558F4D0924412C0924312F6990DC007
:10407000D092A900C092A80008C0309344122093A7
:1040800043123093A9002093A8008091431290918D
:10409000441201962091371230913812821B930BF3
:1040A000DBCED0923812C0923712D0924412C09216
:1040B0004312DECF81E080933612809331120ECF0F
:1040C0002F923F924F925F926F927F928F929F9228
:1040D000AF92BF92CF92DF92EF92FF920F931F9316
:1040E000CF93DF9300D0CDB7DEB78983823009F05C
:1040F000A4C08091331281118AC01092321281E0E3
:1041000080933312F29810923412109235128091EB
:10411000291281110CC08091B8049091B904909338
:104120004412809343129093A9008093A800209199
:10413000B8043091B9048091B6049091B704281B5B
:10414000390B4091FA095091FB09249FC001259F2A
:10415000900D349F900D11240196909356128093E8
:1041600055128091551290915612092E000CAA0BEF
:10417000BB0B4091BA045091BB046091BC04709198
:10418000BD04840F951FA61FB71F80934C129093F8
:104190004D12A0934E12B0934F12F49A80910B01DE
:1041A000806280930B018091090183FD0EC0809194
:1041B0000B01886080930B019FEF2BED85E0915000
:1041C00020408040E1F700C00000F59A99819230CC
:1041D00009F0F1C09093361281E080933012E89894
:1041E0001092720010927200809173008D7F809304
:1041F0007300809173008B7F80937300E998109215
:10420000A5001092A40084E089BB809372000F90F7
:104210000F900F90DF91CF911F910F91FF90EF9032
:10422000DF90CF90BF90AF909F908F907F906F90D6
:104230005F904F903F902F9008958091321281119E
:10424000E6CF1092331281E080933212F2981092EE
:1042500034120091FF091091000A8091FD0990919C
:10426000FE099B838A83A091070AB091080A2CE378
:1042700030E00E94E89824E630E040E050E00E9400
:104280008D9829013A01A0912E02B0912F02980138
:104290000E94D3989B01AC01AA81BB810E94F8982F
:1042A000A30192010E948D98220F331F441F551FB6
:1042B00060E9862E60ED962E63E0A62EB12CC50136
:1042C000B4010E948D98CA01B90161507109810938
:1042D000910920912C0230912D02032E000C440BE9
:1042E000550B0E948D986901220F331F8091BA04EB
:1042F0009091BB04A091BC04B091BD04820F931FA8
:10430000A11DB11D40914612509147126091481273
:104310007091491284179507A607B7070CF042C0A1
:104320004091391250913A129801AA81BB810E94A2
:10433000D398DA019B01AC010E94EE98A30192018F
:104340000E948D98220F331F441F551FC501B401D1
:104350000E948D98215031093093381220933712E2
:104360002C153D0558F4D0924412C0924312F69990
:104370000DC0D092A900C092A80008C0309344128A
:10438000209343123093A9002093A80080914312F8
:104390009091441201962091371230913812821B6D
:1043A000930BDBCED0923812C0923712D0924412C7
:1043B000C0924312DECF81E0809336128093311297
:1043C0000ECFE2E0F1E080818D7F80832FEF84E3E8
:1043D0009CE0215080409040E1F700C000008081C7
:1043E000826080830895E2E0F1E080818D7F8083A8
:1043F0002FE788E391E0215080409040E1F700C032
:1044000000008081826080832FEF83EC99E021504F
:1044100080409040E1F700C0000080818D7F808364
:104420002FE788E391E0215080409040E1F700C001
:1044300000008081826080830895E2E0F1E0808165
:104440008D7F80832FE788E391E02150804090406A
:10445000E1F700C0000080818260808308958F9220
:104460009F92AF92BF92CF92DF92EF92FF920F9303
:104470001F93CF93DF9380911402833009F452C0CD
:1044800088F48130C9F08230B9F1DF91CF911F916A
:104490000F91FF90EF90DF90CF90BF90AF909F90E3
:1044A0008F90CBCF853009F498C008F493C0863044
:1044B00061F71092BB11E9CF8091C411882329F3D1
:1044C0008091C3118823A9F080910D028130E9F613
:1044D0008091290290912A028C309105B4F2BC019E
:1044E0006A5071090E94170490932A02809329024E
:1044F000CCCF1092C411C9CF8091C111811103C0DA
:104500001092B411C2CFE091C2118AE1E89FF0018C
:104510001124E953FB4F8189823008F4B6CF8150D2
:10452000818BB3CF8091BF11811107C08091BE11E3
:104530008111ABCF1092B311A8CFC091C01183E10C
:10454000C89FE0011124C05DDD4F6A857B858C85A5
:104550009D8541E00E949C024B015C010091150287
:1045600010911602B80190E080E00E945F9627E16A
:1045700037EB41ED58E30E9441979B01AC016E85FA
:104580007F85888999890E9435956B017C0120E09F
:1045900030E040E85FE30E94369787FD18C0A7012E
:1045A0009601C501B4010E94C29587FF10C0CE8656
:1045B000DF86E88AF98A0B3E8FE7180708F065CF97
:1045C0000C5E1F4F10931602009315025ECF0E94DF
:1045D00009045BCF1092BD1158CF1092BC1155CF7A
:1045E0008F929F92AF92BF92CF92DF92EF92FF9203
:1045F0000F931F93CF93DF9380911402833009F4BC
:104600005DC088F48130F1F08230E9F1DF91CF9123
:104610001F910F91FF90EF90DF90CF90BF90AF90E0
:104620009F908F900ACF853009F4ABC008F4A1C0E9
:10463000863061F78091BB118111E8CF81E08093D2
:10464000BB11E4CF9091C411911103C08093C411A8
:10465000DDCF8091C3118823C9F280910D02813092
:10466000A9F68091290290912A02853F2FE39207B3
:104670006CF6BC01665F7F4F0E94170490932A027C
:1046800080932902C3CF8091C111811108C080910C
:10469000B4118111BBCF81E08093B411B7CFE09109
:1046A000C2118AE1E89FF0011124E953FB4F81898F
:1046B0008F3F09F4ABCF8F5F818BA8CF8091BF1163
:1046C00081110CC08091BE118111A0CF8091B311D6
:1046D00081119CCF81E08093B31198CFC091C0111C
:1046E00023E1C29FE0011124C05DDD4F6A857B8517
:1046F0008C859D8540E00E949C024B015C010091ED
:10470000150210911602B80190E080E00E945F96B9
:1047100027E137EB41ED58E30E9441972E853F8515
:10472000488959890E9436956B017C0120E030E070
:104730004EE753E40E94C2951816C4F0A7019601F3
:10474000C501B4010E943697181684F4CE86DF8620
:10475000E88AF98A0B3E8FE7180708F057CF0C5EFE
:104760001F4F109316020093150250CF0E940904A8
:104770004DCF8091BD11811149CF81E08093BD1152
:1047800045CF8091BC11811141CF81E08093BC1154
:104790003DCF2F923F924F925F926F927F928F9276
:1047A0009F92AF92BF92CF92DF92EF92FF920F93C0
:1047B0001F93CF93DF9380911402813009F0DBC106
:1047C0009091C411911104C082E0809314020BC037
:1047D000E0910D029091C31191111BC0E931B0F429
:1047E000EF5FE0930D02DF91CF911F910F91FF904A
:1047F000EF90DF90CF90BF90AF909F908F907F9081
:104800006F905F904F903F902F9017CE80930D0246
:10481000EACFE150E93138F7F0E08827ED5EFB4D53
:104820008F4F0C94CB982C243E2450246224742463
:1048300082249424A624B824C624CF24DD24EF2483
:1048400009251B253525432551255F256D257B250C
:1048500089259725A525B3258091290290912A02C3
:10486000833091050CF4BFCFBC01625071090E94E6
:10487000170490932A0280932902B5CF8091050AEC
:104880009091060A181619060CF0ADCFBC016150C4
:1048900071090E9417049093060A8093050AA3CF1A
:1048A0008091010A9091020A181619060CF09BCF0C
:1048B000BC01615071090E9417049093020A809311
:1048C000010A91CF8091030A9091040A18161906E3
:1048D0000CF089CFBC01615071090E9417049093BC
:1048E000040A8093030A7FCF80910E0290910F02F9
:1048F000181619060CF077CF019790930F0280934A
:104900000E0271CF8091FF099091000A18161906C6
:104910000CF069CFBC01615071090E94170490939B
:10492000000A8093FF095FCF8091070A9091080ADF
:10493000181619060CF057CFBC01615071090E947E
:1049400017049093080A8093070A4DCF8091FD09C0
:104950009091FE09181619060CF045CFBC01615064
:1049600071090E9417049093FE098093FD093BCFC3
:104970008091200290912102181619060CF033CF75
:10498000019790932102809320022DCF8091FC0902
:10499000823008F428CF81508093FC0924CF809185
:1049A0002C0290912D02823091050CF41CCF0197BE
:1049B00090932D0280932C0216CF80912702909124
:1049C0002802181619060CF00ECFBC0161507109AF
:1049D0000E941704909328028093270204CF8091AD
:1049E000170290911802181619060CF0FCCEBC01A3
:1049F000615071092091270230912802261737074C
:104A00000CF0F1CE0E9417049093180280931702C5
:104A1000EACE80912E0290912F02181619060CF002
:104A2000E2CEBC01615071090E94170490932F02DD
:104A300080932E02D8CE8091190290911A021816F6
:104A400019060CF0D0CEBC016150710920912E02E4
:104A500030912F02261737070CF0C5CE0E9417049D
:104A600090931A0280931902BECE8091B604909161
:104A7000B704181619060CF0B6CE01979093B70438
:104A80008093B604B0CE8091B8049091B904181602
:104A900019060CF0A8CE01979093B9048093B8043E
:104AA000A2CE8091FA099091FB09181619060CF014
:104AB0009ACE01979093FB098093FA0994CE809146
:104AC0000B0290910C02181619060CF08CCE01976F
:104AD00090930C0280930B0286CE809109029091F4
:104AE0000A02181619060CF07ECE019790930A025E
:104AF0008093090278CE80910702909108021816DF
:104B000019060CF070CE019790930802809307026B
:104B10006ACE8091050290910602181619060CF0D3
:104B200062CE019790930602809305025CCE80913D
:104B3000030290910402181619060CF054CE019746
:104B400090930402809303024ECE809101029091D3
:104B50000202181619060CF046CE01979093020235
:104B60008093010240CE80910002813009F03BCE5B
:104B70001092000238CE823009F0A8C08091C11195
:104B8000811114C08091B411882371F08091C211F9
:104B9000823320F48F5F8093C21125CE823309F0D7
:104BA00022CE1092C2111FCE83E00FCE0091C2110F
:104BB000C0911502D0911602202E312C8AE1089F57
:104BC0008001112409531B4FBE0190E080E00E9438
:104BD0005F9627E137EB41ED58E30E9441979B0137
:104BE000AC01F80165857685878590890E943595A9
:104BF0006B017C016EEB7FEF8EE793E40E94B806B9
:104C00002B013C016EEB7FEF8EE793E40E944D0693
:104C10004B015C012AE939E949E95DE3C701B601C5
:104C20000E94369787FD4FC0A3019201C701B601CC
:104C30000E9436971816C4F4A5019401C701B60165
:104C40000E943697181684F4F801C586D686E78642
:104C5000F08ACB3EFFE7DF0708F0C5CD6496D0931E
:104C60001602C0931502BFCD0E9409048AE1829DFD
:104C7000E001839DD00D1124C953DB4FA3019201A4
:104C80006D857E858F8598890E94C29587FF04C0B7
:104C90004D865E866F86788A8AE1829DE001839DDB
:104CA000D00D1124C953DB4FA50194016D857E857C
:104CB0008F8598890E94C29587FF95CD8D869E86A7
:104CC000AF86B88A90CD0E9409048DCD833009F05B
:104CD00016C18091BF11811118C08091BE11811140
:104CE000C9C08091B311882371F08091C0118132C5
:104CF00020F48F5F8093C01176CD813209F073CD9F
:104D00001092C01170CD84E060CDC091C011D0E090
:104D10006091070A7091080A072E000C880B990B06
:104D20000E94619620E030E040E850E40E94419704
:104D30006B017C016091050A7091060A072E000C38
:104D4000880B990B0E9461969B01AC01C701B601CB
:104D50000E9441976B017C016091030A7091040AE3
:104D6000072E000C880B990B0E9461969B01AC01E9
:104D7000C701B6010E9441976B017C016091010A55
:104D80007091020A072E000C880B990B0E94619605
:104D900021E73DEF4EE753E40E9441974B015C0150
:104DA0006091FF097091000A072E000C880B990B87
:104DB0000E9461969B01AC01C501B4010E9441971C
:104DC0004B015C016091FD097091FE09072E000CFA
:104DD000880B990B0E9461969B01AC01C501B4013F
:104DE0000E9441979B01AC01C701B6010E94C69584
:104DF00023E12C9F80012D9F100D1124005D1D4F7C
:104E0000F80126853785408951890E9441974B01D9
:104E10005C01C0911502D0911602BE0190E080E0C5
:104E20000E945F9627E137EB41ED58E30E944197DE
:104E30009B01AC01F80162857385848595850E948C
:104E400035956B017C0120E030E040E85FE30E9493
:104E5000369787FD38CFA5019401C701B6010E949E
:104E6000369718160CF02FCFF801C286D386E48649
:104E7000F586EFCE0E94CC0D4B015C01C091C011B4
:104E8000009115021091160283E1C89FE0011124E0
:104E9000C05DDD4FB80190E080E00E945F962AE09F
:104EA00037ED43E25CE30E9441979B01AC016A85C8
:104EB0007B858C859D850E9435956B017C012DEC51
:104EC0003CEC4CEC5DE30E94369787FDFCCEA701DD
:104ED0009601C501B4010E94C29587FFF4CECA862F
:104EE000DB86EC86FD860A3FEFE71E0708F07BCCE9
:104EF0000B5F1F4F109316020093150274CC843081
:104F000011F485E062CC853011F486E05ECC863009
:104F100009F069CC81E059CC8F929F92AF92BF92F9
:104F2000CF92DF92EF92FF926091070A7091080A88
:104F3000072E000C880B990B0E9461969B01AC0117
:104F40000E9436956B017C016091050A7091060AFA
:104F5000072E000C880B990B0E9461969B01AC01F7
:104F6000C701B6010E9441976B017C016091030A61
:104F70007091040A072E000C880B990B0E94619611
:104F80009B01AC01C701B6010E9441976B017C01F6
:104F90006091010A7091020A072E000C880B990B90
:104FA0000E9461962BEC31E840E85BE30E94419758
:104FB0004B015C016091FF097091000A072E000C03
:104FC000880B990B0E9461969B01AC01C501B4014D
:104FD0000E9441974B015C016091FD097091FE09AF
:104FE000072E000C880B990B0E9461969B01AC0167
:104FF000C501B4010E9441979B01AC01C701B601F4
:105000000E94C6950E949A9520EE3EE245E652E443
:105010000E944197FF90EF90DF90CF90BF90AF90AC
:105020009F908F9008952F923F924F925F926F9230
:105030007F928F929F92AF92BF92CF92DF92EF9228
:10504000FF920F931F93CF93DF93809114028130CF
:1050500009F0F0C18091C411811104C086E08093F1
:1050600014020BC0E0910D028091C31181111CC08C
:10507000E130B1F489E180930D02DF91CF911F916E
:105080000F91FF90EF90DF90CF90BF90AF909F90E7
:105090008F907F906F905F904F903F902F90CDC9F1
:1050A000E150E0930D02E9CFE150E93130F7F0E053
:1050B0008827E25AF74D8F4F0C94CB9877288A288F
:1050C0009D28B028C328D228E528F8280B291A29BA
:1050D000232931294C295F297A298D299B29A9293E
:1050E000B829C729D629E529F429032A122A80914B
:1050F000290290912A028D3F2FE392070CF0BDCF39
:10510000BC016E5F7F4F0E94170490932A02809328
:105110002902B3CF8091050A9091060A8F3FEFE7ED
:105120009E0709F4AACFBC016F5F7F4F0E9417044E
:105130009093060A8093050AA0CF8091010A90916E
:10514000020A8F3FFFE79F0709F497CFBC016F5F0B
:105150007F4F0E9417049093020A8093010A8DCF1B
:105160008091030A9091040A8F3F2FE7920709F478
:1051700084CFBC016F5F7F4F0E9417049093040A95
:105180008093030A7ACF80910E0290910F028F3F95
:10519000EFE79E0709F471CF019690930F02809379
:1051A0000E026BCF8091FF099091000A8F3FFFE7BD
:1051B0009F0709F462CFBC016F5F7F4F0E94170405
:1051C0009093000A8093FF0958CF8091070A90912D
:1051D000080A8F3F2FE7920709F44FCFBC016F5F9A
:1051E0007F4F0E9417049093080A8093070A45CFC7
:1051F0008091FD099091FE098F3FEFE79E0709F42A
:105200003CCFBC016F5F7F4F0E9417049093FE0953
:105210008093FD0932CF80912002909121028F3F2F
:10522000FFE79F0709F429CF01969093210280930D
:10523000200223CF8091FC098F3F09F41ECF8F5F9E
:105240008093FC091ACF80912C0290912D028F3F00
:1052500091050CF012CF019690932D0280932C02B1
:105260000CCF80912702909128028F3F2FE7920761
:1052700009F403CFBC016F5F7F4F2091170230917B
:105280001802621773070CF0F8CE0E94170490936F
:10529000280280932702F1CE809117029091180284
:1052A0008F3FEFE79E0709F4E8CEBC016F5F7F4FA9
:1052B0000E9417049093180280931702DECE80910B
:1052C0002E0290912F028F3FFFE79F0709F4D5CE62
:1052D000BC016F5F7F4F2091190230911A02621753
:1052E00073070CF0CACE0E94170490932F0280938C
:1052F0002E02C3CE8091190290911A028F3F2FE7A0
:10530000920709F4BACEBC016F5F7F4F0E94170469
:1053100090931A0280931902B0CE8091B6049091B6
:10532000B7048E3F91050CF0A8CE01969093B70478
:105330008093B604A2CE8091B8049091B9048E3FB8
:1053400091050CF09ACE01969093B9048093B8041D
:1053500094CE8091FA099091FB098F3FEFE79E0769
:1053600009F48BCE01969093FB098093FA0985CEC0
:1053700080910B0290910C028F3FFFE79F0709F489
:105380007CCE019690930C0280930B0276CE809196
:10539000090290910A028F3F2FE7920709F46DCE20
:1053A000019690930A028093090267CE80910702CA
:1053B000909108028F3FEFE79E0709F45ECE0196B9
:1053C000909308028093070258CE80910502909135
:1053D00006028F3FFFE79F0709F44FCE0196909397
:1053E00006028093050249CE809103029091040247
:1053F0008F3F2FE7920709F440CE01969093040265
:10540000809303023ACE80910102909102028F3F75
:10541000EFE79E0709F431CE019690930202809344
:1054200001022BCE80910002811127CE81E0809372
:10543000000223CE823009F0A4C08091C1118111F5
:1054400010C08091B411882351F08091C21188233B
:1054500021F081508093C21110CE82E3FBCF81E016
:10546000FECD0091C211C0911502D0911602202EDE
:10547000312CFAE10F9F8001112409531B4FBE010B
:1054800090E080E00E945F9627E137EB41ED58E322
:105490000E944197F80125853685478550890E94ED
:1054A00036956B017C0160E070E080E89FE30E942C
:1054B000B8062B013C0160E070E080E89FE30E94A9
:1054C0004D064B015C0120E030E040E051E4C701B3
:1054D000B6010E94C29518160CF450C0A3019201A7
:1054E000C701B6010E94C29587FF18C0A5019401AB
:1054F000C701B6010E94C29587FF10C0F801C5869A
:10550000D686E786F08ACB3EFFE7DF0708F0B5CD09
:105510006496D0931602C0931502AFCD0E94090481
:105520008AE1829DE001839DD00D1124C953DB4F98
:10553000A30192016D857E858F8598890E9436979B
:10554000181624F44D865E866F86788A8AE1829DDD
:10555000E001839DD00D1124C953DB4FA5019401B7
:105560006D857E858F8598890E94369718160CF078
:1055700084CD8D869E86AF86B88A7FCD0E94090431
:105580007CCD833009F00EC18091BF11811114C010
:105590008091BE118111C6C08091B311882351F052
:1055A0008091C011882321F081508093C01165CD76
:1055B00081E2FBCF82E053CDC091C0110091150272
:1055C0001091160223E1C29FE0011124C05DDD4F5E
:1055D000B80190E080E00E945F9627E137EB41ED53
:1055E00058E30E9441972A853B854C855D850E9442
:1055F00036956B017C0120E030E04EE753E40E94D9
:10560000C29518160CF4BACF6091070A7091080A77
:10561000072E000C880B990B0E94619620E030E069
:1056200040E850E40E9441974B015C016091050AFB
:105630007091060A072E000C880B990B0E94619648
:105640009B01AC01C501B4010E9441974B015C0173
:105650006091030A7091040A072E000C880B990BC5
:105660000E9461969B01AC01C501B4010E94419763
:105670004B015C016091010A7091020A072E000C37
:10568000880B990B0E9461962BEC31E840E85BE3B4
:105690000E9441972B013C016091FF097091000A23
:1056A000072E000C880B990B0E9461969B01AC01A0
:1056B000C301B2010E9441972B013C016091FD0999
:1056C0007091FE09072E000C880B990B0E946196C1
:1056D0009B01AC01C301B2010E9441979B01AC0147
:1056E000C501B4010E94C6952E853F854889598918
:1056F0000E9441979B01AC01C701B6010E94C2956F
:1057000087FF3CCFCA86DB86EC86FD860B3E8FE7A3
:10571000180708F0B2CC0C5E1F4F109316020093CE
:105720001502ABCCF9DB4B015C01C091C0110091BB
:10573000150210911602E3E1CE9FE0011124C05D35
:10574000DD4FB80190E080E00E945F962AE037EDDF
:1057500043E25CE30E9441972A853B854C855D8549
:105760000E9436956B017C012DEC3CEC43EB52E43E
:105770000E94C29518160CF401CFA7019601C5012D
:10578000B4010E94369718160CF0F8CECA86DB8654
:10579000EC86FD860A3FFFE71F0708F06ECC0B5F23
:1057A0001F4FBBCF843011F483E059CC853011F406
:1057B00084E055CC863009F060CC85E050CCCF93A6
:1057C000DF93EC0160E08E810E94790361E08E81BD
:1057D0000E94790360E08E810E9479038BE891E05A
:1057E0000197F1F7DF91CF910895CF92DF92EF9279
:1057F000FF920F931F93CF93DF936C017C0187E09F
:10580000E80EF11CD0E0C0E0062F10E0B8010C2E2D
:1058100002C0759567950A94E2F76170F70181916E
:105820007F010E9479032196C430D10579F7C60122
:10583000DF91CF911F910F91FF90EF90DF90CF906C
:10584000BECFCF92DF92EF92FF920F931F93CF9331
:10585000DF93EC01F62E642F8C810E9479038D81F9
:105860008F3F19F060E00E9479030F2D10E08F85C3
:1058700084FF24C06E0187E0C80ED11CF12CE12CFE
:10588000B8010E2C02C0759567950A94E2F7617015
:10589000F60181916F010E947903FFEFEF1AFF0A71
:1058A00088E0E816F10461F7CE01DF91CF911F91F6
:1058B0000F91FF90EF90DF90CF9081CFB80184E0FF
:1058C000759567958A95E1F7CE018FDF6F2DCE0133
:1058D000DF91CF911F910F91FF90EF90DF90CF90CC
:1058E00084CF41E0AEDF81E090E0089540E0A9CFB1
:1058F0000F931F93CF93DF93EC01623019F48F85E0
:1059000088608F876B8B1C8A80E48D8B80E18E8B07
:1059100080E58F8B8C810E947D028D818F3F11F0FD
:105920000E947D028E810E947D028E0198012C1BB7
:105930003D0B8F8584FD0CC084E090E00F5F1F4F0E
:105940002817390744F4F80186810E947D02EECFC2
:1059500088E090E0F3CF8BE39DE00197F1F760E002
:105960008C810E94790360E08E810E9479038D8191
:105970008F3F19F060E00E9479036F8564FD31C0AC
:1059800063E0CE0132DF0BE416E4C8010197F1F7C2
:1059900063E0CE012ADFC8010197F1F763E0CE0191
:1059A00024DF83E592E00197F1F762E0CE011DDF8D
:1059B0006F856062CE019ADF84E0888B6CE0CE0157
:1059C00095DF61E0CE0192DF8BE39FE10197F1F774
:1059D00082E0898B66E0CE01DF91CF911F910F911C
:1059E00085CF6062CE0182DF8BE496E40197F1F708
:1059F0006F856062CE017ADF83E592E00197F1F76F
:105A00006F856062CE0172DFD3CF8093791260938D
:105A10007A12643008F063E090917112691710F007
:105A20006FEF690FE62FF0E0E25AFD4E6489680FD0
:105A300060688EE592E15ACFCF92DF92EF92FF92AB
:105A40000F931F93CF93DF93FB0120812F3F09F02A
:105A500045C08B017C01D0907912C0907A12609180
:105A600077126770F8E06F9FB001112460648EE5D3
:105A700092E13CDFE70188E0E80EF11C69918EE5D8
:105A800092E12FDFEC16FD06C9F76C2D8D2DBDDFE1
:105A9000609177128EE592E124DF80917712F80110
:105AA000808380917712909178120196909378126A
:105AB00080937712209176122817190609F0D4F4F2
:105AC0001092781210927712DF91CF911F910F915F
:105AD000FF90EF90DF90CF900C945502622F8EE5EF
