:1000000022C200000C94367E0C94E67D0C94B17DE7
:100010004BC2000049C2000047C2000045C20000B8
:1000200043C2000041C200003FC200003DC20000C8
:100030000C945E800C94A77D0C949D7D35C20000CD
:1000400033C2000031C200002FC200002DC20000E8
:100050002BC2000029C200000C94937D0C943172D5
:1000600023C2000021C200001FC200001DC2000008
:100070001BC2000019C2000017C2000015C2000018
:100080000C94857C0C94777B0FC200000DC200009D
:100090000BC2000009C2000007C2000005C2000038
:1000A00003C2000001C200000C94DE790C944B786E
:1000B0000C940076F9C10000F7C100000C943A746A
:1000C0000C947B72F1C10000EFC10000EDC1000093
:1000D000EBC10000E9C10000E7C10000E5C100007C
:1000E000E3C10000084AD73B3BCE016E84BCBFFD94
:1000F000C12F3D6C74319ABD56833DDA3D00C77FF8
:1001000011BED9E4BB4C3E916BAAAABE0000008090
:100110003F0664EC1B3C04BC163E3BE5B93CC93CC5
:1001200037C29E5A3D660498083EEA69AAAA3E0074
:100130000000803F00407A10F35A00A0724E180968
:100140000010A5D4E80000E87648170000E40B543E
:10015000020000CA9A3B000000E1F505000080960D
:100160009800000040420F000000A086010000003F
:10017000102700000000E8030000000064000000F9
:1001800000000A00000000000100000000002C76C2
:10019000D888DC674F0823DFC1DFAE59E1B1B796DD
:1001A000E5E3E453C63AE651997696E8E6C284263A
:1001B000EB898C9B62ED407C6FFCEFBC9C9F40F216
:1001C000BAA56FA5F490055A2AF75C936B6CF96792
:1001D0006DC11BFCE0E40D47FEF520E6B500D0ED57
:1001E000902E0300943577050080841E08000020BF
:1001F0004E0A000000C80C333333330F986E12835D
:100200001141EF8D2114893BE65516CFFEE6DB1830
:10021000D1844B381BF77C1D901DA4BBE4242032F5
:1002200084725E228100C9F124ECA1E53D27000023
:100230000A0B02090C0D0E08070304010000000060
:1002400000000000000000000000000000000000AE
:10025000000000000000000000001211100000006B
:10026000000000000000000000000000000000008E
:100270000000000000000F110F050900000011111F
:100280001D131D00000011110F01010000001212CA
:1002900012121F0100001F040404040000001111C9
:1002A0001F1111000000111B151111000000121484
:1002B00018141200000011131519110000000E117E
:1002C00006110E00000015150E1515000000060A97
:1002D0000A0A1F1100001E101010100000001E114D
:1002E0001E111E00030C101E11110E000F11110F14
:1002F000050911001215151D151512000E11010723
:1003000001110E001010101E11111E001111111DEF
:1003100013131D001111111515151F001111110FC7
:10032000010101001212121212121F01040E151502
:10033000150E04001111110F01110E001F111111E2
:1003400011111100070909090909110015111113EB
:100350001519110011111113151911000E110106B3
:1003600001110E001515150E15151500060A0A0ABD
:100370000A0A1F111F101010101010001F10101E5D
:1003800011111E0000002200250028002B002E0065
:100390003100340002010000050108010B010000DA
:1003A0002100240027002A002D0030003300010125
:1003B0000000040107010A010505050507050808F5
:1003C0000808020202020A0A0808040404040101DF
:1003D00001010101010103030303030303030407F4
:1003E00007070C0C0C0C0C0C0C0C0202020206068B
:1003F0000606060606060B0B0B0B0B0B0B0B01027E
:100400001020200808102040102040800201020126
:1004100008040201010204081020408080402010DE
:100420000804020180040201804020100804020137
:10043000080402010102040810204080010204089F
:1004400010204080C09111241FBECFEFD1E2DEBF4B
:10045000CDBF00E00CBF11E1A0E0B2E0E8E7F6E3B9
:1004600001E00BBF02C007900D92AE36B107D9F77D
:1004700022E1AEE6B1E101C01D92AD39B207E1F76C
:1004800012E0C3E2D2E000E006C021970109802F0C
:10049000FE010E942B98C232D10780E00807A9F71D
:1004A0000E94BE800C943A9BABCDEEE5F2E1128E39
:1004B000118E8FEF858F868F878F80A381A382A374
:1004C00083A384A385A386A387A380A781A782A7EC
:1004D00083A784A785A786A787A780AB81AB82ABBC
:1004E00083AB84AB85AB86AB87AB80AF81AF82AF8C
:1004F00083AF84AF85AF86AF089590E0FC01E250F2
:10050000FC4F249188549C4FFC018491882399F0DE
:1005100090E0880F991FFC01E256FC4FA591B49121
:10052000FC01EC57FC4F859194918FB7F894EC91B6
:10053000E22BEC938FBF08954F925F926F927F9260
:100540008F929F92AF92BF92CF92DF92EF92FF92E3
:10055000CF93DF9300D000D000D0CDB7DEB76D834E
:100560007E838F83988749876091070A7091080A74
:10057000072E000C880B990B0E94C19520E030E0FB
:1005800040E850E40E94A1966B017C016091050A4D
:100590007091060A072E000C880B990B0E94C195DA
:1005A0009B01AC01C701B6010E94A1966B017C01C1
:1005B0006091030A7091040A072E000C880B990BB6
:1005C0000E94C1959B01AC01C701B6010E94A19692
:1005D0006B017C016091010A7091020A072E000CE8
:1005E000880B990B0E94C1952B013C016091FF097A
:1005F0007091000A072E000C880B990B0E94C19580
:100600004B015C016091FD097091FE09072E000C01
:10061000880B990B0E94C19569837A838B839C8395
:10062000898521E73DEF4EE753E4882321F02BEC49
:1006300031E840E85BE3C301B2010E94A196A50145
:1006400094010E94A19629813A814B815C810E948C
:10065000A1969B01AC01C701B6010E9426959B01A2
:10066000AC016D817E818F8198850E9426952996A7
:100670000FB6F894DEBF0FBECDBFDF91CF91FF90D4
:10068000EF90DF90CF90BF90AF909F908F907F9032
:100690006F905F904F900895AF92BF92CF92DF928C
:1006A000EF92FF920F931F93CF93DF936C017B0127
:1006B0008B01040F151FEB015E01AE18BF08C017B8
:1006C000D10759F06991D601ED91FC910190F0812B
:1006D000E02DC6011995892B79F7C501DF91CF91DE
:1006E0001F910F91FF90EF90DF90CF90BF90AF9050
:1006F0000895282F30E0F901E25DFD4F9491F90152
:10070000E250FC4F449128543C4FF901249122239C
:1007100009F435C0992311F191509231F8F4E92F81
:10072000F0E08827E956FC4F8F4F0C942B98C803B4
:10073000CC03A903C003C403AE03CF03D503D9037D
:10074000DF03E303E703ED03F103AE03F503FB036C
:10075000FF03809180008F7780938000E22FF0E08C
:10076000EE0FFF1FEC57FC4FA591B4918FB7F89493
:10077000EC91611148C040954E234C938FBF089572
:10078000809180008F7DE8CF80918000877FE4CFCB
:1007900084B58F7784BDE2CF84B58F7DFBCF809108
:1007A000B0008F778093B000D9CF8091B0008F7D5B
:1007B000F9CF809190008F7780939000CFCF809178
:1007C00090008F7DF9CF80919000877FF5CF809149
:1007D000A0008F778093A000C1CF8091A0008F7D73
:1007E000F9CF8091A000877FF5CF809120018F778E
:1007F00080932001B3CF809120018F7DF9CF80912C
:100800002001877FF5CF4E2BB8CF089590E080E090
:10081000089580911502909116028230910530F072
:1008200096958795909316028093150208952F92BE
:100830003F924F925F926F927F928F929F92AF9270
:10084000BF92CF92DF92EF92FF920F931F93CF93BD
:10085000DF93CDB7DEB7A0970FB6F894DEBF0FBE1B
:10086000CDBF8B8F9C8F6D8F7E8F60912902709191
:100870002A02072E000C880B990B0E94C1956983F0
:100880007A838B839C830091050A1091060A20913C
:10089000030A3091040A3E832D83B801012E000C17
:1008A000880B990B0E94C1956B017C018D819E8103
:1008B000092E000CAA0BBB0B8B8B9C8BAD8BBE8BBC
:1008C000BC01CD010E94C1959B01AC01C701B601DD
:1008D0000E94A1966B017C01609127027091280211
:1008E000072E000C880B990B0E94C1954B015C01EF
:1008F000A091010AB091020AB887AF83BD01BB0F76
:10090000880B990B0E94C19569877A878B879C8792
:10091000A5019401C701B6010E94A19629853A85D7
:100920004B855C850E9426959B01AC0169817A818B
:100930008B819C810E94269520E030E040E05FE3BF
:100940000E94A19620E030E040E05FE30E94969490
:100950000E9493956F3F71058105910511F008F094
:1009600081C12091FF093091000A38A32F8F209078
:10097000FD093090FE09B901330F880B990B0E94D5
:10098000C1952B013C01C101032C000CAA0BBB0B30
:100990008F8B988FA98FBA8FBC01CD010E94C19512
:1009A0009B01AC01C301B2010E94A1962B013C0145
:1009B000A091070AB091080ABE87AD87BD01BB0FA1
:1009C000880B990B0E94C1956F87788B898B9A8BC6
:1009D000A3019201C501B4010E94A1962F85388917
:1009E00049895A890E9426959B01AC0169817A81C7
:1009F0008B819C810E94269520E030E040E05FE3FF
:100A00000E94A19620E030E040E05FE30E949694CF
:100A10000E9493956F3F71058105910511F008F0D3
:100A200021C16091170270911802072E000C880BEB
:100A3000990B0E94C1954B015C01AC019B01C70160
:100A4000B6010E94A19629853A854B855C850E9456
:100A500026959B01AC0169817A818B819C810E94E2
:100A6000269520E030E040E05FE30E94A19620E080
:100A700030E040E05FE30E9496940E9493956230DC
:100A800071058105910508F4EDC0A5019401C3012C
:100A9000B2010E94A1962F85388949895A890E94FE
:100AA00026959B01AC0169817A818B819C810E9492
:100AB000269520E030E040E05FE30E94A19620E030
:100AC00030E040E05FE30E9496940E94939562308C
:100AD00071058105910508F4C5C020912E02309161
:100AE0002F023A8329832CE330E0AF81B8850E943E
:100AF0004898E4E68E2E912CA12CB12CA5019401EE
:100B00000E94ED9769017A0129813A81D8010E94FA
:100B100033989B01AC016B897C898D899E890E94E9
:100B2000B797A70196010E94ED97220F331F441F2C
:100B3000551FA0E94A2EA0ED5A2EA3E06A2E712C73
:100B4000C301B2010E94ED972150310941095109B9
:100B5000211531054140510508F084C02CE330E0F7
:100B6000AD85BE850E944898A50194010E94ED972D
:100B700049015A0129813A81AF8DB8A10E94339869
:100B80009B01AC016F89788D898D9A8D0E94B797F2
:100B9000A50194010E94ED97220F331F441F551F9A
:100BA000C301B2010E94ED97215031094109510959
:100BB000211531054140510508F054C080911902BA
:100BC00090911A029C01990F440B550B29833A838B
:100BD0004B835C839801AD81BE810E9433989B0159
:100BE000AC0169817A818B819C810E94B797A701B2
:100BF00096010E94ED97220F331F441F551FC3011A
:100C0000B2010E94ED97215031094109510922306A
:100C100031054105510530F12F8D38A1D1010E94D8
:100C200033989B01AC0169817A818B819C810E9400
:100C3000B797A50194010E94ED97220F331F441F1F
:100C4000551FC301B2010E94ED972150310941099E
:100C50005109223031054105510520F03D8D3B8F72
:100C60004E8D4C8F8B8D9C8DA0960FB6F894DEBF69
:100C70000FBECDBFDF91CF911F910F91FF90EF90ED
:100C8000DF90CF90BF90AF909F908F907F906F90AC
:100C90005F904F903F902F9008954F925F926F9288
:100CA0007F928F929F92AF92BF92CF92DF92EF92FC
:100CB000FF926B017C016091290270912A02072E3C
:100CC000000C880B990B0E94C19520E030E048E4AD
:100CD00053E40E94A1964B015C016091070A709158
:100CE000080A072E000C880B990B0E94C1959B01E6
:100CF000AC01C501B4010E94A1964B015C01609159
:100D0000FF097091000A072E000C880B990B0E94B6
:100D1000C19520E030E44CE156E40E94A1962B01FD
:100D20003C016091FD097091FE09072E000C880BB3
:100D3000990B0E94C1959B01AC01C301B2010E94B5
:100D4000A1969B01AC01C501B4010E942695A701A3
:100D500096010E942695FF90EF90DF90CF90BF9074
:100D6000AF909F908F907F906F905F904F9008957D
:100D70004F925F926F927F928F929F92AF92BF92AB
:100D8000CF92DF92EF92FF926B017C01609129027A
:100D900070912A02072E000C880B990B0E94C195B6
:100DA00020E030E048E453E40E94A1964B015C014E
:100DB0006091010A7091020A072E000C880B990BB2
:100DC0000E94C1959B01AC01C501B4010E94A1968E
:100DD0004B015C016091050A7091060A072E000C18
:100DE000880B990B0E94C19520E030E44CE156E459
:100DF0000E94A1962B013C016091030A7091040AA4
:100E0000072E000C880B990B0E94C1959B01AC0129
:100E1000C301B2010E94A1969B01AC01C501B401BE
:100E20000E942695A70196010E942695FF90EF90BB
:100E3000DF90CF90BF90AF909F908F907F906F90FA
:100E40005F904F9008958F929F92AF92BF92CF92F2
:100E5000DF92EF92FF920F931F93CF93DF934B019B
:100E60005C018A010E949395EB0190E080E00E9472
:100E7000BF959B01AC01C501B4010E94959420E08F
:100E800030E040E05FE30E94969687FF2196C031F4
:100E900087E2D80730F0F80180818F5F8083D0E04F
:100EA000C0E0CE01DF91CF911F910F91FF90EF90A5
:100EB000DF90CF90BF90AF909F908F9008952F922A
:100EC0003F924F925F926F927F928F929F92AF92DA
:100ED000BF92CF92DF92EF92FF920F931F93CF9327
:100EE000DF934B015C0129013A01E80187011601FA
:100EF00020E030E0A9010E94229518164CF420E071
:100F000030E0A901C301B2010E9422951816D4F065
:100F10001882F80111821082F101108280E0DF91C5
:100F2000CF911F910F91FF90EF90DF90CF90BF90E6
:100F3000AF909F908F907F906F905F904F903F9079
:100F40002F9008956091070A7091080A072E000CEF
:100F5000880B990B0E94C1952AE037ED43E25CE3D0
:100F60000E94A1966B017C012091FF093091000A3B
:100F70008091FD099091FE09289FB001299F700D75
:100F8000389F700D1124072E000C880B990B0E94BE
:100F9000C1959B01AC01C701B6010E942695A30132
:100FA00092010E94A1969B01AC010E9496942B0194
:100FB0003C016091010A7091020A072E000C880B17
:100FC000990B0E94C1952AE037ED43E25CE30E9451
:100FD000A1966B017C012091050A3091060A80914F
:100FE000030A9091040A289FB001299F700D389F31
:100FF000700D1124072E000C880B990B0E94C195CF
:101000009B01AC01C701B6010E9426956B017C01D2
:1010100020E030E040E05FE3C501B4010E94A1960A
:101020009B01AC01C701B6010E94A1969B01AC01D6
:10103000C301B2010E9426956B017C0120E030E0E3
:1010400040E85FE30E94969687FD2AC021E73DEFC6
:101050004EE753E4C701B6010E94969618160CF4A9
:1010600057CFC701B6010E949395688370E090E066
:1010700080E00E94C1959B01AC01C701B6010E94AE
:10108000959420E030E44CE156E40E94A196AE0134
:10109000DADEF80191838083F101108281E03FCF95
:1010A000A701960160E070E080E89FE30E9426952A
:1010B0006B017C0121E73DEF4EE753E40E949696D9
:1010C00018160CF425CFC701B6010E9493956883CA
:1010D00070E090E080E00E94C1959B01AC01C701E7
:1010E000B6010E94959420E030E44CE156E40E9461
:1010F000A196AE01A8DEF8019183808381E0F10121
:1011000080830DCF4F925F926F927F928F929F92CA
:10111000AF92BF92CF92DF92EF92FF920F931F9305
:10112000CF93DF934B015C01EA01890160912902B1
:1011300070912A02072E000C880B990B0E94C19512
:1011400020E030E048E453E40E94A1966B017C016A
:101150006091070A7091080A072E000C880B990B02
:101160000E94C1959B01AC01C701B6010E94A196E6
:101170006B017C016091FF097091000A072E000C41
:10118000880B990B0E94C19520E030E44CE156E4B5
:101190000E94A1962B013C016091FD097091FE090E
:1011A000072E000C880B990B0E94C1959B01AC0186
:1011B000C301B2010E94A196A50194010E94A196CB
:1011C0009B01AC01C701B6010E9426956B017C0111
:1011D0000E949395688370E090E080E00E94C19542
:1011E0009B01AC01C701B6010E94959420E030E458
:1011F0004CE156E40E94A196AE0125DEF8019183F0
:101200008083DF91CF911F910F91FF90EF90DF903E
:10121000CF90BF90AF909F908F907F906F905F9096
:101220004F9008954F925F926F927F928F929F920C
:10123000AF92BF92CF92DF92EF92FF920F931F93E4
:10124000CF93DF934B015C01EA0189016091290290
:1012500070912A02072E000C880B990B0E94C195F1
:1012600020E030E048E453E40E94A1966B017C0149
:101270006091010A7091020A072E000C880B990BED
:101280000E94C1959B01AC01C701B6010E94A196C5
:101290006B017C016091050A7091060A072E000C13
:1012A000880B990B0E94C19520E030E44CE156E494
:1012B0000E94A1962B013C016091030A7091040ADF
:1012C000072E000C880B990B0E94C1959B01AC0165
:1012D000C301B2010E94A196A50194010E94A196AA
:1012E0009B01AC01C701B6010E9426956B017C01F0
:1012F0000E949395688370E090E080E00E94C19521
:101300009B01AC01C701B6010E94959420E030E436
:101310004CE156E40E94A196AE0195DDF80191835F
:101320008083DF91CF911F910F91FF90EF90DF901D
:10133000CF90BF90AF909F908F907F906F905F9075
:101340004F900895EBE0F1E080818F7E8083808173
:10135000877F80830895109252121092511210923A
:1013600050121092E0110895F398F6981092E2113D
:101370001092E11108951092FB111092FC1110923D
:10138000FD111092FE111092F7111092F8111092A7
:10139000F9111092FA111092F3111092F4111092A7
:1013A000F5111092F6111092EB111092EC111092AF
:1013B000ED111092EE111092EF111092F0111092A7
:1013C000F1111092F21180915A1290915B12A0913A
:1013D0005C12B0915D128093221290932312A0931D
:1013E0002412B09325128091461290914712A09139
:1013F0004812B09149128093121290931312A09345
:101400001412B093151208950F931F93CF93DF9387
:101410004091221250912312609124127091251252
:101420008091EB119091EC11A091ED11B091EE1122
:10143000480F591F6A1F7B1F80915A1290915B12AF
:10144000A0915C12B0915D12481759076A077B079B
:1014500009F080C08091121290911312A091141281
:10146000B09115120091EF111091F0112091F1112E
:101470003091F211800F911FA21FB31F00914612ED
:10148000109147122091481230914912801791070C
:10149000A207B30709F05EC02091B01130E0E091DF
:1014A0000902F0910A02C0910B02D0910C022E1792
:1014B0003F0709F037C110910412112309F432C11A
:1014C0001092FB111092FC111092FD111092FE115E
:1014D0001092F7111092F8111092F9111092FA115E
:1014E0001092F3111092F4111092F5111092F6115E
:1014F0001092EB111092EC111092ED111092EE116E
:101500001092EF111092F0111092F1111092F2114D
:101510004093221250932312609324127093251249
:101520008093121290931312A0931412B093151279
:1015300080910702909108029093D0118093CF116F
:1015400080910502909106029093AF118093AE11A5
:10155000C093B01180910312882309F464C1EA9802
:101560008091FB119091FC11A091FD11B091FE11A1
:101570008093F7119093F811A093F911B093FA1199
:1015800084E08CBBEA9A2091F7113091F8114091D8
:10159000F9115091FA118091F3119091F411A091E9
:1015A000F511B091F611281739074A075B0709F4BE
:1015B00064C02093F3113093F4114093F5115093CC
:1015C000F611C091030AD091040AA091B011B0E0C5
:1015D0000E944E989B01AC01A091050AB091060AA9
:1015E0000E9458989B01AC01DE010E9458982091FE
:1015F000010A3091020A032E000C440B550B0E9485
:101600000F98CE01D7FD019695958795092E000C70
:10161000AA0BBB0B820F931FA41FB51FD195C195B9
:10162000D109AE01DD0F660B770B84239523A6232A
:10163000B7238093EB119093EC11A093ED11B0932D
:10164000EE118091CF119091D01101962091AE11A1
:101650003091AF11821B930B9093561280935512C9
:10166000809171008B7F8093710010929500109291
:10167000940082E088BB8093710080912212909147
:101680002312A0912412B09125124091EB11509198
:10169000EC116091ED117091EE11840F951FA61F52
:1016A000B71F40915A1250915B1260915C12709179
:1016B0005D12481759076A077B070CF087C0F1983D
:1016C00020910B012F7B20930B01409155125091DB
:1016D0005612052E000C660B770B841B950BA60B80
:1016E000B70B8093A5119093A611A093A711B09367
:1016F000A8118091F6099091F709A091F809B0918D
:10170000F909841B950BA60BB70B80934C12909391
:101710004D12A0934E12B0934F12DF91CF911F91B3
:101720000F9108952C173D0709F014CF2091051251
:10173000222309F40FCF1092FB111092FC1110928A
:10174000FD111092FE111092F7111092F8111092E3
:10175000F9111092FA111092F3111092F4111092E3
:10176000F5111092F6111092EB111092EC111092EB
:10177000ED111092EE111092EF111092F0111092E3
:10178000F1111092F21140932212509323126093A0
:101790002412709325128093121290931312A09327
:1017A0001412B09315128091030290910402909349
:1017B000D0118093CF1180910102909102029093F9
:1017C000AF118093AE11E093B011C4CE841795078A
:1017D000A607B7070CF0A1CFF19A20910B01206466
:1017E00020930B014091551250915612052E000C7A
:1017F000660B770B840F951FA61FB71F8093A5114B
:101800009093A611A093A711B093A8118091C3043F
:101810009091C404A091C504B091C604840F951F93
:10182000A61FB71F72CF80910212882309F475CFCB
:10183000EA98809100028111C9C08091FB119091BA
:10184000FC11A091FD11B091FE118093F7119093BE
:10185000F811A093F911B093FA1184E08CBBEA9AC5
:101860002091F7113091F8114091F9115091FA112E
:101870008091F3119091F411A091F511B091F611AE
:10188000281739074A075B0709F464C02093F3114E
:101890003093F4114093F5115093F611C091FD0966
:1018A000D091FE09A091B011B0E00E944E989B012A
:1018B000AC01A091FF09B091000A0E9458989B01C9
:1018C000AC01DE010E9458982091070A3091080A65
:1018D000032E000C440B550B0E940F98CE01D7FD30
:1018E000019695958795092E000CAA0BBB0B820FCC
:1018F000931FA41FB51FD195C195D109AE01DD0F6E
:10190000660B770B84239523A623B7238093EF11CF
:101910009093F011A093F111B093F2118091CF1137
:101920009091D01101962091AE113091AF11821B90
:10193000930B9093561280935512809171008D7F76
:1019400080937100109295001092940084E088BBFF
:10195000809371008091121290911312A091141231
:10196000B09115124091EF115091F0116091F11169
:101970007091F211840F951FA61FB71F4091461258
:1019800050914712609148127091491248175907B7
:101990006A077B075CF5F49820910B012F7D20935B
:1019A0000B014091551250915612052E000C660BFA
:1019B000770B841B950BA60BB70B8093A511909307
:1019C000A611A093A711B093A811A7CE8091FB11E7
:1019D0009091FC11A091FD11B091FE11B095A095D0
:1019E000909581959F4FAF4FBF4F2FCF841795078D
:1019F000A607B7070CF091CEF49A20910B01206254
:101A000020930B014091551250915612052E000C57
:101A1000660B770B840F951FA61FB71FCECF0F93B2
:101A20001F93CF93DF9380919D1190919E1101960A
:101A300090939E1180939D1188389341C4F08091BA
:101A40007A00806480937A0080917A0084FFFCCFD2
:101A50009091780080917900892798278927909321
:101A60009C1180939B1110929E1110929D11C09118
:101A7000D711D091D81180919B1190919C119E010A
:101A80002B5F3F4F281739072CF02A503109821756
:101A9000930734F497FF60C010929C1110929B1131
:101AA00080919D1190919E116AEF70E00E94DA97EB
:101AB000892B09F04BC080919A118F5F843108F017
:101AC00056C080939A11E0919A11F0E0EE0FFF1F3B
:101AD000E259FE4E00811181012E000C220B330BC6
:101AE0008091961190919711A0919811B0919911B0
:101AF000AC01BD01401B510B620B730B8A019B01B2
:101B000080919B1190919C1191838083092E000CF0
:101B1000AA0BBB0BBC01CD01600F711F821F931F6D
:101B200060939611709397118093981190939911E7
:101B300024E130E040E050E00E940F983093D8114B
:101B40002093D71181E0C217D30709F480E0DF9119
:101B5000CF911F910F910895811594400CF4A0CF5F
:101B60008FEF93E090939C1180939B1199CF1092EB
:101B70009A11A9CF489907C0499907C01092AB1193
:101B80001092AA1108954999F9CF81E090E09093BD
:101B9000AB118093AA1108958F929F92AF92BF923A
:101BA000CF92DF92EF92FF926091070A7091080A3C
:101BB000072E000C880B990B0E94C1959B01AC016C
:101BC0000E9496946B017C016091050A7091060A4F
:101BD000072E000C880B990B0E94C1959B01AC014C
:101BE000C701B6010E94A1966B017C016091030AB6
:101BF0007091040A072E000C880B990B0E94C19566
:101C00009B01AC01C701B6010E94A1966B017C014A
:101C10006091010A7091020A072E000C880B990B43
:101C20000E94C19521E73DEF4EE753E40E94A19643
:101C30004B015C016091FF097091000A072E000CB6
:101C4000880B990B0E94C1959B01AC01C501B401A1
:101C50000E94A1964B015C016091FD097091FE0903
:101C6000072E000C880B990B0E94C1959B01AC01BB
:101C7000C501B4010E94A1969B01AC01C701B60148
:101C80000E9426950E94FA9420EE3EE245E652E438
:101C90000E94A196FF90EF90DF90CF90BF90AF9001
:101CA0009F908F9008958F929F92AF92BF92CF9204
:101CB000DF92EF92FF9210924A1281E080934B12D2
:101CC000F5988091FC094091FA095091FB09849F95
:101CD0009001859F300D11244091F6095091F7092C
:101CE0006091F8097091F9096901CC0CDD1C0D2C8B
:101CF000000CEE08FF084A015B018C189D08AE0835
:101D0000BF08C0905A12D0905B12E0905C12F09025
:101D10005D12E091F509C814D904EA04FB040CF043
:101D200060C09AE1E99FD0011124A953BB4F9C9157
:101D300090935912F09158129F1729F0890F8093B0
:101D40005712809358122F5F3F4F309356122093B3
:101D500055122AE1E29FF0011124E953FB4F8181E2
:101D600092819093541280935312109252121092B7
:101D70005112109250128091551290915612092EC4
:101D8000000CAA0BBB0B481B590B6A0B7B0B409337
:101D90004C1250934D1260934E1270934F12F19863
:101DA00080910B018F7B80930B018091090184FD51
:101DB0000EC080910B01806180930B018FEF9BED32
:101DC00025E0815090402040E1F700C00000F29AE9
:101DD000FF90EF90DF90CF90BF90AF909F908F904B
:101DE00008959091C704890F8093591280935712D8
:101DF0008093581281E090E0909356128093551290
:101E0000A8CF8F929F92AF92BF92CF92DF92EF9224
:101E1000FF9210924B1281E080934A12F5988091C4
:101E2000FC094091FA095091FB09849F9001859F1C
:101E3000300D1124C090C304D090C404E090C504B8
:101E4000F090C60480905A1290905B12A0905C12A1
:101E5000B0905D12A901440F551F052E000C660BB2
:101E6000770B4C0D5D1D6E1D7F1DE091F50948152A
:101E700059056A057B0534F0C814D904EA04FB044B
:101E80000CF460C09AE1E99FD0011124A953BB4F23
:101E90009C919093591240915812941729F0890FF0
:101EA00080935712809358122F5F3F4F30935612F2
:101EB000209355122AE1E29FF0011124E953FB4FD0
:101EC00081819281909354128093531210925212F6
:101ED00010925112109250128091551290915612F8
:101EE000092E000CAA0BBB0B8C0D9D1DAE1DBF1D3A
:101EF00080934C1290934D12A0934E12B0934F12B8
:101F0000F19A80910B01806480930B01809109010B
:101F100084FD0EC080910B01806180930B018FEFD7
:101F20009BED25E0815090402040E1F700C000008B
:101F3000F29AFF90EF90DF90CF90BF90AF909F907C
:101F40008F9008959091C704890F809359128093C0
:101F500057128093581281E090E09093561280932C
:101F60005512A8CF4F925F926F927F928F929F925D
:101F7000AF92BF92CF92DF92EF92FF920F931F9397
:101F8000CF9310924A1281E080934B12F298C09145
:101F9000FC098091FA099091FB09C89F8001C99FB3
:101FA000100D1124C801880F991F092E000CAA0BCF
:101FB000BB0BC090BF04D090C004E090C104F0906F
:101FC000C204B701A601481B590B6A0B7B0B809119
:101FD000461290914712A0914812B091491284176D
:101FE0009507A607B7070CF0C4C08091F50990E0EB
:101FF0002091BE04223009F065C02AE1289FF0013B
:10200000299FF00D1124E953FB4F838180935912CE
:102010008481958190935412809353128091591228
:1020200090915812981729F0C80FC0935712C09377
:1020300058120F5F1F4F10935612009355121092B3
:10204000521210925112109250128091551290918A
:102050005612092E000CAA0BBB0BC81AD90AEA0AA1
:10206000FB0AC0924C12D0924D12E0924E12F092A6
:102070004F12F49880910B018F7D80930B0180911A
:10208000090183FD0EC080910B01886080930B01D4
:10209000FFEF2BED85E0F15020408040E1F700C0DC
:1020A0000000F59ACF911F910F91FF90EF90DF9074
:1020B000CF90BF90AF909F908F907F906F905F90E8
:1020C0004F9008954AE1489F9001499F300D112497
:1020D000C90189539B4F5C01FC0161817281685782
:1020E0007C4E072E000C880B990B0E94C19520E0B6
:1020F00030E44CE156E40E9426952B013C01F501A9
:10210000608170E090E080E00E94C1959B01AC018D
:10211000C301B2010E9496944B015C016091030AD5
:102120007091040A072E000C880B990B0E94C19530
:102130002B013C016091FD097091FE09072E000CF6
:10214000880B990B0E94C1959B01AC01C301B201A0
:102150000E9426959B01AC01C501B4010E94A19685
:102160000E94939560935912109254121092531238
:1021700055CF8091CA04C80FC0935912C09357120B
:10218000C0935812109254121092531281E090E0B2
:10219000909356128093551252CF80914B12811119
:1021A00001C0E0CE08954F925F926F927F928F921E
:1021B0009F92AF92BF92CF92DF92EF92FF920F93D6
:1021C0001F93CF9310924B1281E080934A12F298A2
:1021D000C091FC098091FA099091FB09C89F800188
:1021E000C99F100D1124C801880F991F092E000CDA
:1021F000AA0BBB0BC090BA04D090BB04E090BC0407
:10220000F090BD048C0D9D1DAE1DBF1D409146126A
:1022100050914712609148127091491284179507A6
:10222000A607B7070CF0C4C08091F50990E0209193
:10223000BE04223009F065C02AE1289FF001299FE1
:10224000F00D1124E953FB4F83818093591284814F
:1022500095819093541280935312809159129091CA
:102260005812981729F0C80FC0935712C0935812EC
:102270000F5F1F4F10935612009355121092521277
:102280001092511210925012809155129091561244
:10229000092E000CAA0BBB0B8C0D9D1DAE1DBF1D86
:1022A00080934C1290934D12A0934E12B0934F1204
:1022B000F49A80910B01806280930B018091090157
:1022C00083FD0EC080910B01886080930B01FFEFAE
:1022D0002BED85E0F15020408040E1F700C0000088
:1022E000F59ACF911F910F91FF90EF90DF90CF90D3
:1022F000BF90AF909F908F907F906F905F904F9026
:1023000008954AE1489F9001499F300D1124C90169
:1023100089539B4F5C01FC016181728168577C4E3F
:10232000072E000C880B990B0E94C19520E030E429
:102330004CE156E40E9426952B013C01F501608199
:1023400070E090E080E00E94C1959B01AC01C30168
:10235000B2010E9496944B015C016091030A709156
:10236000040A072E000C880B990B0E94C1952B01C3
:102370003C016091FD097091FE09072E000C880B4D
:10238000990B0E94C1959B01AC01C301B2010E944F
:1023900026959B01AC01C501B4010E94A1960E9443
:1023A000939560935912109254121092531255CF74
:1023B0008091CA04C80FC0935712C0935812C0939B
:1023C0005912109254121092531281E090E090939F
:1023D00056128093551252CF80914A12811101C03A
:1023E000E2CE08952F923F924F925F926F927F922A
:1023F0008F929F92AF92BF92CF92DF92EF92FF9215
:102400000F931F93CF93DF9300D0CDB7DEB78983AF
:10241000823009F0B3C080913412811199C081E0FB
:1024200080933412109233122091B8043091B90481
:102430008091B6049091B704281B390B4091FA099A
:102440005091FB09249FC001259F900D349F900D52
:1024500011240196909356128093551210924512B2
:1024600010924412109243124091551250915612FC
:10247000052E000C660B770B8091F6099091F709F9
:10248000A091F809B091F909841B950BA60BB70B25
:1024900080934C1290934D12A0934E12B0934F1212
:1024A000F19880910B018F7B80930B018091090142
:1024B00084FD0EC080910B01806180930B019FEF22
:1024C0002BED85E0915020408040E1F700C00000F6
:1024D00080912B02843009F024C1F49880910B0183
:1024E0008F7D80930B018091090183FD0EC0809147
:1024F0000B01886080930B019FEF2BED85E09150DD
:1025000020408040E1F700C00000F29AF69A9981DD
:10251000923009F00EC19093371281E08093361209
:10252000E8981092720010927200809173008D7F73
:1025300080937300809173008B7F80937300E99880
:102540001092A5001092A40088E089BB80937200CD
:102550000F900F900F90DF91CF911F910F91FF90EF
:10256000EF90DF90CF90BF90AF909F908F907F9033
:102570006F905F904F903F902F900895809133120D
:102580008111E6CF1092341281E080933312E091F2
:10259000421223E1E29FF0011124E05DFD4F8081B2
:1025A00080934112818192819093401280933F12D7
:1025B000828980933E120091050A1091060A80914B
:1025C000030A9091040A9B838A83A091010AB09127
:1025D000020A2CE330E00E94489824E630E040E014
:1025E00050E00E94ED9729013A01A0912E02B0918E
:1025F0002F0298010E9433989B01AC01AA81BB81F4
:102600000E945898A30192010E94ED97220F331F58
:10261000441F551F60E9862E60ED962E63E0A62EBE
:10262000B12CC501B4010E94ED97CA01B9016150F6
:1026300071098109910920912C0230912D02032EFC
:10264000000C440B550B0E94ED976901220F331FBC
:102650008091F6099091F709A091F809B091F909D4
:10266000821B930BA109B10940915A1250915B1240
:1026700060915C1270915D12481759076A077B07D9
:102680000CF046C040913C1250913D129801AA8135
:10269000BB810E943398DA019B01AC010E944E98E5
:1026A000A30192010E94ED97220F331F441F551F73
:1026B000C501B4010E94ED972150310930933B12BE
:1026C00020933A122C153D0558F4D0923912C0923D
:1026D0003812F3990DC0D092A900C092A80008C08A
:1026E00030933912209338123093A9002093A80018
:1026F0008091381290913912019620913A123091BE
:102700003B12821B930B9093561280935512ACCEC2
:10271000D0923B12C0923A12D0923912C092381223
:10272000DACF853009F0DFCEF49A80910B01806218
:10273000D8CE81E08093371280933512F1CE2F925C
:102740003F924F925F926F927F928F929F92AF9241
:10275000BF92CF92DF92EF92FF920F931F93CF938E
:10276000DF9300D0CDB7DEB78983823009F0B3C0E4
:1027700080913412811199C081E0809334121092BB
:1027800033122091B8043091B9048091B60490912D
:10279000B704281B390B4091FA095091FB09249F7B
:1027A000C001259F900D349F900D112401969093A8
:1027B00056128093551210924512109244121092A4
:1027C00043128091551290915612092E000CAA0BBB
:1027D000BB0B4091C3045091C4046091C504709137
:1027E000C604840F951FA61FB71F80934C129093A9
:1027F0004D12A0934E12B0934F12F19A80910B019B
:10280000806480930B018091090184FD0EC080914A
:102810000B01806180930B019FEF2BED85E09150C0
:1028200020408040E1F700C0000080912B028430FE
:1028300009F024C1F49A80910B01806280930B010E
:102840008091090183FD0EC080910B018860809307
:102850000B019FEF2BED85E0915020408040E1F788
:1028600000C00000F29AF69A9981923009F00EC1E8
:102870009093371281E080933612E898109272009C
:1028800010927200809173008D7F8093730080910D
:1028900073008B7F80937300E9981092A5001092CB
:1028A000A40088E089BB809372000F900F900F9076
:1028B000DF91CF911F910F91FF90EF90DF90CF901C
:1028C000BF90AF909F908F907F906F905F904F9050
:1028D0003F902F900895809133128111E6CF10928E
:1028E000341281E080933312E091421223E1E29F9F
:1028F000F0011124E05DFD4F8081809341128181C0
:1029000092819093401280933F12828980933E126D
:102910000091050A1091060A8091030A9091040A19
:102920009B838A83A091010AB091020A2CE330E0D4
:102930000E94489824E630E040E050E00E94ED9785
:1029400029013A01A0912E02B0912F0298010E9414
:1029500033989B01AC01AA81BB810E945898A301C6
:1029600092010E94ED97220F331F441F551F60E90B
:10297000862E60ED962E63E0A62EB12CC501B40123
:102980000E94ED97CA01B90161507109810991094D
:1029900020912C0230912D02032E000C440B550B7C
:1029A0000E94ED976901220F331F8091C30490911B
:1029B000C404A091C504B091C604820F931FA11D49
:1029C000B11D40915A1250915B1260915C1270914E
:1029D0005D1284179507A607B7070CF046C0409113
:1029E0003C1250913D129801AA81BB810E943398FC
:1029F000DA019B01AC010E944E98A30192010E9452
:102A0000ED97220F331F441F551FC501B4010E94CB
:102A1000ED972150310930933B1220933A122C1537
:102A20003D0558F4D0923912C0923812F3990DC076
:102A3000D092A900C092A80008C030933912209308
:102A400038123093A9002093A800809138129091F9
:102A50003912019620913A1230913B12821B930B4E
:102A60009093561280935512ACCED0923B12C092E6
:102A70003A12D0923912C0923812DACF853009F06A
:102A8000DFCEF49880910B018F7DD8CE81E08093CA
:102A9000371280933512F1CE4F925F926F927F92F0
:102AA0008F929F92AF92BF92CF92DF92EF92FF925E
:102AB0001F93CF93DF9300D000D0CDB7DEB7182F90
:102AC000823009F090C080913412811176C081E08B
:102AD0008093341210923312F598109232121092A1
:102AE00031122091B8043091B9048091B6049091CC
:102AF000B704281B390B4091FA095091FB09249F18
:102B0000C001259F900D349F900D11240196909344
:102B10005612809355124091551250915612052E1F
:102B2000000C660B770B8091F6099091F709A09144
:102B3000F809B091F909841B950BA60BB70B80938C
:102B40004C1290934D12A0934E12B0934F12F198E5
:102B500080910B018F7B80930B018091090184FD93
:102B60000EC080910B01806180930B013FEF8BEDD4
:102B700095E0315080409040E1F700C00000F29AAB
:102B8000123009F023C11093371281E0809336127E
:102B9000E898109272001092720010927200809168
:102BA00073008B7F80937300E99810922501109237
:102BB000240182E08ABB8093730026960FB6F894B6
:102BC000DEBF0FBECDBFDF91CF911F91FF90EF9081
:102BD000DF90CF90BF90AF909F908F907F906F903D
:102BE0005F904F900895809133128111E6CF10923B
:102BF000341281E080933312F59810923212609172
:102C0000290270912A02072E000C880B990B0E9452
:102C1000C1956B017C016091050A7091060A072E2F
:102C2000000C880B990B0E94C1954B015C016091CF
:102C3000030A7091040A072E000C880B990B0E945E
:102C4000C1959B01AC01C501B4010E94A1964B0145
:102C50005C016091010A7091020A072E000C880B3A
:102C6000990B0E94C19569837A838B839C836091C1
:102C7000270270912802072E000C880B990B0E94E6
:102C8000C195A50194010E94A19629813A814B81A9
:102C90005C810E9426959B01AC01C701B6010E9490
:102CA00026952B013C0160912C0270912D02072E7C
:102CB000000C880B990B0E94C1959B01AC01C301CC
:102CC000B2010E94269520E030E040E05FE30E94E0
:102CD000A19620E030E040E05FE30E9496940E94DD
:102CE00093952B017E836D839B01220F331F80916F
:102CF000F6099091F709A091F809B091F909821BA2
:102D0000930BA109B10940915A1250915B12609145
:102D10005C1270915D12481759076A077B070CF027
:102D20004CC060912F127091301290E080E00E94B0
:102D3000BF95A50194010E94A19629813A814B81FA
:102D40005C810E9426959B01AC01C701B6010E94DF
:102D5000269520E030E040E05FE30E94A19620E06D
:102D600030E040E05FE30E9496940E949395709358
:102D70002E1260932D126415750558F450922C1282
:102D800040922B12F3990DC05092290140922801D4
:102D900008C070932C1260932B12709329016093DA
:102DA000280180912B1290912C12019620912D12C6
:102DB00030912E12821B930BAACE50922E1240926B
:102DC0002D1250922C1240922B12DECF113029F48A
:102DD0001093371210933512DBCE1092371281E028
:102DE00080933512D5CE4F925F926F927F928F92E1
:102DF0009F92AF92BF92CF92DF92EF92FF921F937A
:102E0000CF93DF9300D000D0CDB7DEB7182F82303C
:102E100009F090C080913412811176C081E08093D6
:102E2000341210923312F59810923212109231121D
:102E30002091B8043091B9048091B6049091B70400
:102E4000281B390B4091FA095091FB09249FC001BE
:102E5000259F900D349F900D11240196909356124A
:102E6000809355128091551290915612092E000CA4
:102E7000AA0BBB0B4091C3045091C4046091C504DC
:102E80007091C604840F951FA61FB71F80934C1224
:102E900090934D12A0934E12B0934F12F19A8091DD
:102EA0000B01806480930B018091090184FD0EC0A9
:102EB00080910B01806180930B013FEF8BED95E0DA
:102EC000315080409040E1F700C00000F29A12308B
:102ED00009F023C11093371281E080933612E898ED
:102EE0001092720010927200109272008091730022
:102EF0008B7F80937300E998109225011092240132
:102F000082E08ABB8093730026960FB6F894DEBFEA
:102F10000FBECDBFDF91CF911F91FF90EF90DF905B
:102F2000CF90BF90AF909F908F907F906F905F9069
:102F30004F900895809133128111E6CF1092341290
:102F400081E080933312F598109232126091290239
:102F500070912A02072E000C880B990B0E94C195D4
:102F60006B017C016091050A7091060A072E000C26
:102F7000880B990B0E94C1954B015C016091030A7B
:102F80007091040A072E000C880B990B0E94C195C2
:102F90009B01AC01C501B4010E94A1964B015C01EB
:102FA0006091010A7091020A072E000C880B990BA0
:102FB0000E94C19569837A838B839C8360912702E9
:102FC00070912802072E000C880B990B0E94C19566
:102FD000A50194010E94A19629813A814B815C81CF
:102FE0000E9426959B01AC01C701B6010E9426955F
:102FF0002B013C0160912C0270912D02072E000CD8
:10300000880B990B0E94C1959B01AC01C301B201D1
:103010000E94269520E030E040E05FE30E94A19608
:1030200020E030E040E05FE30E9496940E94939598
:103030002B017E836D839B01220F331F8091C3047C
:103040009091C404A091C504B091C604820F931F4F
:10305000A11DB11D40915A1250915B1260915C12FA
:1030600070915D1284179507A607B7070CF04CC046
:1030700060912F127091301290E080E00E94BF9515
:10308000A50194010E94A19629813A814B815C811E
:103090000E9426959B01AC01C701B6010E942695AE
:1030A00020E030E040E05FE30E94A19620E030E0C5
:1030B00040E05FE30E9496940E94939570932E12D5
:1030C00060932D126415750558F450922C1240929D
:1030D0002B12F3990DC0509229014092280108C08B
:1030E00070932C1260932B12709329016093280126
:1030F00080912B1290912C12019620912D123091DB
:103100002E12821B930BAACE50922E1240922D1299
:1031100050922C1240922B12DECF81E08093371216
:1031200080933512DCCE4F925F926F927F928F9296
:103130009F92AF92BF92CF92DF92EF92FF921F9336
:10314000CF93DF9300D000D0CDB7DEB7182F8230F9
:1031500009F090C080913412811176C081E0809393
:10316000341210923312F2981092351210923612D5
:103170002091B8043091B9048091B6049091B704BD
:10318000281B390B4091FA095091FB09249FC0017B
:10319000259F900D349F900D112401969093561207
:1031A000809355124091551250915612052E000CE5
:1031B000660B770B8091BF049091C004A091C1046D
:1031C000B091C204841B950BA60BB70B80934C12D5
:1031D00090934D12A0934E12B0934F12F498809199
:1031E0000B018F7D80930B018091090183FD0EC03F
:1031F00080910B01886080930B013FEF8BED95E090
:10320000315080409040E1F700C00000F59A123044
:1032100009F023C11093371281E080933112E898AE
:1032200010927200109272001092720080917300DE
:103230008D7F80937300E9981092250110922401EC
:1032400084E08ABB8093730026960FB6F894DEBFA5
:103250000FBECDBFDF91CF911F91FF90EF90DF9018
:10326000CF90BF90AF909F908F907F906F905F9026
:103270004F900895809133128111E6CF109234124D
:1032800081E080933312F2981092351260912902F6
:1032900070912A02072E000C880B990B0E94C19591
:1032A0006B017C016091FF097091000A072E000CF0
:1032B000880B990B0E94C1954B015C016091FD093F
:1032C0007091FE09072E000C880B990B0E94C19586
:1032D0009B01AC01C501B4010E94A1964B015C01A8
:1032E0006091070A7091080A072E000C880B990B51
:1032F0000E94C19569837A838B839C8360912702A6
:1033000070912802072E000C880B990B0E94C19522
:10331000A50194010E94A19629813A814B815C818B
:103320000E9426959B01AC01C701B6010E9426951B
:103330002B013C0160912C0270912D02072E000C94
:10334000880B990B0E94C1959B01AC01C301B2018E
:103350000E94269520E030E040E05FE30E94A196C5
:1033600020E030E040E05FE30E9496940E94939555
:103370002B017E836D839B01220F331F8091BF043D
:103380009091C004A091C104B091C204821B930B20
:10339000A109B1094091461250914712609148121B
:1033A00070914912481759076A077B070CF04CC007
:1033B00060912F127091301290E080E00E94BF95D2
:1033C000A50194010E94A19629813A814B815C81DB
:1033D0000E9426959B01AC01C701B6010E9426956B
:1033E00020E030E040E05FE30E94A19620E030E082
:1033F00040E05FE30E9496940E94939570932E1292
:1034000060932D126415750558F450922C12409259
:103410002B12F6990DC0509229014092280108C044
:1034200070932C1260932B127093290160932801E2
:1034300080912B1290912C12019620912D12309197
:103440002E12821B930BAACE50922E1240922D1256
:1034500050922C1240922B12DECF113029F410938F
:10346000371210933212DBCE1092371281E0809324
:103470003212D5CE4F925F926F927F928F929F922F
:10348000AF92BF92CF92DF92EF92FF921F93CF93B2
:10349000DF9300D000D0CDB7DEB7182F823009F00F
:1034A00090C080913412811176C01092331281E065
:1034B00080933412F29810923512109236122091A5
:1034C000B8043091B9048091B6049091B704281BD8
:1034D000390B4091FA095091FB09249FC001259FA7
:1034E000900D349F900D1124019690935612809365
:1034F00055128091551290915612092E000CAA0B6C
:10350000BB0B4091BA045091BB046091BC04709114
:10351000BD04840F951FA61FB71F80934C12909374
:103520004D12A0934E12B0934F12F49A80910B015A
:10353000806280930B018091090183FD0EC0809110
:103540000B01886080930B013FEF8BED95E03150CC
:1035500080409040E1F700C00000F59A123009F079
:1035600023C11093371281E080933112E8981092B2
:1035700072001092720010927200809173008D7F21
:1035800080937300E998109225011092240184E041
:103590008ABB8093730026960FB6F894DEBF0FBEE9
:1035A000CDBFDF91CF911F91FF90EF90DF90CF9033
:1035B000BF90AF909F908F907F906F905F904F9053
:1035C0000895809133128111E6CF1092341281E078
:1035D00080933312F2981092351260912902709103
:1035E0002A02072E000C880B990B0E94C1956B01D3
:1035F0007C016091FF097091000A072E000C880B76
:10360000990B0E94C1954B015C016091FD0970917D
:10361000FE09072E000C880B990B0E94C1959B0197
:10362000AC01C501B4010E94A1964B015C016091FF
:10363000070A7091080A072E000C880B990B0E944C
:10364000C19569837A838B839C83609127027091F3
:103650002802072E000C880B990B0E94C195A5012A
:1036600094010E94A19629813A814B815C810E943C
:1036700026959B01AC01C701B6010E9426952B013E
:103680003C0160912C0270912D02072E000C880BDA
:10369000990B0E94C1959B01AC01C301B2010E942C
:1036A000269520E030E040E05FE30E94A19620E014
:1036B00030E040E05FE30E9496940E9493952B01D6
:1036C0007E836D839B01220F331F8091BA049091FA
:1036D000BB04A091BC04B091BD04820F931FA11D37
:1036E000B11D40914612509147126091481270915D
:1036F000491284179507A607B7070CF04CC06091D4
:103700002F127091301290E080E00E94BF95A501C9
:1037100094010E94A19629813A814B815C810E948B
:1037200026959B01AC01C701B6010E94269520E0B9
:1037300030E040E05FE30E94A19620E030E040E00E
:103740005FE30E9496940E94939570932E1260936B
:103750002D126415750558F450922C1240922B12BC
:10376000F6990DC0509229014092280108C070932B
:103770002C1260932B127093290160932801809181
:103780002B1290912C12019620912D1230912E1215
:10379000821B930BAACE50922E1240922D12509261
:1037A0002C1240922B12DECF113029F410933712D5
:1037B00010933212DBCE1092371281E080933212D6
:1037C000D5CE3F924F925F926F927F928F929F924F
:1037D000AF92BF92CF92DF92EF92FF920F931F931F
:1037E000CF93DF93382E22E082138FC08091341262
:1037F000811179C01092331281E080933412F598D0
:1038000010923212109231122091B8043091B90402
:103810008091B6049091B704281B390B4091FA09A6
:103820005091FB09249FC001259F900D349F900D5E
:10383000112401969093561280935512409155127F
:1038400050915612052E000C660B770B8091F609ED
:103850009091F709A091F809B091F909841B950B93
:10386000A60BB70B80934C1290934D12A0934E125F
:10387000B0934F12F19880910B018F7B80930B01D5
:103880008091090184FD0EC080910B0180618093BD
:103890000B018FEF9BED25E0815090402040E1F738
:1038A00000C00000F29A82E03812C4C03092371291
:1038B00081E080933612E8981092720010927200A4
:1038C000809173008D7F80937300809173008B7F54
:1038D00080937300E9981092A5001092A40082E0F2
:1038E00089BB80937200DF91CF911F910F91FF9060
:1038F000EF90DF90CF90BF90AF909F908F907F9090
:103900006F905F904F903F90089580913312811196
:10391000EACF1092341281E080933312F59810921E
:1039200032120091050A1091060AC091030AD09143
:10393000040AA091010AB091020A2CE330E00E942F
:10394000489824E630E040E050E00E94ED972901DD
:103950003A01A0912E02B0912F0298010E94339853
:103960009B01AC01DE010E945898A30192010E94C4
:10397000ED97220F331F441F551F90E9892E90EDBC
:10398000992E93E0A92EB12CC501B4010E94ED97A8
:10399000CA01B901615071098109910920912C0274
:1039A00030912D02032E000C440B550B0E94ED9715
:1039B000690140913C1250913D129801DE010E9434
:1039C0003398DA019B01AC010E944E98A301920149
:1039D0000E94ED97220F331F441F551FC501B401EC
:1039E0000E94ED972150310930933B1220933A12F7
:1039F0002C153D05B0F4D0923912C0923812F399CB
:103A000004C0D092A900C092A80080913812909171
:103A10003912019620913A1230913B12821B930B7E
:103A200009CF30933912209338123093A900209394
:103A3000A800EBCF81E080933712809335123BCF03
:103A40003F924F925F926F927F928F929F92AF922E
:103A5000BF92CF92DF92EF92FF920F931F93CF937B
:103A6000DF93382E22E082138FC0809134128111AF
:103A700079C01092331281E080933412F59810923D
:103A80003212109231122091B8043091B904809111
:103A9000B6049091B704281B390B4091FA09509154
:103AA000FB09249FC001259F900D349F900D112488
:103AB00001969093561280935512809155129091D1
:103AC0005612092E000CAA0BBB0B4091C304509157
:103AD000C4046091C5047091C604840F951FA61F8D
:103AE000B71F80934C1290934D12A0934E12B09337
:103AF0004F12F19A80910B01806480930B018091A9
:103B0000090184FD0EC080910B01806180930B013F
:103B10008FEF9BED25E0815090402040E1F700C001
:103B20000000F29A82E03812C4C03092371281E06D
:103B300080933612E8981092720010927200809171
:103B400073008D7F80937300809173008B7F8093CF
:103B50007300E9981092A5001092A40082E089BB3E
:103B600080937200DF91CF911F910F91FF90EF90A2
:103B7000DF90CF90BF90AF909F908F907F906F908D
:103B80005F904F903F900895809133128111EACF5A
:103B90001092341281E080933312F5981092321211
:103BA0000091050A1091060AC091030AD091040AF7
:103BB000A091010AB091020A2CE330E00E944898DB
:103BC00024E630E040E050E00E94ED9729013A0100
:103BD000A0912E02B0912F0298010E9433989B0170
:103BE000AC01DE010E945898A30192010E94ED975A
:103BF000220F331F441F551F90E9892E90ED992EF7
:103C000093E0A92EB12CC501B4010E94ED97CA0121
:103C1000B901615071098109910920912C023091FB
:103C20002D02032E000C440B550B0E94ED976901E9
:103C300040913C1250913D129801DE010E94339850
:103C4000DA019B01AC010E944E98A30192010E94EF
:103C5000ED97220F331F441F551FC501B4010E9469
:103C6000ED972150310930933B1220933A122C15D5
:103C70003D05B0F4D0923912C0923812F39904C0C5
:103C8000D092A900C092A800809138129091391268
:103C9000019620913A1230913B12821B930B09CF6F
:103CA00030933912209338123093A9002093A80042
:103CB000EBCF81E080933712809335123BCF2F9268
:103CC0003F924F925F926F927F928F929F92AF92AC
:103CD000BF92CF92DF92EF92FF920F931F93CF93F9
:103CE000DF9300D0CDB7DEB78983823009F094C06E
:103CF0008091341281117AC01092331281E0809346
:103D00003412F29810923512109236122091B804A3
:103D10003091B9048091B6049091B704281B390BF7
:103D20004091FA095091FB09249FC001259F900DF5
:103D3000349F900D11240196909356128093551242
:103D40004091551250915612052E000C660B770BC0
:103D50008091BF049091C004A091C104B091C204AD
:103D6000841B950BA60BB70B80934C1290934D12AE
:103D7000A0934E12B0934F12F49880910B018F7D57
:103D800080930B018091090183FD0EC080910B018E
:103D9000886080930B019FEF2BED85E091502040D0
:103DA0008040E1F700C00000F59A9981923009F057
:103DB000F1C09093371281E080933112E89810920D
:103DC000720010927200809173008D7F8093730057
:103DD000809173008B7F80937300E9981092A50007
:103DE0001092A40084E089BB809372000F900F9022
:103DF0000F90DF91CF911F910F91FF90EF90DF9087
:103E0000CF90BF90AF909F908F907F906F905F907A
:103E10004F903F902F900895809133128111E6CFFB
:103E20001092341281E080933312F298109235127E
:103E30000091FF091091000A8091FD099091FE09FF
:103E40009B838A83A091070AB091080A2CE330E093
:103E50000E94489824E630E040E050E00E94ED9750
:103E600029013A01A0912E02B0912F0298010E94DF
:103E700033989B01AC01AA81BB810E945898A30191
:103E800092010E94ED97220F331F441F551F60E9D6
:103E9000862E60ED962E63E0A62EB12CC501B401EE
:103EA0000E94ED97CA01B901615071098109910918
:103EB00020912C0230912D02032E000C440B550B47
:103EC0000E94ED976901220F331F8091BF049091EA
:103ED000C004A091C104B091C204821B930BA1093C
:103EE000B109409146125091471260914812709169
:103EF0004912481759076A077B070CF042C04091E6
:103F00003C1250913D129801AA81BB810E943398C6
:103F1000DA019B01AC010E944E98A30192010E941C
:103F2000ED97220F331F441F551FC501B4010E9496
:103F3000ED972150310930933B1220933A122C1502
:103F40003D0558F4D0923912C0923812F6990DC03E
:103F5000D092A900C092A80008C0309339122093D3
:103F600038123093A9002093A800809138129091C4
:103F70003912019620913A1230913B12821B930B19
:103F8000DBCED0923B12C0923A12D0923912C0923C
:103F90003812DECF81E080933712809332120ECF39
:103FA0002F923F924F925F926F927F928F929F9249
:103FB000AF92BF92CF92DF92EF92FF920F931F9337
:103FC000CF93DF9300D0CDB7DEB78983823009F07D
:103FD00094C08091341281117AC01092331281E022
:103FE00080933412F298109235121092361220916A
:103FF000B8043091B9048091B6049091B704281B9D
:10400000390B4091FA095091FB09249FC001259F6B
:10401000900D349F900D1124019690935612809329
:1040200055128091551290915612092E000CAA0B30
:10403000BB0B4091BA045091BB046091BC047091D9
:10404000BD04840F951FA61FB71F80934C12909339
:104050004D12A0934E12B0934F12F49A80910B011F
:10406000806280930B018091090183FD0EC08091D5
:104070000B01886080930B019FEF2BED85E0915041
:1040800020408040E1F700C00000F59A998192300D
:1040900009F0F1C09093371281E080933112E898D3
:1040A0001092720010927200809173008D7F809345
:1040B0007300809173008B7F80937300E998109256
:1040C000A5001092A40084E089BB809372000F9039
:1040D0000F900F90DF91CF911F910F91FF90EF9074
:1040E000DF90CF90BF90AF909F908F907F906F9018
:1040F0005F904F903F902F900895809133128111DF
:10410000E6CF1092341281E080933312F29810922D
:1041100035120091FF091091000A8091FD099091DC
:10412000FE099B838A83A091070AB091080A2CE3B9
:1041300030E00E94489824E630E040E050E00E94E1
:10414000ED9729013A01A0912E02B0912F0298011A
:104150000E9433989B01AC01AA81BB810E945898B0
:10416000A30192010E94ED97220F331F441F551F98
:1041700060E9862E60ED962E63E0A62EB12CC50177
:10418000B4010E94ED97CA01B9016150710981091A
:10419000910920912C0230912D02032E000C440B2A
:1041A000550B0E94ED976901220F331F8091BA04CD
:1041B0009091BB04A091BC04B091BD04820F931FE9
:1041C000A11DB11D409146125091471260914812B5
:1041D0007091491284179507A607B7070CF042C0E3
:1041E00040913C1250913D129801AA81BB810E94DE
:1041F0003398DA019B01AC010E944E98A301920111
:104200000E94ED97220F331F441F551FC501B401B3
:104210000E94ED972150310930933B1220933A12BE
:104220002C153D0558F4D0923912C0923812F699E7
:104230000DC0D092A900C092A80008C030933912D6
:10424000209338123093A9002093A800809138124F
:1042500090913912019620913A1230913B12821BB3
:10426000930BDBCED0923B12C0923A12D09239120D
:10427000C0923812DECF81E08093371280933212E1
:104280000ECFE2E0F1E080818D7F80832FEF84E329
:104290009CE0215080409040E1F700C00000808108
:1042A000826080830895E2E0F1E080818D7F8083E9
:1042B0002FE788E391E0215080409040E1F700C073
:1042C00000008081826080832FEF83EC99E0215091
:1042D00080409040E1F700C0000080818D7F8083A6
:1042E0002FE788E391E0215080409040E1F700C043
:1042F00000008081826080830895E2E0F1E08081A7
:104300008D7F80832FE788E391E0215080409040AB
:10431000E1F700C0000080818260808308958F9261
:104320009F92AF92BF92CF92DF92EF92FF920F9344
:104330001F93CF93DF9380911402833009F452C00E
:1043400088F48130C9F08230B9F1DF91CF911F91AB
:104350000F91FF90EF90DF90CF90BF90AF909F9024
:104360008F90CBCF853009F498C008F493C0863085
:1043700061F71092BB11E9CF8091C411882329F312
:104380008091C3118823A9F080910D028130E9F654
:104390008091290290912A028C309105B4F2BC01DF
:1043A0006A5071090E94170490932A02809329028F
:1043B000CCCF1092C411C9CF8091C111811103C01B
:1043C0001092B411C2CFE091C2118AE1E89FF001CE
:1043D0001124E953FB4F8189823008F4B6CF815014
:1043E000818BB3CF8091BF11811107C08091BE1125
:1043F0008111ABCF1092B311A8CFC091C01183E14E
:10440000C89FE0011124C05DDD4F6A857B858C85E6
:104410009D8541E00E949C024B015C0100911502C8
:1044200010911602B80190E080E00E94BF9527E14C
:1044300037EB41ED58E30E94A1969B01AC016E85DC
:104440007F85888999890E9495946B017C0120E081
:1044500030E040E85FE30E94969687FD18C0A70110
:104460009601C501B4010E94229587FF10C0CE8637
:10447000DF86E88AF98A0B3E8FE7180708F065CFD8
:104480000C5E1F4F10931602009315025ECF0E9420
:1044900009045BCF1092BD1158CF1092BC1155CFBB
:1044A0008F929F92AF92BF92CF92DF92EF92FF9244
:1044B0000F931F93CF93DF9380911402833009F4FD
:1044C0005DC088F48130F1F08230E9F1DF91CF9165
:1044D0001F910F91FF90EF90DF90CF90BF90AF9022
:1044E0009F908F900ACF853009F4ABC008F4A1C02B
:1044F000863061F78091BB118111E8CF81E0809314
:10450000BB11E4CF9091C411911103C08093C411E9
:10451000DDCF8091C3118823C9F280910D028130D3
:10452000A9F68091290290912A02853F2FE39207F4
:104530006CF6BC01665F7F4F0E94170490932A02BD
:1045400080932902C3CF8091C111811108C080914D
:10455000B4118111BBCF81E08093B411B7CFE0914A
:10456000C2118AE1E89FF0011124E953FB4F8189D0
:104570008F3F09F4ABCF8F5F818BA8CF8091BF11A4
:1045800081110CC08091BE118111A0CF8091B31117
:1045900081119CCF81E08093B31198CFC091C0115D
:1045A00023E1C29FE0011124C05DDD4F6A857B8558
:1045B0008C859D8540E00E949C024B015C0100912E
:1045C000150210911602B80190E080E00E94BF959C
:1045D00027E137EB41ED58E30E94A1962E853F85F8
:1045E000488959890E9496946B017C0120E030E053
:1045F0004EE753E40E9422951816C4F0A7019601D5
:10460000C501B4010E949696181684F4CE86DF8602
:10461000E88AF98A0B3E8FE7180708F057CF0C5E3F
:104620001F4F109316020093150250CF0E940904E9
:104630004DCF8091BD11811149CF81E08093BD1193
:1046400045CF8091BC11811141CF81E08093BC1195
:104650003DCF2F923F924F925F926F927F928F92B7
:104660009F92AF92BF92CF92DF92EF92FF920F9301
:104670001F93CF93DF9380911402813009F0DBC147
:104680009091C411911104C082E0809314020BC078
:10469000E0910D029091C31191111BC0E931B0F46A
:1046A000EF5FE0930D02DF91CF911F910F91FF908B
:1046B000EF90DF90CF90BF90AF909F908F907F90C2
:1046C0006F905F904F903F902F9017CE80930D0288
:1046D000EACFE150E93138F7F0E08827ED58FC4D9A
:1046E0008F4F0C942B988C239E23B023C223D4236A
:1046F000E223F4230624182426242F243D244F24C7
:1047000069247B249524A324B124BF24CD24DB2455
:10471000E924F724052513258091290290912A0286
:10472000833091050CF4BFCFBC01625071090E9427
:10473000170490932A0280932902B5CF8091050A2D
:104740009091060A181619060CF0ADCFBC01615005
:1047500071090E9417049093060A8093050AA3CF5B
:104760008091010A9091020A181619060CF09BCF4D
:10477000BC01615071090E9417049093020A809352
:10478000010A91CF8091030A9091040A1816190624
:104790000CF089CFBC01615071090E9417049093FD
:1047A000040A8093030A7FCF80910E0290910F023A
:1047B000181619060CF077CF019790930F0280938B
:1047C0000E0271CF8091FF099091000A1816190608
:1047D0000CF069CFBC01615071090E9417049093DD
:1047E000000A8093FF095FCF8091070A9091080A21
:1047F000181619060CF057CFBC01615071090E94C0
:1048000017049093080A8093070A4DCF8091FD0901
:104810009091FE09181619060CF045CFBC016150A5
:1048200071090E9417049093FE098093FD093BCF04
:104830008091200290912102181619060CF033CFB6
:10484000019790932102809320022DCF8091FC0943
:10485000823008F428CF81508093FC0924CF8091C6
:104860002C0290912D02823091050CF41CCF0197FF
:1048700090932D0280932C0216CF80912702909165
:104880002802181619060CF00ECFBC0161507109F0
:104890000E941704909328028093270204CF8091EE
:1048A000170290911802181619060CF0FCCEBC01E4
:1048B000615071092091270230912802261737078D
:1048C0000CF0F1CE0E941704909318028093170207
:1048D000EACE80912E0290912F02181619060CF044
:1048E000E2CEBC01615071090E94170490932F021F
:1048F00080932E02D8CE8091190290911A02181638
:1049000019060CF0D0CEBC016150710920912E0225
:1049100030912F02261737070CF0C5CE0E941704DE
:1049200090931A0280931902BECE8091B6049091A2
:10493000B704181619060CF0B6CE01979093B70479
:104940008093B604B0CE8091B8049091B904181643
:1049500019060CF0A8CE01979093B9048093B8047F
:10496000A2CE8091FA099091FB09181619060CF055
:104970009ACE01979093FB098093FA0994CE809187
:104980000B0290910C02181619060CF08CCE0197B0
:1049900090930C0280930B0286CE80910902909135
:1049A0000A02181619060CF07ECE019790930A029F
:1049B0008093090278CE8091070290910802181620
:1049C00019060CF070CE01979093080280930702AD
:1049D0006ACE8091050290910602181619060CF015
:1049E00062CE019790930602809305025CCE80917F
:1049F000030290910402181619060CF054CE019788
:104A000090930402809303024ECE80910102909114
:104A10000202181619060CF046CE01979093020276
:104A20008093010240CE80910002813009F03BCE9C
:104A30001092000238CE823009F0A8C08091C111D6
:104A4000811114C08091B411882371F08091C2113A
:104A5000823320F48F5F8093C21125CE823309F018
:104A600022CE1092C2111FCE83E00FCE0091C21150
:104A7000C0911502D0911602202E312C8AE1089F98
:104A80008001112409531B4FBE0190E080E00E9479
:104A9000BF9527E137EB41ED58E30E94A1969B01BA
:104AA000AC01F80165857685878590890E9495948B
:104AB0006B017C016EEB7FEF8EE793E40E94B806FA
:104AC0002B013C016EEB7FEF8EE793E40E944D06D5
:104AD0004B015C012AE939E949E95DE3C701B60107
:104AE0000E94969687FD4FC0A3019201C701B601AF
:104AF0000E9496961816C4F4A5019401C701B60148
:104B00000E949696181684F4F801C586D686E78624
:104B1000F08ACB3EFFE7DF0708F0C5CD6496D0935F
:104B20001602C0931502BFCD0E9409048AE1829D3E
:104B3000E001839DD00D1124C953DB4FA3019201E5
:104B40006D857E858F8598890E94229587FF04C098
:104B50004D865E866F86788A8AE1829DE001839D1C
:104B6000D00D1124C953DB4FA50194016D857E85BD
:104B70008F8598890E94229587FF95CD8D869E8688
:104B8000AF86B88A90CD0E9409048DCD833009F09C
:104B900016C18091BF11811118C08091BE11811181
:104BA000C9C08091B311882371F08091C011813206
:104BB00020F48F5F8093C01176CD813209F073CDE0
:104BC0001092C01170CD84E060CDC091C011D0E0D2
:104BD0006091070A7091080A072E000C880B990B48
:104BE0000E94C19520E030E040E850E40E94A19688
:104BF0006B017C016091050A7091060A072E000C7A
:104C0000880B990B0E94C1959B01AC01C701B601AD
:104C10000E94A1966B017C016091030A7091040AC5
:104C2000072E000C880B990B0E94C1959B01AC01CB
:104C3000C701B6010E94A1966B017C016091010A37
:104C40007091020A072E000C880B990B0E94C195E7
:104C500021E73DEF4EE753E40E94A1964B015C0132
:104C60006091FF097091000A072E000C880B990BC8
:104C70000E94C1959B01AC01C501B4010E94A1969F
:104C80004B015C016091FD097091FE09072E000C3B
:104C9000880B990B0E94C1959B01AC01C501B40121
:104CA0000E94A1969B01AC01C701B6010E94269506
:104CB00023E12C9F80012D9F100D1124005D1D4FBD
:104CC000F80126853785408951890E94A1964B01BC
:104CD0005C01C0911502D0911602BE0190E080E007
:104CE0000E94BF9527E137EB41ED58E30E94A19662
:104CF0009B01AC01F80162857385848595850E94CE
:104D000095946B017C0120E030E040E85FE30E9475
:104D1000969687FD38CFA5019401C701B6010E9480
:104D2000969618160CF02FCFF801C286D386E4862B
:104D3000F586EFCE0E94CC0D4B015C01C091C011F5
:104D4000009115021091160283E1C89FE001112421
:104D5000C05DDD4FB80190E080E00E94BF952AE081
:104D600037ED43E25CE30E94A1969B01AC016A85AA
:104D70007B858C859D850E9495946B017C012DEC33
:104D80003CEC4CEC5DE30E94969687FDFCCEA701BF
:104D90009601C501B4010E94229587FFF4CECA8610
:104DA000DB86EC86FD860A3FEFE71E0708F07BCC2A
:104DB0000B5F1F4F109316020093150274CC8430C2
:104DC00011F485E062CC853011F486E05ECC86304B
:104DD00009F069CC81E059CC8F929F92AF92BF923B
:104DE000CF92DF92EF92FF926091070A7091080ACA
:104DF000072E000C880B990B0E94C1959B01AC01FA
:104E00000E9496946B017C016091050A7091060ADC
:104E1000072E000C880B990B0E94C1959B01AC01D9
:104E2000C701B6010E94A1966B017C016091030A43
:104E30007091040A072E000C880B990B0E94C195F3
:104E40009B01AC01C701B6010E94A1966B017C01D8
:104E50006091010A7091020A072E000C880B990BD1
:104E60000E94C1952BEC31E840E85BE30E94A196DB
:104E70004B015C016091FF097091000A072E000C44
:104E8000880B990B0E94C1959B01AC01C501B4012F
:104E90000E94A1964B015C016091FD097091FE0991
:104EA000072E000C880B990B0E94C1959B01AC0149
:104EB000C501B4010E94A1969B01AC01C701B601D6
:104EC0000E9426950E94FA9420EE3EE245E652E4C6
:104ED0000E94A196FF90EF90DF90CF90BF90AF908F
:104EE0009F908F9008952F923F924F925F926F9272
:104EF0007F928F929F92AF92BF92CF92DF92EF926A
:104F0000FF920F931F93CF93DF9380911402813010
:104F100009F0F0C18091C411811104C086E0809332
:104F200014020BC0E0910D028091C31181111CC0CD
:104F3000E130B1F489E180930D02DF91CF911F91AF
:104F40000F91FF90EF90DF90CF90BF90AF909F9028
:104F50008F907F906F905F904F903F902F90CDC932
:104F6000E150E0930D02E9CFE150E93130F7F0E094
:104F70008827E254F84D8F4F0C942B98D727EA27B7
:104F8000FD27102823283228452858286B287A28FE
:104F900083289128AC28BF28DA28ED28FB28092986
:104FA00018292729362945295429632972298091EE
:104FB000290290912A028D3F2FE392070CF0BDCF7A
:104FC000BC016E5F7F4F0E94170490932A0280936A
:104FD0002902B3CF8091050A9091060A8F3FEFE72F
:104FE0009E0709F4AACFBC016F5F7F4F0E94170490
:104FF0009093060A8093050AA0CF8091010A9091B0
:10500000020A8F3FFFE79F0709F497CFBC016F5F4C
:105010007F4F0E9417049093020A8093010A8DCF5C
:105020008091030A9091040A8F3F2FE7920709F4B9
:1050300084CFBC016F5F7F4F0E9417049093040AD6
:105040008093030A7ACF80910E0290910F028F3FD6
:10505000EFE79E0709F471CF019690930F028093BA
:105060000E026BCF8091FF099091000A8F3FFFE7FE
:105070009F0709F462CFBC016F5F7F4F0E94170446
:105080009093000A8093FF0958CF8091070A90916E
:10509000080A8F3F2FE7920709F44FCFBC016F5FDB
:1050A0007F4F0E9417049093080A8093070A45CF08
:1050B0008091FD099091FE098F3FEFE79E0709F46B
:1050C0003CCFBC016F5F7F4F0E9417049093FE0995
:1050D0008093FD0932CF80912002909121028F3F71
:1050E000FFE79F0709F429CF01969093210280934F
:1050F000200223CF8091FC098F3F09F41ECF8F5FE0
:105100008093FC091ACF80912C0290912D028F3F41
:1051100091050CF012CF019690932D0280932C02F2
:105120000CCF80912702909128028F3F2FE79207A2
:1051300009F403CFBC016F5F7F4F209117023091BC
:105140001802621773070CF0F8CE0E9417049093B0
:10515000280280932702F1CE8091170290911802C5
:105160008F3FEFE79E0709F4E8CEBC016F5F7F4FEA
:105170000E9417049093180280931702DECE80914C
:105180002E0290912F028F3FFFE79F0709F4D5CEA3
:10519000BC016F5F7F4F2091190230911A02621794
:1051A00073070CF0CACE0E94170490932F028093CD
:1051B0002E02C3CE8091190290911A028F3F2FE7E1
:1051C000920709F4BACEBC016F5F7F4F0E941704AB
:1051D00090931A0280931902B0CE8091B6049091F8
:1051E000B7048E3F91050CF0A8CE01969093B704BA
:1051F0008093B604A2CE8091B8049091B9048E3FFA
:1052000091050CF09ACE01969093B9048093B8045E
:1052100094CE8091FA099091FB098F3FEFE79E07AA
:1052200009F48BCE01969093FB098093FA0985CE01
:1052300080910B0290910C028F3FFFE79F0709F4CA
:105240007CCE019690930C0280930B0276CE8091D7
:10525000090290910A028F3F2FE7920709F46DCE61
:10526000019690930A028093090267CE809107020B
:10527000909108028F3FEFE79E0709F45ECE0196FA
:10528000909308028093070258CE80910502909176
:1052900006028F3FFFE79F0709F44FCE01969093D8
:1052A00006028093050249CE809103029091040288
:1052B0008F3F2FE7920709F440CE019690930402A6
:1052C000809303023ACE80910102909102028F3FB7
:1052D000EFE79E0709F431CE019690930202809386
:1052E00001022BCE80910002811127CE81E08093B4
:1052F000000223CE823009F0A4C08091C111811137
:1053000010C08091B411882351F08091C21188237C
:1053100021F081508093C21110CE82E3FBCF81E057
:10532000FECD0091C211C0911502D0911602202E1F
:10533000312CFAE10F9F8001112409531B4FBE014C
:1053400090E080E00E94BF9527E137EB41ED58E304
:105350000E94A196F80125853685478550890E94CF
:1053600096946B017C0160E070E080E89FE30E940E
:10537000B8062B013C0160E070E080E89FE30E94EA
:105380004D064B015C0120E030E040E051E4C701F4
:10539000B6010E94229518160CF450C0A301920188
:1053A000C701B6010E94229587FF18C0A50194018C
:1053B000C701B6010E94229587FF10C0F801C5867B
:1053C000D686E786F08ACB3EFFE7DF0708F0B5CD4B
:1053D0006496D0931602C0931502AFCD0E940904C3
:1053E0008AE1829DE001839DD00D1124C953DB4FDA
:1053F000A30192016D857E858F8598890E9496967E
:10540000181624F44D865E866F86788A8AE1829D1E
:10541000E001839DD00D1124C953DB4FA5019401F8
:105420006D857E858F8598890E94969618160CF05A
:1054300084CD8D869E86AF86B88A7FCD0E94090472
:105440007CCD833009F00EC18091BF11811114C051
:105450008091BE118111C6C08091B311882351F093
:105460008091C011882321F081508093C01165CDB7
:1054700081E2FBCF82E053CDC091C01100911502B3
:105480001091160223E1C29FE0011124C05DDD4F9F
:10549000B80190E080E00E94BF9527E137EB41ED35
:1054A00058E30E94A1962A853B854C855D850E9424
:1054B00096946B017C0120E030E04EE753E40E94BB
:1054C000229518160CF4BACF6091070A7091080A59
:1054D000072E000C880B990B0E94C19520E030E04C
:1054E00040E850E40E94A1964B015C016091050ADE
:1054F0007091060A072E000C880B990B0E94C1952B
:105500009B01AC01C501B4010E94A1964B015C0155
:105510006091030A7091040A072E000C880B990B06
:105520000E94C1959B01AC01C501B4010E94A196E6
:105530004B015C016091010A7091020A072E000C78
:10554000880B990B0E94C1952BEC31E840E85BE396
:105550000E94A1962B013C016091FF097091000A05
:10556000072E000C880B990B0E94C1959B01AC0182
:10557000C301B2010E94A1962B013C016091FD097B
:105580007091FE09072E000C880B990B0E94C195A3
:105590009B01AC01C301B2010E94A1969B01AC0129
:1055A000C501B4010E9426952E853F8548895989F9
:1055B0000E94A1969B01AC01C701B6010E942295F1
:1055C00087FF3CCFCA86DB86EC86FD860B3E8FE7E5
:1055D000180708F0B2CC0C5E1F4F10931602009310
:1055E0001502ABCCF9DB4B015C01C091C0110091FD
:1055F000150210911602E3E1CE9FE0011124C05D77
:10560000DD4FB80190E080E00E94BF952AE037EDC1
:1056100043E25CE30E94A1962A853B854C855D852B
:105620000E9496946B017C012DEC3CEC43EB52E420
:105630000E94229518160CF401CFA7019601C5010E
:10564000B4010E94969618160CF0F8CECA86DB8636
:10565000EC86FD860A3FFFE71F0708F06ECC0B5F64
:105660001F4FBBCF843011F483E059CC853011F447
:1056700084E055CC863009F060CC85E050CCCF93E7
:10568000DF93EC0160E08E810E94790361E08E81FE
:105690000E94790360E08E810E9479038BE891E09B
:1056A0000197F1F7DF91CF910895CF92DF92EF92BA
:1056B000FF920F931F93CF93DF936C017C0187E0E0
:1056C000E80EF11CD0E0C0E0062F10E0B8010C2E6F
:1056D00002C0759567950A94E2F76170F7018191B0
:1056E0007F010E9479032196C430D10579F7C60164
:1056F000DF91CF911F910F91FF90EF90DF90CF90AE
:10570000BECFCF92DF92EF92FF920F931F93CF9372
:10571000DF93EC01F62E642F8C810E9479038D813A
:105720008F3F19F060E00E9479030F2D10E08F8504
:1057300084FF24C06E0187E0C80ED11CF12CE12C3F
:10574000B8010E2C02C0759567950A94E2F7617056
:10575000F60181916F010E947903FFEFEF1AFF0AB2
:1057600088E0E816F10461F7CE01DF91CF911F9137
:105770000F91FF90EF90DF90CF9081CFB80184E040
:10578000759567958A95E1F7CE018FDF6F2DCE0174
:10579000DF91CF911F910F91FF90EF90DF90CF900D
:1057A00084CF41E0AEDF81E090E0089540E0A9CFF2
:1057B0000F931F93CF93DF93EC01623019F48F8521
:1057C00088608F876B8B1C8A80E48D8B80E18E8B49
:1057D00080E58F8B8C810E947D028D818F3F11F03F
:1057E0000E947D028E810E947D028E0198012C1BF9
:1057F0003D0B8F8584FD0CC084E090E00F5F1F4F50
:105800002817390744F4F80186810E947D02EECF03
:1058100088E090E0F3CF8BE39DE00197F1F760E043
:105820008C810E94790360E08E810E9479038D81D2
:105830008F3F19F060E00E9479036F8564FD31C0ED
:1058400063E0CE0132DF0BE416E4C8010197F1F703
:1058500063E0CE012ADFC8010197F1F763E0CE01D2
:1058600024DF83E592E00197F1F762E0CE011DDFCE
:105870006F856062CE019ADF84E0888B6CE0CE0198
:1058800095DF61E0CE0192DF8BE39FE10197F1F7B5
:1058900082E0898B66E0CE01DF91CF911F910F915D
:1058A00085CF6062CE0182DF8BE496E40197F1F749
:1058B0006F856062CE017ADF83E592E00197F1F7B0
:1058C0006F856062CE0172DFD3CF809379126093CF
:1058D0007A12643008F063E090917112691710F049
:1058E0006FEF690FE62FF0E0E25AFD4E6489680F12
:1058F00060688EE592E15ACFCF92DF92EF92FF92ED
:105900000F931F93CF93DF93FB0120812F3F09F06B
:1059100045C08B017C01D0907912C0907A126091C1
:1059200077126770F8E06F9FB001112460648EE514
:1059300092E13CDFE70188E0E80EF11C69918EE519
:1059400092E12FDFEC16FD06C9F76C2D8D2DBDDF22
:10595000609177128EE592E124DF80917712F80151
:1059600080838091771290917812019690937812AB
:1059700080937712209176122817190609F0D4F433
:105980001092781210927712DF91CF911F910F91A0
:10599000FF90EF90DF90CF900C945502622F8EE530
:1059A00092E1DF91CF911F910F91FF90EF90DF90E7
:1059B000CF90F7CEDF91CF911F910F91FF90EF9095
:1059C000DF90CF9008954F925F926F927F928F9267
:1059D0009F92AF92BF92CF92DF92EF92FF920F937E
:1059E0001F93CF93DF93CDB7DEB768970FB6F894C8
:1059F000DEBF0FBECDBF7C01FC0101900020E9F7A6
:105A000031976F01C81AD90A10E000E084E792E0EC
:105A10009C01990F440B550B29873A874B875C876C
:105A20008CE792E09C01990F440B550B2D873E8724
:105A30004F87588B84E892E09C01990F440B550BDB
:105A4000298B3A8B4B8B5C8B8CE892E09C01990FF5
:105A5000440B550B2D8B3E8B4F8B588F84E992E076
:105A60004C01990FAA08BB088CE992E02C01990F10
:105A7000660877080C151D050CF066C2F701E00FEB
:105A8000F11F6081062E000C770BCB01807C9927DB
:105A9000803C910509F05BC0818187FF58C096E08A
:105AA000660F771F9A95E1F7607C77708F73682B8C
:105AB00082E0080F111DFB01E151F440EF33F105C5
:105AC00008F03DC28827E859F24D8F4F0C942B986F
:105AD000A92D9F2FC02DCF2D9F2FDE2DED2DFC2D1D
