:10000000F5C000000C947D360C9469360C94833056
:100010001EC100001CC100001AC1000018C1000070
:1000200016C1000014C1000012C1000010C1000080
:100030000EC100000C941A330C945E3208C100000B
:1000400006C1000004C1000002C1000000C10000A0
:10005000FEC00000FCC000000C9473360C942D2EE2
:10006000F6C00000F4C00000F2C00000F0C00000C4
:10007000EEC00000ECC00000EAC00000E8C00000D4
:100080000C947D2F0C94772EE2C00000E0C000009D
:10009000DEC00000DCC00000DAC00000D8C00000F4
:1000A000D6C00000D4C000000C948C310C94BA303F
:1000B000CEC00000CCC00000CAC000000C942035A7
:1000C0000C942934C4C00000C2C00000C0C00000AD
:1000D000BEC00000BCC00000BAC00000B8C0000034
:1000E000B6C0000000000A0B02090C0D0E08070341
:1000F00004010000000000000000000000000000FB
:1001000000000000000000000000000000000000EF
:1001100012111000000000000000000000000000AC
:100120000000000000000000000000002200250088
:1001300028002B002E0031003400020100000501D0
:1001400008010B0100002100240027002A002D00D7
:100150003000330001010000040107010A01050518
:100160000505070508080808020202020A0A08082D
:10017000040404040101010101010101030303035B
:1001800003030303040707070C0C0C0C0C0C0C0CEA
:100190000202020206060606060606060B0B0B0BFB
:1001A0000B0B0B0B01021020200808102040102020
:1001B000408002010201080402010102040810202B
:1001C0004080804020100804020180040201804029
:1001D0002010080402010804020101020408102092
:1001E000408001020408102040808C4A11241FBE68
:1001F000CFEFD1E2DEBFCDBF00E00CBF19E0A0E041
:10020000B2E0EAE3F1EA00E00BBF02C007900D9212
:10021000AE32B107D9F72AE0AEE2B9E001C01D92D3
:10022000AC31B207E1F710E0C6EFD0E000E006C065
:1002300021970109802FFE010E94924DC53FD107F1
:1002400080E00807A9F70E9476380C949B50D8CE1E
:1002500090E0FC01EC55FE4F2491825A9E4FFC0128
:100260008491882399F090E0880F991FFC01EC5B42
:10027000FE4FA591B491FC01E65DFE4F85919491EE
:100280008FB7F894EC91E22BEC938FBF0895AF9267
:10029000BF92CF92DF92EF92FF920F931F93CF9373
:1002A000DF936C017B018B01040F151FEB015E01D5
:1002B000AE18BF08C017D10759F06991D601ED916A
:1002C000FC910190F081E02DC6011995892B79F7F9
:1002D000C501DF91CF911F910F91FF90EF90DF90BB
:1002E000CF90BF90AF900895282F30E0F901EC51E6
:1002F000FF4F9491F901EC55FE4F4491225A3E4F25
:10030000F9012491222309F435C0992311F1915068
:100310009231F8F4E92FF0E08827EE56FE4F8F4F28
:100320000C94924DC301C701A401BB01BF01A901F7
:10033000CA01D001D401DA01DE01E201E801EC01D9
:10034000A901F001F601FA01809180008F77809376
:100350008000E22FF0E0EE0FFF1FE65DFE4FA5915B
:10036000B4918FB7F894EC91611148C040954E2339
:100370004C938FBF0895809180008F7DE8CF80914E
:100380008000877FE4CF84B58F7784BDE2CF84B5CA
:100390008F7DFBCF8091B0008F778093B000D9CF55
:1003A0008091B0008F7DF9CF809190008F778093FE
:1003B0009000CFCF809190008F7DF9CF80919000F9
:1003C000877FF5CF8091A0008F778093A000C1CF69
:1003D0008091A0008F7DF9CF8091A000877FF5CF1D
:1003E000809120018F7780932001B3CF80912001ED
:1003F0008F7DF9CF80912001877FF5CF4E2BB8CF2D
:10040000089590E080E008950F931F934091D009E4
:100410005091D1096091D2097091D3098091A009BE
:100420009091A109A091A209B091A309480F591F69
:100430006A1F7B1F8091FC099091FD09A091FE0924
:10044000B091FF09481759076A077B0709F073C085
:100450008091C0099091C109A091C209B091C309CE
:1004600000919C0910919D0920919E0930919F094E
:10047000800F911FA21FB31F0091EA091091EB0991
:100480002091EC093091ED0980179107A207B3077D
:1004900009F051C0209102022A3009F024C12091B4
:1004A000B509222309F447C01092AC091092AD0996
:1004B0001092AE091092AF091092A8091092A909E2
:1004C0001092AA091092AB091092A4091092A509E2
:1004D0001092A6091092A7091092A0091092A109E2
:1004E0001092A2091092A30910929C0910929D09E2
:1004F00010929E0910929F094093D0095093D10900
:100500006093D2097093D3098093C0099093C10975
:10051000A093C209B093C3098AEF90E090930402BC
:100520008093030286E990E0909301028093000299
:1005300081E0809302028091B309882309F462C1AB
:10054000EA988091AC099091AD09A091AE09B09163
:10055000AF098093A8099093A909A093AA09B09321
:10056000AB0984E08CBBEA9A2091A8093091A909D3
:100570004091AA095091AB098091A4099091A509D5
:10058000A091A609B091A709281739074A075B0768
:1005900009F442C02093A4093093A5094093A60909
:1005A0005093A709A0910202B0E00E94B54D9B01B3
:1005B000AC01A0E2B3E00E94B54D26E930E040E096
:1005C00050E00E94764D2E5F3F4F4F4F5F4F2C7F84
:1005D0002093A0093093A1094093A2095093A30945
:1005E00080910302909104020196209100023091C3
:1005F0000102821B930B9093F7098093F609809177
:1006000071008B7F8093710010929500109294007E
:1006100082E088BB809371008091D0099091D109CC
:10062000A091D209B091D3094091A0095091A1099C
:100630006091A2097091A309840F951FA61FB71F8F
:100640004091FC095091FD096091FE097091FF09EC
:10065000481759076A077B070CF093C0F1988091FF
:100660000B018F7B80930B014091F6095091F709A4
:10067000052E000C660B770B8091D0099091D10963
:10068000A091D209B091D3090091A0091091A109BC
:100690002091A2093091A309800F911FA21FB31FBF
:1006A000841B950BA60BB70B80932E0990932F09F3
:1006B000A0933009B09331098091280290912902CA
:1006C000A0912A02B0912B02841B950BA60BB70BAD
:1006D0008093F2099093F309A093F409B093F5097C
:1006E0001F910F910895213009F025CF2091B40971
:1006F000222309F420CF1092AC091092AD09109278
:10070000AE091092AF091092A8091092A90910928F
:10071000AA091092AB091092A4091092A50910928F
:10072000A6091092A7091092A0091092A10910928F
:10073000A2091092A30910929C0910929D0910928F
:100740009E0910929F094093D0095093D10960935C
:10075000D2097093D3098093C0099093C109A093E3
:10076000C209B093C30986E990E090930402809394
:10077000030287E190E090930102809300028AE0F7
:10078000D8CE84179507A607B7070CF0A9CFF19A22
:1007900080910B01806480930B018091F609909108
:1007A000F709092E000CAA0BBB0B4091D009509100
:1007B000D1096091D2097091D3090091A0091091DB
:1007C000A1092091A2093091A309400F511F621F76
:1007D000731F480F591F6A1F7B1F40932E095093A8
:1007E0002F09609330097093310940912102509193
:1007F00022026091230270912402840F951FA61F8C
:10080000B71F66CF8091B209882309F469CFEA98AF
:100810008091AC099091AD09A091AE09B091AF095A
:100820004091AC095091AD096091AE097091AF094A
:10083000440F551F661F771F841B950BA60BB70B24
:100840008093A8099093A909A093AA09B093AB0932
:10085000E4E0ECBBEA9A2091A8093091A909409103
:10086000AA095091AB098091A4099091A509A09182
:10087000A609B091A709281739074A075B07B9F1FC
:100880002093A4093093A5094093A6095093A70982
:10089000A0910202B0E00E94B54D23E0660F771FE1
:1008A000881F991F2A95D1F760939C0970939D0921
:1008B00080939E0990939F09809103029091040276
:1008C00001962091000230910102821B930B9093BC
:1008D000F7098093F609809171008D7F80937100F4
:1008E0001092950010929400E8BBE0937100809103
:1008F000C0099091C109A091C209B091C30940916A
:100900009C0950919D0960919E0970919F09840FE7
:10091000951FA61FB71F4091EA095091EB096091FE
:10092000EC097091ED09481759076A077B077CF5B8
:10093000F49880910B018F7D80930B018091C00909
:100940009091C109A091C209B091C30940919C093D
:1009500050919D0960919E0970919F09840F951F88
:10096000A61FB71F4091F6095091F709052E000CFC
:10097000660B770B841B950BA60BB70B80932E0988
:1009800090932F09A0933009B0933109A9CE841711
:100990009507A607B7070CF0A3CEF49A80910B0138
:1009A000806280930B018091C0099091C109A09150
:1009B000C209B091C30940919C0950919D09609171
:1009C0009E0970919F09840F951FA61FB71F409124
:1009D000F6095091F709052E000C660B770B840F72
:1009E000951FA61FB71FCACFCF92DF92EF92FF923B
:1009F0001092F00981E08093EF09E091030A29E069
:100A0000E29FF0011124E855F94F80818093020A9A
:100A1000818192819093010A8093000AC0902802FC
:100A2000D0902902E0902A02F0902B02B701A60193
:100A30004C535109610971098091FC099091FD099C
:100A4000A091FE09B091FF0984179507A607B70783
:100A50000CF0B0C02091FA093091FB09A0E2B3E09C
:100A60000E94A04D26E930E040E050E00E94544D45
:100A700064E873E080E090E00E94544D3093F909FF
:100A80002093F8092E31310568F48EE190E09093BF
:100A9000270280932602F3990DC090932901809339
:100AA000280108C0309327022093260230932901A1
:100AB000209328018091260290912702019620918F
:100AC000F8093091F909821B930B9093F7098093F1
:100AD000F609092E000CAA0BBB0BC81AD90AEA0AA0
:100AE000FB0AC092F209D092F309E092F409F09265
:100AF000F509F19880910B018F7B80930B01809118
:100B0000090184FD0EC080910B01806180930B016F
:100B10008FEF9BED25E0815090402040E1F700C031
:100B2000000080912502843009F04FC0F498809134
:100B30000B018F7D80930B018091090183FD0EC015
:100B400080910B01886080930B018FEF9BED25E076
:100B5000815090402040E1F700C0000081E0809388
:100B6000F109F69AF29AE898809170008D7F80934F
:100B70007000809170008B7F809370008091720074
:100B80008D7F80937200809172008B7F80937200C2
:100B9000809173008B7F80937300109225011092D7
:100BA000240182E08ABB80937300FF90EF90DF9076
:100BB000CF9008958EE190E09093F9098093F80921
:100BC000909327028093260268CF853009F0B4CF36
:100BD000F49A80910B018062ADCFCF92DF92EF92B9
:100BE000FF921092F00981E08093EF09E091030AEF
:100BF00029E0E29FF0011124E855F94F80818093AC
:100C0000020A818192819093010A8093000AC09028
:100C10002102D0902202E0902302F0902402B7013A
:100C2000A601445C5F4F6F4F7F4F8091FC0990910C
:100C3000FD09A091FE09B091FF09481759076A07FD
:100C40007B070CF0B0C02091FA093091FB09A0E2BB
:100C5000B3E00E94A04D26E930E040E050E00E9461
:100C6000544D64E873E080E090E00E94544D30936E
:100C7000F9092093F8092E31310568F48EE190E0EE
:100C80009093270280932602F3990DC09093290137
:100C90008093280108C030932702209326023093C6
:100CA0002901209328018091260290912702019624
:100CB0002091F8093091F909821B930B9093F70961
:100CC0008093F609092E000CAA0BBB0B8C0D9D1D01
:100CD000AE1DBF1D8093F2099093F309A093F40910
:100CE000B093F509F19A80910B01806480930B0118
:100CF0008091090184FD0EC080910B018061809379
:100D00000B018FEF9BED25E0815090402040E1F7F3
:100D100000C0000080912502843009F04FC0F49A91
:100D200080910B01806280930B018091090183FD0A
:100D30000EC080910B01886080930B018FEF9BEDBB
:100D400025E0815090402040E1F700C0000081E0A4
:100D50008093F109F69AF29AE898809170008D7F5D
:100D600080937000809170008B7F809370008091E1
:100D700072008D7F80937200809172008B7F8093D0
:100D80007200809173008B7F809373001092250115
:100D90001092240182E08ABB80937300FF90EF9051
:100DA000DF90CF9008958EE190E09093F9098093C1
:100DB000F809909327028093260268CF853009F0C6
:100DC000B4CFF49880910B018F7DADCFCF92DF929D
:100DD000EF92FF921092F00981E08093EF09F5986D
:100DE0001092EE09C0902802D0902902E0902A02C9
:100DF000F0902B02B701A60148535109610971090E
:100E00008091FC099091FD09A091FE09B091FF0924
:100E100084179507A607B7070CF0A8C06091FA09D8
:100E20007091FB0990E080E00E94D64B20E030E01A
:100E300048E454E40E94644C20E030E046E153E48E
:100E40000E943D4B9B01AC0160E070E081EE94E4B8
:100E50000E943D4B20E030E040E05FE30E94644CA4
:100E600020E030E040E05FE30E94D94A0E94AA4BB4
:100E70007093F9096093F8096C31710568F48CE19D
:100E800090E09093270280932602F3990DC09093EF
:100E900029018093280108C07093270260932602DD
:100EA0007093290160932801809126029091270276
:100EB00001962091F8093091F909821B930B9093C8
:100EC000F7098093F609092E000CAA0BBB0BC81A70
:100ED000D90AEA0AFB0AC092F209D092F309E09219
:100EE000F409F092F509F19880910B018F7B8093C2
:100EF0000B018091090184FD0EC080910B0180617E
:100F000080930B012FEF8BED95E0215080409040B6
:100F1000E1F700C0000081E08093F109F29AE898BF
:100F2000809170008D7F80937000809170008B7F26
:100F300080937000809172008D7F80937200809109
:100F400072008B7F80937200809173008B7F8093FF
:100F50007300109225011092240182E08ABB8093D5
:100F60007300FF90EF90DF90CF9008958CE190E0B8
:100F70009093F9098093F8099093270280932602B1
:100F800086CF8091EF09811101C020CF0895CF92C3
:100F9000DF92EF92FF921092F00981E08093EF09C7
:100FA000F5981092EE09C0902102D0902202E090B4
:100FB0002302F0902402B701A601485C5F4F6F4FF7
:100FC0007F4F8091FC099091FD09A091FE09B0919D
:100FD000FF09481759076A077B070CF0A8C0609102
:100FE000FA097091FB0990E080E00E94D64B20E066
:100FF00030E048E454E40E94644C20E030E046E1F4
:1010000053E40E943D4B9B01AC0160E070E081EE37
:1010100094E40E943D4B20E030E040E05FE30E941A
:10102000644C20E030E040E05FE30E94D94A0E9437
:10103000AA4B7093F9096093F8096C31710568F453
:101040008CE190E09093270280932602F3990DC0E3
:10105000909329018093280108C070932702609320
:1010600026027093290160932801809126029091B5
:10107000270201962091F8093091F909821B930B00
:101080009093F7098093F609092E000CAA0BBB0B6D
:101090008C0D9D1DAE1DBF1D8093F2099093F30929
:1010A000A093F409B093F509F19A80910B01806443
:1010B00080930B018091090184FD0EC080910B018A
:1010C000806180930B012FEF8BED95E021508040E4
:1010D0009040E1F700C0000081E08093F109F29AAE
:1010E000E898809170008D7F8093700080917000EF
:1010F0008B7F80937000809172008D7F809372004F
:10110000809172008B7F80937200809173008B7F3F
:1011100080937300109225011092240182E08ABB13
:1011200080937300FF90EF90DF90CF9008958CE153
:1011300090E09093F9098093F809909327028093A7
:10114000260286CF8091EF09811101C020CF08953A
:10115000CF92DF92EF92FF921092F00981E080939C
:10116000EF09F2981092F109C0901D02D0901E0272
:10117000E0901F02F0902002B701A60146525109EB
:10118000610971098091EA099091EB09A091EC093C
:10119000B091ED0984179507A607B7070CF0A8C012
:1011A0006091FA097091FB0990E080E00E94D64BB3
:1011B00020E030E048E454E40E94644C20E030E059
:1011C00048EC52E40E943D4B9B01AC0160E070E0B2
:1011D00081EE94E40E943D4B20E030E040E05FE38C
:1011E0000E94644C20E030E040E05FE30E94D94A76
:1011F0000E94AA4B7093F9096093F8096331710555
:1012000068F483E190E09093270280932602F69998
:101210000DC0909329018093280108C07093270284
:101220006093260270932901609328018091260221
:101230009091270201962091F8093091F909821BBB
:10124000930B9093F7098093F609092E000CAA0BD3
:10125000BB0BC81AD90AEA0AFB0AC092F209D0925B
:10126000F309E092F409F092F509F49880910B01EA
:101270008F7D80930B018091090183FD0EC08091C9
:101280000B01886080930B012FEF8BED95E02150CF
:1012900080409040E1F700C0000081E08093EE09BB
:1012A000F59AE898809170008D7F8093700080910E
:1012B00070008B7F80937000809172008D7F80938F
:1012C0007200809172008B7F809372008091730016
:1012D0008D7F80937300109225011092240184E089
:1012E0008ABB80937300FF90EF90DF90CF900895BA
:1012F00083E190E09093F9098093F8099093270295
:101300008093260286CF8091EF09811101C020CF02
:101310000895CF92DF92EF92FF921092F00981E050
:101320008093EF09F2981092F109C0901902D090C1
:101330001A02E0901B02F0901C02B701A6014A5D60
:101340005F4F6F4F7F4F8091EA099091EB09A09119
:10135000EC09B091ED09481759076A077B070CF0B3
:10136000A8C06091FA097091FB0990E080E00E94AA
:10137000D64B20E030E048E454E40E94644C20E086
:1013800030E048EC52E40E943D4B9B01AC0160E030
:1013900070E081EE94E40E943D4B20E030E040E0BC
:1013A0005FE30E94644C20E030E040E05FE30E9495
:1013B000D94A0E94AA4B7093F9096093F8096331E6
:1013C000710568F483E190E09093270280932602F0
:1013D000F6990DC0909329018093280108C070935D
:1013E000270260932602709329016093280180915F
:1013F00026029091270201962091F8093091F9096F
:10140000821B930B9093F7098093F609092E000C29
:10141000AA0BBB0B8C0D9D1DAE1DBF1D8093F20949
:101420009093F309A093F409B093F509F49A80918D
:101430000B01806280930B018091090183FD0EC036
:1014400080910B01886080930B012FEF8BED95E06D
:10145000215080409040E1F700C0000081E080937F
:10146000EE09F59AE898809170008D7F8093700066
:10147000809170008B7F80937000809172008D7FCF
:1014800080937200809172008B7F809372008091B4
:1014900073008D7F809373001092250110922401B8
:1014A00084E08ABB80937300FF90EF90DF90CF9031
:1014B000089583E190E09093F9098093F80990935F
:1014C00027028093260286CF8091EF09811101C007
:1014D00020CF08950F931F931092E20981E080932B
:1014E000E309F598409128025091290260912A025F
:1014F00070912B028A019B01085C110921093109B5
:101500008091FC099091FD09A091FE09B091FF091D
:10151000E091180280179107A207B3070CF05AC098
:101520002AE1E29FD0011124A65BBD4F8C918093EC
:10153000E90990911702891729F0875E80931602B6
:101540008093170285E690E09093F7098093F6095F
:101550008AE1E89FF0011124E65BFD4F81819281D1
:101560009093E8098093E7091092E6091092E50943
:101570001092E4098091F6099091F709092E000C68
:10158000AA0BBB0B481B590B6A0B7B0B4093F20950
:101590005093F3096093F4097093F509F1988091E1
:1015A0000B018F7B80930B018091090184FD0EC09C
:1015B00080910B01806180930B019FEF2BED85E003
:1015C000915020408040E1F700C00000F29A1F9146
:1015D0000F91089584E38093E90980931602809324
:1015E000170281E090E0B0CF0F931F931092E309B0
:1015F00081E08093E209F598409121025091220206
:1016000060912302709124028091FC099091FD0960
:10161000A091FE09B091FF098A019B0108531F4F59
:101620002F4F3F4FE0911802081719072A073B0771
:1016300034F0481759076A077B070CF45AC02AE1AF
:10164000E29FD0011124A65BBD4F8C918093E909E4
:1016500090911702891729F0875E80931602809374
:10166000170285E690E09093F7098093F6098AE1E6
:10167000E89FF0011124E65BFD4F818192819093F8
:10168000E8098093E7091092E6091092E5091092A3
:10169000E4098091F6099091F709092E000CAA0B34
:1016A000BB0B840F951FA61FB71F8093F209909361
:1016B000F309A093F409B093F509F19A80910B0115
:1016C000806480930B018091090184FD0EC080919C
:1016D0000B01806180930B019FEF2BED85E0915012
:1016E00020408040E1F700C00000F29A1F910F9166
:1016F000089584E38093E90980931602809317028A
:1017000081E090E0B0CF8F929F92AF92BF92CF9244
:10171000DF92EF92FF92CF93DF931092E20981E084
:101720008093E309F298C0901D02D0901E02E090D1
:101730001F02F0902002B701A601485C510961091F
:1017400071098091EA099091EB09A091EC09B0919F
:10175000ED0984179507A607B7070CF097C080918D
:10176000180290E020911502223009F060C02AE1B1
:10177000289FF001299FF00D1124E65BFD4F838126
:101780008093E909848195819093E8098093E70922
:101790008091E90990911702981729F0875E80934C
:1017A00016028093170285E690E09093F7098093E4
:1017B000F6091092E6091092E5091092E409809169
:1017C000F6099091F709092E000CAA0BBB0BC81A59
:1017D000D90AEA0AFB0AC092F209D092F309E09210
:1017E000F409F092F509F49880910B018F7D8093B4
:1017F0000B018091090183FD0EC080910B0188606F
:1018000080930B012FEF8BED95E0215080409040AD
:10181000E1F700C00000F59ADF91CF91FF90EF90C3
:10182000DF90CF90BF90AF909F908F9008952AE166
:10183000289FE001299FD00D1124C65BDD4F6981EF
:101840007A8168577C4E072E000C880B990B0E94FA
:10185000D84B20E030E44CE156E40E943D4B4B0174
:101860005C01688170E090E080E00E94D84B9B01B1
:10187000AC01C501B4010E94D94A0E94AA4B6093F1
:10188000E9091092E8091092E70982CF8BE2809370
:10189000E9091092E8091092E709809316028093F3
:1018A000170281E090E081CF8091E309811101C0AE
:1018B0002ACF08958F929F92AF92BF92CF92DF92DC
:1018C000EF92FF92CF93DF931092E30981E0809330
:1018D000E209F298C0901902D0901A02E0901B021F
:1018E000F0901C02B701A60148535F4F6F4F7F4F26
:1018F0008091EA099091EB09A091EC09B091ED0972
:10190000481759076A077B070CF097C080911802A7
:1019100090E020911502223009F060C02AE1289F52
:10192000F001299FF00D1124E65BFD4F8381809328
:10193000E909848195819093E8098093E709809172
:10194000E90990911702981729F0875E8093160293
:101950008093170285E690E09093F7098093F6094B
:101960001092E6091092E5091092E4098091F609B7
:101970009091F709092E000CAA0BBB0B8C0D9D1D35
:10198000AE1DBF1D8093F2099093F309A093F40953
:10199000B093F509F49A80910B01806280930B015A
:1019A0008091090183FD0EC080910B0188608093B6
:1019B0000B012FEF8BED95E0215080409040E1F737
:1019C00000C00000F59ADF91CF91FF90EF90DF907B
:1019D000CF90BF90AF909F908F9008952AE1289F5D
:1019E000E001299FD00D1124C65BDD4F69817A810A
:1019F00068577C4E072E000C880B990B0E94D84B21
:101A000020E030E44CE156E40E943D4B4B015C0188
:101A1000688170E090E080E00E94D84B9B01AC01AF
:101A2000C501B4010E94D94A0E94AA4B6093E909FA
:101A30001092E8091092E70982CF8BE28093E909BE
:101A40001092E8091092E70980931602809317021A
:101A500081E090E081CF8091E209811101C02ACF1D
:101A60000895CF92DF92EF92FF921092F00981E0F9
:101A70008093EF09F5981092EE09C0902802D0905B
:101A80002902E0902A02F0902B02B701A601465DE0
:101A90005140610971098091FC099091FD09A09163
:101AA000FE09B091FF0984179507A607B7070CF048
:101AB00098C02091E0093091E109A0E2B3E00E94D2
:101AC000A04D2AE530E040E050E00E94544D220F46
:101AD000331F441F551F60E970ED83E090E00E94C2
:101AE000544D215031093093DF092093DE092B3EFC
:101AF000310568F48BEE90E090931402809313020A
:101B0000F3990DC09093A9008093A80008C030936A
:101B10001402209313023093A9002093A80080910F
:101B200013029091140201962091DE093091DF0991
:101B3000821B930B9093F7098093F609092E000CF2
:101B4000AA0BBB0BC81AD90AEA0AFB0AC092F2090F
:101B5000D092F309E092F409F092F509F19880919E
:101B60000B018F7B80930B018091090184FD0EC0D6
:101B700080910B01806180930B012FEF8BED95E03D
:101B8000215080409040E1F700C0000081E0809348
:101B9000F109F29AE898809170008D7F809370002F
:101BA000809170008B7F80937000809172008B7F9A
:101BB00080937200809173008D7F80937300809179
:101BC00073008B7F809373001092A5001092A40085
:101BD00082E089BB80937200FF90EF90DF90CF90FE
:101BE00008958BEE90E09093DF098093DE09909347
:101BF00014028093130286CFCF92DF92EF92FF926E
:101C00001092F00981E08093EF09F5981092EE09A7
:101C1000C0902102D0902202E0902302F090240292
:101C2000B701A6014A525E4F6F4F7F4F8091FC096A
:101C30009091FD09A091FE09B091FF09481759073D
:101C40006A077B070CF098C02091E0093091E10908
:101C5000A0E2B3E00E94A04D2AE530E040E050E071
:101C60000E94544D220F331F441F551F60E970ED31
:101C700083E090E00E94544D215031093093DF09F8
:101C80002093DE092B3E310568F48BEE90E09093B3
:101C9000140280931302F3990DC09093A9008093CE
:101CA000A80008C030931402209313023093A900B7
:101CB0002093A80080911302909114020196209124
:101CC000DE093091DF09821B930B9093F709809313
:101CD000F609092E000CAA0BBB0B8C0D9D1DAE1D29
:101CE000BF1D8093F2099093F309A093F409B09378
:101CF000F509F19A80910B01806480930B0180912A
:101D0000090184FD0EC080910B01806180930B015D
:101D10002FEF8BED95E0215080409040E1F700C01F
:101D2000000081E08093F109F29AE89880917000B8
:101D30008D7F80937000809170008B7F8093700006
:101D4000809172008B7F80937200809173008D7FF1
:101D500080937300809173008B7F80937300109247
:101D6000A5001092A40082E089BB80937200FF90CE
:101D7000EF90DF90CF9008958BEE90E09093DF0985
:101D80008093DE09909314028093130286CF809192
:101D9000F00981117EC01092EF0981E08093F00973
:101DA00089E592E09093F7098093F60980912802E3
:101DB00090912902A0912A02B0912B02895592405C
:101DC000A109B1098093F2099093F309A093F40952
:101DD000B093F5091092DD091092DC091092DB092D
:101DE000F19880910B018F7B80930B018091090109
:101DF00084FD0EC080910B01806180930B012FEF59
:101E00008BED95E0215080409040E1F700C000004C
:101E1000809125028430F1F5F49880910B018F7D3B
:101E200080930B018091090183FD0EC080910B010D
:101E3000886080930B012FEF8BED95E0215080405F
:101E40009040E1F700C00000F29A81E08093DA0947
:101E5000F69AE898809170008B7F80937000809153
:101E600072008D7F80937200809172008B7F8093CF
:101E70007200809173008D7F809373008091730056
:101E80008B7F809373001092B20082E087BB8093B7
:101E900070000895853031F6F49A80910B018062CC
:101EA000BFCF8091F00981117EC01092EF0981E0CF
:101EB0008093F00989E592E09093F7098093F60901
:101EC0008091210290912202A0912302B0912402DC
:101ED000875A9D4FAF4FBF4F8093F2099093F309FC
:101EE000A093F409B093F5091092DD091092DC0972
:101EF0001092DB09F19A80910B01806480930B01B1
:101F00008091090184FD0EC080910B018061809356
:101F10000B012FEF8BED95E0215080409040E1F7D1
:101F200000C00000809125028430F1F5F49A809180
:101F30000B01806280930B018091090183FD0EC02B
:101F400080910B01886080930B012FEF8BED95E062
:101F5000215080409040E1F700C00000F29A81E0FB
:101F60008093DA09F69AE898809170008B7F8093CD
:101F70007000809172008D7F80937200809172005A
:101F80008B7F80937200809173008D7F80937300AC
:101F9000809173008B7F809373001092B20082E077
:101FA00087BB809370000895853031F6F498809156
:101FB0000B018F7DBFCF8091F009811160C010921D
:101FC000EF0981E08093F009F5981092EE091092E4
:101FD000D90989E592E09093F7098093F6098091F9
:101FE000280290912902A0912A02B0912B028955D2
:101FF0009240A109B1098093F2099093F309A0934B
:10200000F409B093F509F19880910B018F7B8093CF
:102010000B018091090184FD0EC080910B0180614C
:1020200080930B012FEF8BED95E021508040904085
:10203000E1F700C00000F29A81E08093DA09E898A5
:10204000809170008B7F80937000809172008D7FF3
:1020500080937200809172008B7F809372008091D8
:1020600073008D7F80937300809173008B7F8093CA
:1020700073001092B20082E087BB809370000895D5
:102080008091F009811160C01092EF0981E0809386
:10209000F009F5981092EE091092D90989E592E0BD
:1020A0009093F7098093F609809121029091220282
:1020B000A0912302B0912402875A9D4FAF4FBF4F8A
:1020C0008093F2099093F309A093F409B093F50972
:1020D000F19A80910B01806480930B01809109013A
:1020E00084FD0EC080910B01806180930B012FEF66
:1020F0008BED95E0215080409040E1F700C000005A
:10210000F29A81E08093DA09E898809170008B7FE1
:1021100080937000809172008D7F80937200809117
:1021200072008B7F80937200809173008D7F80930B
:102130007300809173008B7F809373001092B200C4
:1021400082E087BB8093700008958091F00981112F
:1021500060C01092EF0981E08093F009F29810922C
:10216000F1091092DA0989E592E09093F7098093DA
:10217000F60980911D0290911E02A0911F02B0915C
:10218000200289559240A109B1098093F2099093E8
:10219000F309A093F409B093F509F49880910B0129
:1021A0008F7D80930B018091090183FD0EC080918A
:1021B0000B01886080930B012FEF8BED95E0215090
:1021C00080409040E1F700C00000F59A81E08093E4
:1021D000D909E898809170008D7F8093700080917C
:1021E00072008D7F80937200809172008B7F80934C
:1021F0007200809173008D7F8093730080917300D3
:102200008B7F809373001092B20084E087BB809331
:10221000700008958091F009811160C01092EF095B
:1022200081E08093F009F2981092F1091092DA0996
:1022300089E592E09093F7098093F609809119025D
:1022400090911A02A0911B02B0911C02875A9D4FD7
:10225000AF4FBF4F8093F2099093F309A093F40915
:10226000B093F509F49A80910B01806280930B0181
:102270008091090183FD0EC080910B0188608093DD
:102280000B012FEF8BED95E0215080409040E1F75E
:1022900000C00000F59A81E08093D909E898809108
:1022A00070008D7F80937000809172008D7F80938D
:1022B0007200809172008B7F809372008091730016
:1022C0008D7F80937300809173008B7F8093730068
:1022D0001092B20084E087BB809370000895CF9283
:1022E000DF92EF92FF928091EF098111B7C01092B7
:1022F000F00981E08093EF09F2981092F109C09003
:102300001D02D0901E02E0901F02F0902002B70143
:10231000A60148535140610971098091EA099091E1
:10232000EB09A091EC09B091ED0984179507A60778
:10233000B7070CF098C02091E0093091E109A0E2C4
:10234000B3E00E94A04D2CE330E040E050E00E945A
:10235000544D220F331F441F551F60E970ED83E079
:1023600090E00E94544D215031093093DF092093B1
:10237000DE092C39310568F48CE990E09093140261
:1023800080931302F6990DC09093A9008093A80042
:1023900008C030931402209313023093A9002093B5
:1023A000A800809113029091140201962091DE09F9
:1023B0003091DF09821B930B9093F7098093F60904
:1023C000092E000CAA0BBB0BC81AD90AEA0AFB0A91
:1023D000C092F209D092F309E092F409F092F50963
:1023E000F49880910B018F7D80930B0180910901FE
:1023F00083FD0EC080910B01886080930B012FEF4D
:102400008BED95E0215080409040E1F700C0000046
:1024100081E08093EE09F59AE898809170008D7FB5
:1024200080937000809170008B7F8093700080910A
:1024300072008D7F80937200809173008D7F8093F6
:102440007300809173008B7F809373001092A500BE
:102450001092A40084E089BB80937200FF90EF90FB
:10246000DF90CF9008958CE990E09093DF098093FE
:10247000DE09909314028093130286CFCF92DF92ED
:10248000EF92FF928091EF098111B7C01092F0098D
:1024900081E08093EF09F2981092F109C09019023F
:1024A000D0901A02E0901B02F0901C02B701A60126
:1024B000485C5E4F6F4F7F4F8091EA099091EB0926
:1024C000A091EC09B091ED09481759076A077B07FD
:1024D0000CF098C02091E0093091E109A0E2B3E04E
:1024E0000E94A04D2CE330E040E050E00E94544DAB
:1024F000220F331F441F551F60E970ED83E090E009
:102500000E94544D215031093093DF092093DE0998
:102510002C39310568F48CE990E090931402809393
:102520001302F6990DC09093A9008093A80008C0EB
:1025300030931402209313023093A9002093A80033
:10254000809113029091140201962091DE0930913E
:10255000DF09821B930B9093F7098093F609092EEC
:10256000000CAA0BBB0B8C0D9D1DAE1DBF1D8093D7
:10257000F2099093F309A093F409B093F509F49A42
:1025800080910B01806280930B018091090183FD92
:102590000EC080910B01886080930B012FEF8BEDB3
:1025A00095E0215080409040E1F700C0000081E0BC
:1025B0008093EE09F59AE898809170008D7F809362
:1025C0007000809170008B7F80937000809172000A
:1025D0008D7F80937200809173008D7F8093730054
:1025E000809173008B7F809373001092A5001092EE
:1025F000A40084E089BB80937200FF90EF90DF908D
:10260000CF9008958CE990E09093DF098093DE09E4
:10261000909314028093130286CFE2E0F1E0808170
:102620008D7F80832FEF84E39CE021508040904099
:10263000E1F700C000008081826080830895E2E0BD
:10264000F1E080818D7F80832FE788E391E0215046
:1026500080409040E1F700C000008081826080836C
:102660002FEF83EC99E0215080409040E1F700C0CB
:10267000000080818D7F80832FE788E391E02150E7
:1026800080409040E1F700C000008081826080833C
:102690000895E2E0F1E080818D7F80832FE788E379
:1026A00091E0215080409040E1F700C0000080811F
:1026B000826080830895FC0101900020E9F7319742
:1026C000AF01481B590BBC0184E09AE00C94470110
:1026D0002F923F924F925F926F927F928F929F9232
:1026E000AF92BF92CF92DF92EF92FF920F931F9320
:1026F000CF93DF9300D000D01F921F92CDB7DEB7EB
:10270000C0900F02D0901002E0901102F0901202DF
:102710000091D7091091D809C701B601660F771F3C
:10272000881F991F9801012E000C440B550B0E9425
:10273000764D4090EA095090EB096090EC0970905A
:10274000ED09E0910E0219018FEF281A380A8090E6
:10275000190290901A02A0901B02B0901C0248141B
:1027600059046A047B0409F0DAC08090FC09909057
:10277000FD09A090FE09B090FF098091210290917F
:102780002202A0912302B091240288169906AA067B
:10279000BB0609F0B5C0F699B3C09091D609911166
:1027A00055C08E2F90E0281639060CF44FC061E01A
:1027B0006093D6091092F0091092EF0937FD91014C
:1027C00035952795281739070CF48BC0089FB00161
:1027D000099F700D189F700D1124072E000C880B97
:1027E000990B0E94D84B20E030E048E453E40E946B
:1027F000644C20E030E046E153E40E943D4B20E091
:1028000030E040E05FE30E94D94A0E94A54BE2E03D
:10281000660F771F881F991FEA95D1F70091D0099D
:102820001091D1092091D2093091D309060F171FB9
:10283000281F391F009328021093290220932A028F
:1028400030932B021798FBDE0E94C10780910E0285
:102850008215130469F164F140E050E060E070E437
:10286000409328025093290260932A0270932B020E
:10287000179A80E090E0A0E0B0EC80932102909362
:102880002202A0932302B0932402159A40931D02C2
:1028900050931E0260931F0270932002139A80933C
:1028A000190290931A02A0931B02B0931C02119A72
:1028B00028960FB6F894DEBF0FBECDBFDF91CF9143
:1028C0001F910F91FF90EF90DF90CF90BF90AF904E
:1028D0009F908F907F906F905F904F903F902F9040
:1028E00008950197809FB001819F700D909F700D9A
:1028F00011248091D4099091D509680F791F6DCF6B
:102900008091280290912902A0912A02B0912B0275
:1029100088169906AA06BB0611F4F39B52C0409193
:102920001D0250911E0260911F02709120024416F8
:1029300055066606770609F089CF0091FC091091CB
:10294000FD092091FE093091FF0940912802509124
:10295000290260912A0270912B020417150726079D
:10296000370709F073CFF39971CF1092D6091092FF
:10297000F0091092EF094091C0095091C10960918E
:10298000C2097091C3098A019B01005911402109B4
:1029900031090093190210931A0220931B023093FD
:1029A0001C0281E08E0F80930E02415E5C4F6F4FE0
:1029B0007F4F44155505660577050CF0E7C02ADC06
:1029C00045CFAE2FB0E0BA83A9832A163B060CF49C
:1029D0003DCF1092F0091092EF0937FD9101A90146
:1029E0005595479558874F838091CC099091CD0993
:1029F000A091CE09B091CF098B839C83AD83BE8318
:102A0000C701B6010E94D84B2B013C01A981BA81B4
:102A10002F8138852A173B070CF075C02F5F3F4F79
:102A2000CD01821B930B809FD001819FB00D909FA1
:102A3000B00D11249D010E949A4D2B813C814D8146
:102A40005E81261B370B480B590BCA01B9010E9446
:102A5000D84B0E94CB4C9B01AC01C301B2010E9438
:102A6000D84A20E030E048E453E40E94644C20E07F
:102A700030E048EC52E40E943D4B0E94A54B00918F
:102A8000C8091091C9092091CA093091CB09C09099
:102A9000C409D090C509E090C609F090C7090C1987
:102AA0001D092E093F09DC01CB0142E0880F991F67
:102AB000AA1FBB1F4A95D1F7081719072A073B071A
:102AC00014F4D901C8010091C0091091C1092091E5
:102AD000C2093091C309080F191F2A1F3B1F009319
:102AE0001D0210931E0220931F0230932002809239
:102AF000210290922202A0922302B0922402139803
:102B00000E948309A3CE49815A81049FC001059F79
:102B1000900D149F900D1124092E000CAA0BBB0BD5
:102B2000A7019601281B390B4A0B5B0BCA01B9019F
:102B30000E941E4D2B813C814D815E81261B370BEF
:102B4000480B590BCA01B9010E94D84B0E94CB4CCB
:102B50009B01AC01C301B2010E94D84A20E030E0E1
:102B600048E453E40E94644C20E030E048EC52E436
:102B70000E943D4B0E94A54BDC01CB0122E0880F57
:102B8000991FAA1FBB1F2A95D1F79DCF0E94640AE7
:102B90005DCE4F925F926F927F928F929F92AF9293
:102BA000BF92CF92DF92EF92FF920F931F93CF933A
:102BB000DF934091FC095091FD096091FE097091ED
:102BC000FF098091280290912902A0912A02B091D8
:102BD0002B02481759076A077B0709F04EC18091FD
:102BE000EA099091EB09A091EC09B091ED090091EF
:102BF0001D0210911E0220911F02309120028017A9
:102C00009107A207B30771F00091C0091091C109A3
:102C10002091C2093091C30980179107A207B30719
:102C200009F008C1E09118028AE1E89FF00111243F
:102C3000E65BFD4F818980930D029091D609911139
:102C4000E8C010910E02C82FD0E0811708F4A0C090
:102C500081E08093D6091092E3091092E2092DE2F7
:102C600032EB4DE55FE365857685878590890E9427
:102C7000644C6B017C01BE0161507109072E000C90
:102C8000880B990B0E94D84B0E94CB4C4B015C01E6
:102C900020E030E040E85EE3C701B6010E94644CEA
:102CA0009B01AC01C701B6010E94D84A2B013C012F
:102CB00020E030E040E951E4C701B6010E943D4BFD
:102CC0009B01AC01C301B2010E94D84AA501940145
:102CD0000E943D4B6B017C012CE837E34CE05FE345
:102CE000113071F0812F8150990BBC01072E000C1F
:102CF000880B990B0E94D84B0E94CB4CA7019601E0
:102D00000E94644C2AE037ED43EA5BE30E943D4BAE
:102D100020E030E040E05FE30E94D94A0E94A54BEA
:102D20006F5F7F4F8F4F9F4F22E0660F771F881F87
:102D3000991F2A95D1F70091C0091091C1092091DE
:102D4000C2093091C309061B170B280B390B0093DE
:102D5000190210931A0220931B0230931C0211983F
:102D600080910E028F5F80930E0269DCDF91CF911C
:102D70001F910F91FF90EF90DF90CF90BF90AF9099
:102D80009F908F907F906F905F904F900C942B0D41
:102D900023961C171D0609F064F481E08093D60980
:102DA0001092E3091092E20961E0610F60930E0254
:102DB000DCCF1092E3091092E2098091C009909152
:102DC000C109A091C209B091C309809319029093DF
:102DD0001A02A0931B02B0931C020E945A0C139A71
:102DE000119A80E090E0A0E0B0E480931D029093FF
:102DF0001E02A0931F02B093200280E090E0A0E0AA
:102E0000B0EC8093190290931A02A0931B02B09326
:102E10001C02DF91CF911F910F91FF90EF90DF90F7
:102E2000CF90BF90AF909F908F907F906F905F906A
:102E30004F9008950091190210911A0220911B02DF
:102E400030911C0280179107A207B307B1F41092CA
:102E5000E3091092E209DF91CF911F910F91FF904A
:102E6000EF90DF90CF90BF90AF909F908F907F902A
:102E70006F905F904F900C94F40A80912102909192
:102E80002202A0912302B0912402481759076A0731
:102E90007B0709F0BECF8091EA099091EB09A091E0
:102EA000EC09B091ED094091190250911A0260911C
:102EB0001B0270911C0284179507A607B70769F5D6
:102EC0001092D6091092E3091092E2098091C0098C
:102ED0009091C109A091C209B091C30980579E4F3A
:102EE000AF4FBF4F80931D0290931E02A0931F020D
:102EF000B09320021398DF91CF911F910F91FF9013
:102F0000EF90DF90CF90BF90AF909F908F907F9089
:102F10006F905F904F900C94540C40911D02509113
:102F20001E0260911F027091200284179507A60768
:102F3000B70709F06ECF1092E3091092E209DF9112
:102F4000CF911F910F91FF90EF90DF90CF90BF90A6
:102F5000AF909F908F907F906F905F904F900C9468
:102F60006A0A4F925F926F927F928F929F92AF9276
:102F7000BF92CF92DF92EF92FF920F931F93CF9366
:102F8000DF934091FC095091FD096091FE09709119
:102F9000FF098091210290912202A0912302B09119
:102FA0002402481759076A077B0709F04EC1809130
:102FB000EA099091EB09A091EC09B091ED0900911B
:102FC0001D0210911E0220911F02309120028017D5
:102FD0009107A207B30771F00091C0091091C109D0
:102FE0002091C2093091C30980179107A207B30746
:102FF00009F008C1E09118028AE1E89FF00111246C
:10300000E65BFD4F818980930D029091D609911165
:10301000E8C010910E02C82FD0E0811708F4A0C0BC
:1030200081E08093D6091092E3091092E2092DE223
:1030300032EB4DE55FE365857685878590890E9453
:10304000644C6B017C01BE0161507109072E000CBC
:10305000880B990B0E94D84B0E94CB4C4B015C0112
:1030600020E030E040E85EE3C701B6010E94644C16
:103070009B01AC01C701B6010E94D84A2B013C015B
:1030800020E030E040E951E4C701B6010E943D4B29
:103090009B01AC01C301B2010E94D84AA501940171
:1030A0000E943D4B6B017C012CE837E34CE05FE371
:1030B000113071F0812F8150990BBC01072E000C4B
:1030C000880B990B0E94D84B0E94CB4CA70196010C
:1030D0000E94644C2AE037ED43EA5BE30E943D4BDB
:1030E00020E030E040E05FE30E94D94A0E94A54B17
:1030F0006F5F7F4F8F4F9F4F22E0660F771F881FB4
:10310000991F2A95D1F70091C0091091C10920910A
:10311000C2093091C309061B170B280B390B00930A
:10312000190210931A0220931B0230931C0211986B
:1031300080910E028F5F80930E0281DADF91CF9132
:103140001F910F91FF90EF90DF90CF90BF90AF90C5
:103150009F908F907F906F905F904F900C942B0D6D
:1031600023961C171D0609F064F481E08093D609AC
:103170001092E3091092E20961E0610F60930E0280
:10318000DCCF1092E3091092E2098091C00990917E
:10319000C109A091C209B091C3098093190290930B
:1031A0001A02A0931B02B0931C020E945A0C139A9D
:1031B000119A80E090E0A0E0B0E480931D0290932B
:1031C0001E02A0931F02B093200280E090E0A0E0D6
:1031D000B0EC8093190290931A02A0931B02B09353
:1031E0001C02DF91CF911F910F91FF90EF90DF9024
:1031F000CF90BF90AF909F908F907F906F905F9097
:103200004F9008950091190210911A0220911B020B
:1032100030911C0280179107A207B307B1F41092F6
:10322000E3091092E209DF91CF911F910F91FF9076
:10323000EF90DF90CF90BF90AF909F908F907F9056
:103240006F905F904F900C946A0A80912802909141
:103250002902A0912A02B0912B02481759076A0748
:103260007B0709F0BECF8091EA099091EB09A0910C
:10327000EC09B091ED094091190250911A02609148
:103280001B0270911C0284179507A607B70769F502
:103290001092D6091092E3091092E2098091C009B8
:1032A0009091C109A091C209B091C30980579E4F66
:1032B000AF4FBF4F80931D0290931E02A0931F0239
:1032C000B09320021398DF91CF911F910F91FF903F
:1032D000EF90DF90CF90BF90AF909F908F907F90B6
:1032E0006F905F904F900C94540C40911D02509140
:1032F0001E0260911F027091200284179507A60795
:10330000B70709F06ECF1092E3091092E209DF913E
:10331000CF911F910F91FF90EF90DF90CF90BF90D2
:10332000AF909F908F907F906F905F904F900C9494
:10333000F40A4F925F926F927F928F929F92AF9218
:10334000BF92CF92DF92EF92FF920F931F93CF9392
:103350004091FC095091FD096091FE097091FF09AF
:103360008091280290912902A0912A02B0912B020B
:10337000481759076A077B0709F04DC18091EA0990
:103380009091EB09A091EC09B091ED09009119021F
:1033900010911A0220911B0230911C028017910794
:1033A000A207B30771F00091C0091091C1092091E3
:1033B000C2093091C30980179107A207B30709F02A
:1033C00008C1E09118028AE1E89FF0011124E65B50
:1033D000FD4F818980930D029091D6099111E9C02A
:1033E000C0910E02082F10E08C1708F4A0C081E0F5
:1033F0008093D6091092E3091092E2092DE232EB94
:103400004DE55FE365857685878590890E94644CEC
:103410006B017C01B80161507109072E000C880B0B
:10342000990B0E94D84B0E94CB4C4B015C0120E0D1
:1034300030E040EC50E4C701B6010E943D4B9B01D7
:10344000AC01C701B6010E94D84A2B013C0120E023
:1034500030E040E05EE3C701B6010E94644C9B018E
:10346000AC01C301B2010E94D84AA50194010E9497
:103470003D4B6B017C012CE837E34CE05FE3C1304E
:1034800071F08C2F8150990BBC01072E000C880B1A
:10349000990B0E94D84B0E94CB4CA70196010E9429
:1034A000644C2AE037ED43EA5BE30E943D4B20E0A9
:1034B00030E040E05FE30E94D94A0E94A54BDC0166
:1034C000CB010196A11DB11D22E0880F991FAA1FF3
:1034D000BB1F2A95D1F74091C0095091C109609155
:1034E000C2097091C309840F951FA61FB71F80934F
:1034F0001D0290931E02A0931F02B0932002139806
:1035000080910E028F5F80930E0299D8CF911F9108
:103510000F91FF90EF90DF90CF90BF90AF909F9072
:103520008F907F906F905F904F900C94540C0D5F34
:103530001F4FC017110609F064F481E08093D6098B
:103540001092E3091092E20961E06C0F60930E02A1
:10355000DCCF1092E3091092E2098091C0099091AA
:10356000C109A091C209B091C30980931D02909333
:103570001E02A0931F02B09320020E94830B139A95
:10358000119A80E090E0A0E0B0E480931D02909357
:103590001E02A0931F02B093200280E090E0A0E002
:1035A000B0EC8093190290931A02A0931B02B0937F
:1035B0001C02CF911F910F91FF90EF90DF90CF9061
:1035C000BF90AF909F908F907F906F905F904F9043
:1035D000089500911D0210911E0220911F0230914A
:1035E000200280179107A207B307A9F41092E309FC
:1035F0001092E209CF911F910F91FF90EF90DF9011
:10360000CF90BF90AF909F908F907F906F905F9082
:103610004F900C94F40A8091210290912202A09183
:103620002302B0912402481759076A077B0709F65D
:103630008091EA099091EB09A091EC09B091ED0914
:1036400040911D0250911E0260911F027091200254
:1036500084179507A607B70761F51092D60910924F
:10366000E3091092E2098091C0099091C109A091EB
:10367000C209B091C30980599140A109B109809351
:10368000190290931A02A0931B02B0931C02119886
:10369000CF911F910F91FF90EF90DF90CF90BF904F
:1036A000AF909F908F907F906F905F904F900C9411
:1036B0002B0D4091190250911A0260911B027091DA
:1036C0001C0284179507A607B70709F072CF10925E
:1036D000E3091092E209CF911F910F91FF90EF90B3
:1036E000DF90CF90BF90AF909F908F907F906F9022
:1036F0005F904F900C946A0A4F925F926F927F9204
:103700008F929F92AF92BF92CF92DF92EF92FF92F1
:103710000F931F93CF934091FC095091FD09609145
:10372000FE097091FF098091210290912202A091DF
:103730002302B0912402481759076A077B0709F052
:103740004EC18091EA099091EB09A091EC09B091EA
:10375000ED090091190210911A0220911B0230917B
:103760001C0280179107A207B30771F00091C009EE
:103770001091C1092091C2093091C30980179107A6
:10378000A207B30709F009C1E09118028AE1E89F96
:10379000F0011124E65BFD4F818980930D02909129
:1037A000D6099111EAC0C0910E02082F10E08C17C3
:1037B00008F4A1C081E08093D6091092E309109229
:1037C000E2092DE232EB4DE55FE36585768587857D
:1037D00090890E94644C6B017C01B80161507109B1
:1037E000072E000C880B990B0E94D84B0E94CB4CE3
:1037F0004B015C0120E030E040EC50E4C701B60131
:103800000E943D4B9B01AC01C701B6010E94D84A02
:103810002B013C0120E030E040E05EE3C701B6014F
:103820000E94644C9B01AC01C301B2010E94D84AC2
:10383000A50194010E943D4B6B017C012CE837E30C
:103840004CE05FE3C13071F08C2F8150990BBC01CB
:10385000072E000C880B990B0E94D84B0E94CB4C72
:10386000A70196010E94644C2AE037ED43EA5BE32E
:103870000E943D4B20E030E040E05FE30E94D94AE7
:103880000E94A54BDC01CB010196A11DB11D22E0D8
:10389000880F991FAA1FBB1F2A95D1F74091C00915
:1038A0005091C1096091C2097091C309840F951F9D
:1038B000A61FB71F80931D0290931E02A0931F02A4
:1038C000B0932002139880910E028F5F80930E02B6
:1038D0000E941F13CF911F910F91FF90EF90DF90E7
:1038E000CF90BF90AF909F908F907F906F905F90A0
:1038F0004F900C94540C0D5F1F4FC017110609F028
:1039000064F481E08093D6091092E3091092E209F1
:1039100061E06C0F60930E02DBCF1092E30910920E
:10392000E2098091C0099091C109A091C209B091AA
:10393000C30980931D0290931E02A0931F02B093AF
:1039400020020E94830B139A119A80E090E0A0E07D
:10395000B0E480931D0290931E02A0931F02B093C7
:10396000200280E090E0A0E0B0EC809319029093F8
:103970001A02A0931B02B0931C02CF911F910F91CA
:10398000FF90EF90DF90CF90BF90AF909F908F907F
:103990007F906F905F904F90089500911D0210915D
:1039A0001E0220911F023091200280179107A2076A
:1039B000B307A9F41092E3091092E209CF911F9185
:1039C0000F91FF90EF90DF90CF90BF90AF909F90BE
:1039D0008F907F906F905F904F900C946A0A8091C7
:1039E000280290912902A0912A02B0912B02481737
:1039F00059076A077B0709F68091EA099091EB095C
:103A0000A091EC09B091ED0940911D0250911E0268
:103A100060911F027091200284179507A607B707CF
:103A200061F51092D6091092E3091092E209809193
:103A3000C0099091C109A091C209B091C3098059F0
:103A40009140A109B1098093190290931A02A093A1
:103A50001B02B0931C021198CF911F910F91FF9000
:103A6000EF90DF90CF90BF90AF909F908F907F901E
:103A70006F905F904F900C942B0D409119025091D4
:103A80001A0260911B0270911C0284179507A60709
:103A9000B70709F072CF1092E3091092E209CF91B3
:103AA0001F910F91FF90EF90DF90CF90BF90AF905C
:103AB0009F908F907F906F905F904F900C94F40A3E
:103AC000CF93DF93EC0160E08E810E94740161E08E
:103AD0008E810E94740160E08E810E9474018BE8E7
:103AE00091E00197F1F7DF91CF910895CF92DF92A6
:103AF000EF92FF920F931F93CF93DF936C017C01A2
:103B000087E0E80EF11CD0E0C0E0062F10E0B8011D
:103B10000C2E02C0759567950A94E2F76170F70163
:103B200081917F010E9474012196C430D10579F7FB
:103B3000C601DF91CF911F910F91FF90EF90DF9021
:103B4000CF90BECFCF92DF92EF92FF920F931F9351
:103B5000CF93DF93EC01F62E642F8C810E947401C9
:103B60008D818F3F19F060E00E9474010F2D10E0ED
:103B70008F8584FF24C06E0187E0C80ED11CF12C14
:103B8000E12CB8010E2C02C0759567950A94E2F7F6
:103B90006170F60181916F010E947401FFEFEF1ACD
:103BA000FF0A88E0E816F10461F7CE01DF91CF91BA
:103BB0001F910F91FF90EF90DF90CF9081CFB801D0
:103BC00084E0759567958A95E1F7CE018FDF6F2DBB
:103BD000CE01DF91CF911F910F91FF90EF90DF9079
:103BE000CF9084CF40E0682F84E09AE0ABCFCF93B2
:103BF000DF93823029F49091130A98609093130A0E
:103C00008093170A1092180A80E48093190A80E1C1
:103C100080931A0A80E580931B0A8091080A0E940B
:103C200028018091090A8F3F11F00E94280180919C
:103C30000A0A0E942801C4E0DAE09E0124503A40BA
:103C40008091130A84FD0AC084E090E02196281731
:103C500039073CF48E810E942801EFCF88E090E084
:103C6000F5CF8BE39DE00197F1F760E08091080AC2
:103C70000E94740160E080910A0A0E9474018091A0
:103C8000090A8F3F19F060E00E9474018091130AC5
:103C900084FD31C063E084E09AE028DFCBE4D6E421
:103CA000CE010197F1F763E084E09AE01FDF2197EE
:103CB000F1F763E084E09AE019DF83E592E0019791
:103CC000F1F762E084E09AE011DF8091130A8062EC
:103CD00089DF84E08093140A8CE084DF81E082DF56
:103CE0008BE39FE10197F1F782E08093150A86E06C
:103CF000DF91CF9177CF806275DF8BE496E40197F7
:103D0000F1F78091130A80626DDF83E592E00197FD
:103D1000F1F78091130A806265DFD7CF41E012DFAF
:103D200081E090E008958F929F92AF92BF92CF92E0
:103D3000DF92EF92FF920F931F93CF938091250212
:103D4000813009F0C7C0809118021AE1819FC0013B
:103D50001124805B9D4F9F938F938EE697E09F93F6
:103D60008F931F92C1E1CF9383E499E09F938F9348
:103D70000E94C64D809115022DB73EB7285F3F4F78
:103D80000FB6F8943EBF0FBE2DBF813009F060C062
:103D900080911802819FC0011124845A9D4F9F93E6
:103DA0008F938BE797E09F938F931F92CF9382E33C
:103DB00099E09F938F930E94C64D8DB79EB708964A
:103DC0000FB6F8949EBF0FBE8DBF80918C096AEF2D
:103DD00078E0811106C080918B09882331F06BE077
:103DE00079E082E399E00E94BF4DE1E08091170AFB
:103DF0008111E0E0E195F0E0EC5FF54F84898068A7
:103E0000F1DE83E499E00E945B1386E498E00E946F
:103E10005B13E091170AE23008F068C4E150F0E06B
:103E2000EC5FF54F84898068DDDE82E399E00E94D3
:103E30005B1386E498E0CF911F910F91FF90EF9074
:103E4000DF90CF90BF90AF909F908F900C945B13BA
:103E50008230F9F480911802819FC0011124845AA4
:103E60009D4F9F938F9387E897E09F938F931F9227
:103E7000CF9382E399E09F938F930E94C64D2DB715
:103E80003EB7285F3F4F0FB6F8943EBF0FBE2DBF21
:103E90009CCF833009F099CF80911802819FC00197
:103EA0001124845A9D4F9F938F9383E997E09F93AA
:103EB0008F931F92CF9382E399E09F938F930E94F9
:103EC000C64D8DB79EB708960FB6F8949EBF0FBE2D
:103ED0008DBF7BCF823009F0A3C08091FA09909109
:103EE000FB0904E610E0B8010E942D4D9F938F93CB
:103EF0007F936F938FE997E09F938F931F92C1E118
:103F0000CF9383E499E09F938F930E94C64D809155
:103F100008022DB73EB7265F3F4F0FB6F8943EBF5D
:103F20000FBE2DBF813049F580918F099091900986
:103F3000B8010E94414D9F938F937F936F9380911F
:103F40000D0290910E02891B990B01969F938F93FE
:103F500086EB97E09F938F931F92CF9382E399E034
:103F60009F938F930E94C64D8DB79EB70C960FB648
:103F7000F8949EBF0FBE8DBF28CF823029F5809167
:103F80008F0990919009B8010E94414D9F938F93A2
:103F90007F936F9380910D021F928F938EEC97E029
:103FA0009F938F931F92CF9382E399E09F938F9378
:103FB0000E94C64D2DB73EB7245F3F4F0FB6F89411
:103FC0003EBF0FBE2DBF01CF833009F0FECE8091E2
:103FD0008F0990919009B8010E94414D9F938F9352
:103FE0007F936F9380910D0290910E02891B990B24
:103FF00001969F938F9386EE97E09F938F931F92E6
:10400000CF9382E399E09F938F930E94C64D8DB723
:104010009EB70C960FB6F8949EBF0FBE8DBFD5CE3F
:10402000833009F095C08091E1098F938091E00978
:104030008F938EEF97E09F938F931F92C1E1CF9361
:1040400083E499E09F938F930E94C64D809107026D
:104050002DB73EB7285F3F4F0FB6F8943EBF0FBE57
:104060002DBF813029F580918F099091900964E6E8
:1040700070E00E94414D9F938F937F936F93809147
:104080000D021F928F9386EB97E09F938F931F9261
:10409000CF9382E399E09F938F930E94C64D8DB793
:1040A0009EB70C960FB6F8949EBF0FBE8DBF8DCEF7
:1040B000823031F580918F099091900964E670E02B
:1040C0000E94414D9F938F937F936F9380910D0238
:1040D0001F928F938EEC97E09F938F931F92CF93B5
:1040E00082E399E09F938F930E94C64D2DB73EB710
:1040F000245F3F4F0FB6F8943EBF0FBE2DBF65CE75
:10410000833009F062CE80918F099091900964E626
:1041100070E00E94414D9F938F937F936F938091A6
:104120000D021F928F9386EE97E09F938F931F92BD
:10413000CF9382E399E09F938F930E94C64D8DB7F2
:104140009EB70C960FB6F8949EBF0FBE8DBF3DCEA6
:10415000843009F0A3C08091FA099091FB0904E62C
:1041600010E0B8010E942D4D9F938F937F936F9322
:104170008091030A29E0829FC00111248555994F3F
:104180009F938F938FE098E09F938F931F92C1E14D
:10419000CF9383E499E09F938F930E94C64D8091C3
:1041A00006022DB73EB7245F3F4F0FB6F8943EBFCF
:1041B0000FBE2DBF813021F580918F09909190091C
:1041C000B8010E94414D9F938F937F936F9380918D
:1041D0000D021F928F9386EB97E09F938F931F9210
:1041E000CF9382E399E09F938F930E94C64D8DB742
:1041F0009EB70C960FB6F8949EBF0FBE8DBFE5CD4F
:10420000823029F580918F0990919009B8010E9420
:10421000414D9F938F937F936F9380910D021F92D7
:104220008F938EEC97E09F938F931F92CF9382E3AF
:1042300099E09F938F930E94C64D2DB73EB7245FA0
:104240003F4F0FB6F8943EBF0FBE2DBFBECD83309B
:1042500009F0BBCD80918F0990919009B8010E941F
:10426000414D9F938F937F936F9380910D021F9287
:104270008F9386EE97E09F938F931F92CF9382E365
:1042800099E09F938F930E94C64D8DB79EB70C9671
:104290000FB6F8949EBF0FBE8DBF97CD853009F045
:1042A000A3C08091FA099091FB0904E610E0B801DF
:1042B0000E942D4D9F938F937F936F938091030A5C
:1042C00029E0829FC00111248555994F9F938F93B8
:1042D00084E298E09F938F931F92C1E1CF9383E490
:1042E00099E09F938F930E94C64D809106022DB74F
:1042F0003EB7245F3F4F0FB6F8943EBF0FBE2DBFB1
:10430000813021F580918F0990919009B8010E9428
:10431000414D9F938F937F936F9380910D021F92D6
:104320008F9386EB97E09F938F931F92CF9382E3B7
:1043300099E09F938F930E94C64D8DB79EB70C96C0
:104340000FB6F8949EBF0FBE8DBF3FCD823029F5CA
:1043500080918F0990919009B8010E94414D9F93DF
:104360008F937F936F9380910D021F928F938EECAA
:1043700097E09F938F931F92CF9382E399E09F934F
:104380008F930E94C64D2DB73EB7245F3F4F0FB6A7
:10439000F8943EBF0FBE2DBF18CD833009F015CD68
:1043A00080918F0990919009B8010E94414D9F938F
:1043B0008F937F936F9380910D021F928F9386EE60
:1043C00097E09F938F931F92CF9382E399E09F93FF
:1043D0008F930E94C64D8DB79EB70C960FB6F8947A
:1043E0009EBF0FBE8DBFF1CC863069F469E378E0E3
:1043F00083E499E00E94BF4D69E378E082E399E0AD
:104400000E94BF4DE2CC873009F009C18091BC0900
:104410008111CBC08091FA099091FB09C0900F02E5
:10442000D0901002E0901102F090120264E670E069
:104430000E942D4D9F938F937F936F93C701B60179
:1044400025E030E040E050E00E94764DCA01B9011D
:104450002AE030E040E050E00E94764D9F938F9339
:104460007F936F93C701B60122E330E040E050E054
:104470000E94764D5F934F933F932F938AE498E089
:104480009F938F931F9281E18F9383E499E09F9391
:104490008F930E94C64D809105022DB73EB72E5EC8
:1044A0003F4F0FB6F8943EBF0FBE2DBF813019F4B9
:1044B00067E678E0A3CF8230D1F5C0909109D09023
:1044C0009209E0909309F0909409C701B601660F34
:1044D000771F881F991F24E630E040E050E00E94DB
:1044E000764D9F938F937F936F93C701B60122E31D
:1044F00030E040E050E00E94764D5F934F933F9351
:104500002F9388E798E09F938F931F9281E18F9379
:1045100082E399E09F938F930E94C64D8DB79EB71B
:104520000E960FB6F8949EBF0FBE8DBF4ECC833053
:1045300009F04BCCC0909109D0909209E09093097A
:10454000F0909409C701B601660F771F881F991F65
:1045500024E630E040E050E00E94764D9F938F9338
:104560007F936F93C701B60122E330E040E050E053
:104570000E94764D5F934F933F932F938FE898E07F
:104580009F938F931F9281E18F9382E399E09F9392
:104590008F930E94C64D2DB73EB7225F3F4F0FB697
:1045A000F8943EBF0FBE2DBF10CC8091D4099091DE
:1045B000D50904E610E0B8010E94414D9F938F9306
:1045C0007F936F9386EA98E09F938F931F92C1E148
:1045D000CF9383E499E09F938F930E94C64D80917F
:1045E000D7099091D809B8010E94414D9F938F93AC
:1045F0007F936F938BEB98E09F938F931F92CF9352
:1046000082E399E09F938F930E94C64D8DB79EB72A
:1046100044960FB6F8949EBF0FBE8DBFD6CB8830A0
:1046200009F0D3CBA0918D09B0918E092AE030E03A
:104630000E94AF4D4B015C01C0910A02A0910B0298
:10464000A150BB0B20EA3CE80E94AF4D2C2F30E07C
:1046500050E040E00E94764D1F92CF9384E6C82E32
:10466000D12CE12CF12CCA01B901A70196010E94BD
:10467000764D9F938F937F936F935F934F933F9369
:104680002F9380ED98E09F938F931F92C1E1CF937A
:1046900083E499E09F938F930E94C64D80910B0213
:1046A0001F928F93C501B401A70196010E94764D18
:1046B0009F938F937F936F935F934F933F932F932A
:1046C00085EE98E09F938F931F92CF9382E399E0BA
:1046D0009F938F930E94C64D2DB73EB7205E3F4FEC
:1046E0000FB6F8943EBF0FBE2DBF6FCBE1E097CB66
:1046F000CF92DF92EF92FF920F931F93CF9381E0BF
:1047000080938A09EA98809171008D7F809371006F
:10471000809171008B7F809371001092B20910928A
:10472000B3091092AC091092AD091092AE09109223
:10473000AF091092A8091092A9091092AA09109223
:10474000AB091092A4091092A5091092A609109223
:10475000A7091092A0091092A1091092A209109223
:10476000A30910929C0910929D0910929E09109223
:104770009F0980912502813009F5809115028230D0
:1047800009F080C280918C0981117CC280918B09D3
:10479000811178C2F09909C0CF911F910F91FF90BC
:1047A000EF90DF90CF900C942B0DCF911F910F9134
:1047B000FF90EF90DF90CF900C94540C823009F072
:1047C000EBC180910802823009F063C080918C09AE
:1047D000811158C280918B09811154C280910601C8
:1047E00084FD27C08091190290911A02A0911B02AA
:1047F000B0911C0280559B4FAF4FBF4F4091EA09CB
:104800005091EB096091EC097091ED0984179507BF
:10481000A607B7070CF036C21092EE09F69932C21D
:10482000CF911F910F91FF90EF90DF90CF900C945C
:104830000A1120912801309129018091260290913E
:1048400027022817390709F01DC21092D909809153
:104850009509811117C28091090183FD0EC08091D5
:104860000B01886080930B012FEF8BED95E02150B9
:1048700080409040E1F700C0000081E08093EE09A5
:10488000CF911F910F91FF90EF90DF90CF900C94FC
:10489000640A833009F0F6C14091EA095091EB09AE
:1048A0006091EC097091ED0980911D0290911E02BA
:1048B000A0911F02B0912002481759076A077B0791
:1048C00009F0F2C08091FC099091FD09A091FE09C8
:1048D000B091FF09C0902102D0902202E090230203
:1048E000F09024028C159D05AE05BF0511F4F69BD2
:1048F00010C00091D0091091D1092091D2093091B6
:10490000D30980179107A207B30709F0BEC0F69933
:10491000BCC08091D6098111B5C1C0910E028091B1
:104920000D028C1708F476C081E08093D6091092AE
:10493000F0091092EF0960918F0970919009072E8C
:10494000000C880B990B0E94D84B20E030E048E423
:1049500053E40E94644C20E030E046E153E40E94BE
:104960003D4B20E030E040E05FE30E94D94A0E94E6
:10497000A54B660F771F660F771F6115710581F5CF
:10498000C130A1F48091D0099091D109A091D209B0
:10499000B091D3090196A11DB11D80932802909377
:1049A0002902A0932A02B0932B020EC020E9C20E66
:1049B00021E0D21EE11CF11CC0922802D0922902F3
:1049C000E0922A02F0922B0217980E941F13CF91B7
:1049D0001F910F91FF90EF90DF90CF900C94C10743
:1049E000CB01770FAA0BBB0BC13069F4C090D00983
:1049F000D090D109E090D209F090D3098C0D9D1D83
:104A0000AE1DBF1DCACF20E9C20E21E0D21EE11C9F
:104A1000F11CF4CF1092F0091092EF0980E9C80E52
:104A200081E0D81EE11CF11CC0922802D09229021C
:104A3000E0922A02F0922B020E94E606179A159A3B
:104A400080E090E0A0E0B0E48093280290932902F7
:104A5000A0932A02B0932B0280E090E0A0E0B0EC9B
:104A60008093210290932202A0932302B093240208
:104A700081E080930D0280930E02CF911F910F91E0
:104A8000FF90EF90DF90CF904EC9C0902802D09059
:104A90002902E0902A02F0902B028C159D05AE05AC
:104AA000BF0511F4F39B41C08091190290911A0245
:104AB000A0911B02B0911C02481759076A077B0797
:104AC00009F0E0C08091FC099091FD09A091FE09D8
:104AD000B091FF09409128025091290260912A0269
:104AE00070912B0284179507A607B70791F5F699E1
:104AF00030C01092D6091092F0091092EF09805937
:104B00009140A109B1098093210290932202A093C0
:104B10002302B09324021598CF911F910F91FF901B
:104B2000EF90DF90CF900C94A20890910E028091AC
:104B30000D02891708F4A6C01092F0091092EF092F
:104B4000CF911F910F91FF90EF90DF90CF900C9439
:104B500089094091210250912202609123027091B3
:104B6000240284179507A607B70709F08BC0F399AD
:104B700089C01092F0091092EF0980910E028F5FA8
:104B800080930E02D0D8CF911F910F91FF90EF909C
:104B9000DF90CF900C94A510833009F041C0809134
:104BA0000702823009F06EC080918C0981116AC0C1
:104BB00080918B09811166C08091060184FF12CE1D
:104BC0002091A8003091A9008091130290911402C5
:104BD0002817390709F056C01092D9098091950914
:104BE000811150C08091090183FD0EC080910B019D
:104BF000886080930B019FEF2BED85E09150204062
:104C00008040E1F700C0000081E08093EE09CF9181
:104C10001F910F91FF90EF90DF90CF900C943E1278
:104C2000843071F580918C0981112CC080918B09A1
:104C3000811128C08091060184FFD4CD20912801E4
:104C40003091290180912602909127022817390777
:104C5000C9F41092D90980919509811113C08091EE
:104C6000090183FD0ACE80910B01886080930B01BE
:104C70009FEF2BED85E0915020408040E1F7FBCD88
:104C8000853081F2CF911F910F91FF90EF90DF90CF
:104C9000CF900895CF92DF92EF92FF920F931F93E0
:104CA000CF934091EA095091EB096091EC09709122
:104CB000ED098091190290911A02A0911B02B09106
:104CC0001C02481759076A077B0709F0F3C0809157
:104CD000FC099091FD09A091FE09B091FF09C090D7
:104CE0002102D0902202E0902302F09024028C1541
:104CF0009D05AE05BF0511F4F69B10C00091D009CB
:104D00001091D1092091D2093091D30980179107D0
:104D1000A207B30709F0BFC0F699BDC08091D609BC
:104D200081113FC1C0910E0280910D028C1708F4D1
:104D300076C081E08093D6091092F0091092EF09B5
:104D400060918F0970919009072E000C880B990BC8
:104D50000E94D84B20E030E048E453E40E94644CC9
:104D600020E030E046E153E40E943D4B20E030E09B
:104D700040E05FE30E94D94A0E94A54B660F771F6F
:104D8000660F771F6115710581F5C130A1F480911F
:104D9000D0099091D109A091D209B091D30901967F
:104DA000A11DB11D8093280290932902A0932A028D
:104DB000B0932B020EC020E9C20E21E0D21EE11CEE
:104DC000F11CC0922802D0922902E0922A02F092AD
:104DD0002B0217980E941F13CF911F910F91FF90E4
:104DE000EF90DF90CF900C94C107CB01770FAA0B07
:104DF000BB0BC13069F4C090D009D090D109E090CC
:104E0000D209F090D3098C0D9D1DAE1DBF1DCACFD8
:104E100020E9C20E21E0D21EE11CF11CF4CF109259
:104E2000F0091092EF0980E9C80E81E0D81EE11C5C
:104E3000F11CC0922802D0922902E0922A02F0923C
:104E40002B020E94E606179A159A80E090E0A0E0F7
:104E5000B0E48093280290932902A0932A02B09391
:104E60002B0280E090E0A0E0B0EC809321029093D0
:104E70002202A0932302B093240281E080930D02CA
:104E800080930E02CF911F910F91FF90EF90DF90D2
:104E9000CF900C94931EC0902802D0902902E090ED
:104EA0002A02F0902B028C159D05AE05BF0511F46A
:104EB000F39B41C080911D0290911E02A0911F02A0
:104EC000B0912002481759076A077B0709F069C0AB
:104ED0008091FC099091FD09A091FE09B091FF0914
:104EE000409128025091290260912A0270912B0270
:104EF00084179507A607B70789F5F6992FC0109272
:104F0000D6091092F0091092EF0980599140A10939
:104F1000B1098093210290932202A0932302B093BF
:104F200024021598CF911F910F91FF90EF90DF9081
:104F3000CF900C94A20890910E0280910D028917D7
:104F400080F11092F0091092EF09CF911F910F910B
:104F5000FF90EF90DF90CF900C94A8084091210231
:104F600050912202609123027091240284179507C8
:104F7000A607B707B1F4F39914C01092F009109284
:104F8000EF0980910E028F5F80930E020E94931EA4
:104F9000CF911F910F91FF90EF90DF90CF900C94E5
:104FA0000A11CF911F910F91FF90EF90DF90CF905A
:104FB0000895CF92DF92EF92FF920F931F93CF93BA
:104FC0004091FC095091FD096091FE097091FF0923
:104FD0008091280290912902A0912A02B0912B027F
:104FE000481759076A077B0709F0FFC08091EA0953
:104FF0009091EB09A091EC09B091ED09C0901D02D0
:10500000D0901E02E0901F02F09020028C159D05AA
:10501000AE05BF0511F4F39B10C00091C0091091BB
:10502000C1092091C2093091C30980179107A207D5
:10503000B30709F0CBC0F399C9C08091D60981119B
:105040004BC1C0910E0280910D028C1708F482C0F2
:1050500081E08093D6091092F0091092EF096091D7
:105060008F0970919009072E000C880B990B0E94F4
:10507000D84B20E030E048E453E40E94644C20E048
:1050800030E048EC52E40E943D4B20E030E040E04C
:105090005FE30E94D94A0E94A54B660F771F660FF7
:1050A000771F6115710581F5C130F9F48091C00950
:1050B0009091C109A091C209B091C3090197A109BA
:1050C000B1098093190290931A02A0931B02B09326
:1050D0001C0211980E941F13CF911F910F91FF90F6
:1050E000EF90DF90CF900C94640A20E9C21A21E07F
:1050F000D20AE108F108C0921902D0921A02E09295
:105100001B02F0921C02E5CFCB01770FAA0BBB0B61
:10511000C130A9F44091C0095091C1096091C20900
:105120007091C309481B590B6A0B7B0B4093190202
:1051300050931A0260931B0270931C02CACF20E99D
:10514000C21A21E0D20AE108F108C81AD90AEA0A0B
:10515000FB0AD1CF1092F0091092EF0980E9C81A2A
:1051600081E0D80AE108F108C0921902D0921A022F
:10517000E0921B02F0921C020E948909139A119A74
:1051800080E090E0A0E0B0E480931D0290931E02C6
:10519000A0931F02B093200280E090E0A0E0B0EC6A
:1051A0008093190290931A02A0931B02B0931C02E1
:1051B00081E080930D0280930E02CF911F910F9199
:1051C000FF90EF90DF90CF900C94931EC090190247
:1051D000D0901A02E0901B02F0901C028C159D05E5
:1051E000AE05BF0511F4F69B41C08091210290915C
:1051F0002202A0912302B0912402481759076A079E
:105200007B0709F069C08091EA099091EB09A091B0
:10521000EC09B091ED094091190250911A02609188
:105220001B0270911C0284179507A607B70789F522
:10523000F3992FC01092D6091092F0091092EF093D
:1052400080579E4FAF4FBF4F80931D0290931E0219
:10525000A0931F02B09320021398CF911F910F913A
:10526000FF90EF90DF90CF900C94830990910E0205
:1052700080910D02891780F11092F0091092EF09C8
:10528000CF911F910F91FF90EF90DF90CF900C94F2
:10529000C70740911D0250911E0260911F0270913C
:1052A000200284179507A607B707B1F4F69914C032
:1052B0001092F0091092EF0980910E028F5F809397
:1052C0000E020E94931ECF911F910F91FF90EF90BD
:1052D000DF90CF900C94DB0FCF911F910F91FF9037
:1052E000EF90DF90CF900895CF92DF92EF92FF92F0
:1052F0000F931F93CF934091FC095091FD0960914A
:10530000FE097091FF098091210290912202A091E3
:105310002302B0912402481759076A077B0709F056
:10532000FFC08091EA099091EB09A091EC09B0913E
:10533000ED09C0901D02D0901E02E0901F02F09077
:1053400020028C159D05AE05BF0511F4F39B10C01E
:105350000091C0091091C1092091C2093091C3097F
:1053600080179107A207B30709F0CBC0F399C9C012
:105370008091D60981114BC1C0910E0280910D021E
:105380008C1708F482C081E08093D6091092F0094E
:105390001092EF0960918F0970919009072E000C0F
:1053A000880B990B0E94D84B20E030E048E453E48E
:1053B0000E94644C20E030E048EC52E40E943D4BF7
:1053C00020E030E040E05FE30E94D94A0E94A54B14
:1053D000660F771F660F771F6115710581F5C13064
:1053E000F9F48091C0099091C109A091C209B091CE
:1053F000C3090197A109B1098093190290931A0278
:10540000A0931B02B0931C0211980E941F13CF910E
:105410001F910F91FF90EF90DF90CF900C94640A52
:1054200020E9C21A21E0D20AE108F108C09219026B
:10543000D0921A02E0921B02F0921C02E5CFCB013F
:10544000770FAA0BBB0BC130A9F44091C009509152
:10545000C1096091C2097091C309481B590B6A0BBD
:105460007B0B4093190250931A0260931B027093B6
:105470001C02CACF20E9C21A21E0D20AE108F108D1
:10548000C81AD90AEA0AFB0AD1CF1092F009109281
:10549000EF0980E9C81A81E0D80AE108F108C09252
:1054A0001902D0921A02E0921B02F0921C020E9492
:1054B0008909139A119A80E090E0A0E0B0E480930B
:1054C0001D0290931E02A0931F02B093200280E061
:1054D00090E0A0E0B0EC8093190290931A02A093A0
:1054E0001B02B0931C0281E080930D0280930E0298
:1054F000CF911F910F91FF90EF90DF90CF900C9480
:10550000931EC0901902D0901A02E0901B02F090F6
:105510001C028C159D05AE05BF0511F4F69B41C01C
:105520008091280290912902A0912A02B0912B0229
:10553000481759076A077B0709F069C08091EA0993
:105540009091EB09A091EC09B091ED0940911902FD
:1055500050911A0260911B0270911C0284179507EA
:10556000A607B70789F5F3992FC01092D6091092B4
:10557000F0091092EF0980579E4FAF4FBF4F8093B5
:105580001D0290931E02A0931F02B0932002139855
:10559000CF911F910F91FF90EF90DF90CF900C94DF
:1055A000830990910E0280910D02891780F110926B
:1055B000F0091092EF09CF911F910F91FF90EF909A
:1055C000DF90CF900C94E60640911D0250911E0290
:1055D00060911F027091200284179507A607B707F4
:1055E000B1F4F69914C01092F0091092EF0980916D
:1055F0000E028F5F80930E020E94931ECF911F9127
:105600000F91FF90EF90DF90CF900C944010CF91CE
:105610001F910F91FF90EF90DF90CF900895CF9260
:10562000DF92EF92FF920F931F93CF934091FC096B
:105630005091FD096091FE097091FF098091280247
:1056400090912902A0912A02B0912B024817590784
:105650006A077B0709F0F3C08091EA099091EB0992
:10566000A091EC09B091ED09C0901902D0901A02F6
:10567000E0901B02F0901C028C159D05AE05BF0545
:1056800011F4F39B10C00091C0091091C109209141
:10569000C2093091C30980179107A207B30709F027
:1056A000BFC0F399BDC08091D60981113FC1C0919F
:1056B0000E0280910D028C1708F476C081E0809371
:1056C000D6091092F0091092EF0960918F0970913C
:1056D0009009072E000C880B990B0E94D84B20E0F4
:1056E00030E048E453E40E94644C20E030E048ECB1
:1056F00052E40E943D4B20E030E040E05FE30E9436
:10570000D94A0E94A54B660F771F660F771F611558
:10571000710581F5C130A1F48091C0099091C10952
:10572000A091C209B091C3090196A11DB11D80933A
:105730001D0290931E02A0931F02B09320020EC080
:1057400020E9C20E21E0D21EE11CF11CC0921D0214
:10575000D0921E02E0921F02F092200213980E9443
:105760001F13CF911F910F91FF90EF90DF90CF907B
:105770000C948309CB01770FAA0BBB0BC13069F4E2
:10578000C090C009D090C109E090C209F090C3094F
:105790008C0D9D1DAE1DBF1DCACF20E9C20E21E09C
:1057A000D21EE11CF11CF4CF1092F0091092EF0907
:1057B00080E9C80E81E0D81EE11CF11CC0921D02D8
:1057C000D0921E02E0921F02F09220020E94A808CE
:1057D000139A119A80E090E0A0E0B0E480931D025B
:1057E00090931E02A0931F02B093200280E090E0ED
:1057F000A0E0B0EC8093190290931A02A0931B02D0
:10580000B0931C0281E080930D0280930E02CF9131
:105810001F910F91FF90EF90DF90CF900C94931E0B
:10582000C0901D02D0901E02E0901F02F090200256
:105830008C159D05AE05BF0511F4F69B41C0809106
:10584000210290912202A0912302B09124024817D4
:1058500059076A077B0709F069C08091EA099091AE
:10586000EB09A091EC09B091ED0940911D02509116
:105870001E0260911F027091200284179507A607EF
:10588000B70789F5F3992FC01092D6091092F00945
:105890001092EF0980599140A109B1098093190232
:1058A00090931A02A0931B02B0931C021198CF91FF
:1058B0001F910F91FF90EF90DF90CF900C94640AAE
:1058C00090910E0280910D02891780F11092F009DB
:1058D0001092EF09CF911F910F91FF90EF90DF9001
:1058E000CF900C94C7074091190250911A02609111
:1058F0001B0270911C0284179507A607B707B1F425
:10590000F69914C01092F0091092EF0980910E02DE
:105910008F5F80930E020E94931ECF911F910F9173
:10592000FF90EF90DF90CF900C94DB0FCF911F9101
:105930000F91FF90EF90DF90CF900895CF92DF927C
:10594000EF92FF920F931F93CF934091FC095091D8
:10595000FD096091FE097091FF09809121029091EB
:105960002202A0912302B0912402481759076A0726
:105970007B0709F0F3C08091EA099091EB09A091AF
:10598000EC09B091ED09C0901902D0901A02E09094
:105990001B02F0901C028C159D05AE05BF0511F48D
:1059A000F39B10C00091C0091091C1092091C20958
:1059B0003091C30980179107A207B30709F0BFC050
:1059C000F399BDC08091D60981113FC1C0910E02EB
:1059D00080910D028C1708F476C081E08093D6097F
:1059E0001092F0091092EF0960918F09709190095F
:1059F000072E000C880B990B0E94D84B20E030E05A
:105A000048E453E40E94644C20E030E048EC52E467
:105A10000E943D4B20E030E040E05FE30E94D94A25
:105A20000E94A54B660F771F660F771F61157105E2
:105A300081F5C130A1F48091C0099091C109A09174
:105A4000C209B091C3090196A11DB11D80931D0229
:105A500090931E02A0931F02B09320020EC020E973
:105A6000C20E21E0D21EE11CF11CC0921D02D09298
:105A70001E02E0921F02F092200213980E941F1350
:105A8000CF911F910F91FF90EF90DF90CF900C94EA
:105A90008309CB01770FAA0BBB0BC13069F4C0900F
:105AA000C009D090C109E090C209F090C3098C0DE3
:105AB0009D1DAE1DBF1DCACF20E9C20E21E0D21E22
:105AC000E11CF11CF4CF1092F0091092EF0980E96B
:105AD000C80E81E0D81EE11CF11CC0921D02D092BC
